{
	"contracts/BTOFAManager.sol": {
		"BankManager": {
			"abi": [
				{
					"inputs": [
						{
							"internalType": "address",
							"name": "currency",
							"type": "address"
						},
						{
							"internalType": "address",
							"name": "token",
							"type": "address"
						}
					],
					"stateMutability": "nonpayable",
					"type": "constructor"
				},
				{
					"anonymous": false,
					"inputs": [
						{
							"indexed": true,
							"internalType": "address",
							"name": "previousOwner",
							"type": "address"
						},
						{
							"indexed": true,
							"internalType": "address",
							"name": "newOwner",
							"type": "address"
						}
					],
					"name": "OwnershipTransferred",
					"type": "event"
				},
				{
					"inputs": [
						{
							"internalType": "uint256",
							"name": "startId",
							"type": "uint256"
						},
						{
							"internalType": "uint256",
							"name": "endId",
							"type": "uint256"
						}
					],
					"name": "buyToken",
					"outputs": [],
					"stateMutability": "nonpayable",
					"type": "function"
				},
				{
					"inputs": [
						{
							"internalType": "uint256",
							"name": "startId",
							"type": "uint256"
						},
						{
							"internalType": "uint256",
							"name": "endId",
							"type": "uint256"
						}
					],
					"name": "expireToken",
					"outputs": [],
					"stateMutability": "nonpayable",
					"type": "function"
				},
				{
					"inputs": [
						{
							"internalType": "address",
							"name": "",
							"type": "address"
						},
						{
							"internalType": "address",
							"name": "",
							"type": "address"
						},
						{
							"internalType": "uint256",
							"name": "",
							"type": "uint256"
						},
						{
							"internalType": "bytes",
							"name": "",
							"type": "bytes"
						}
					],
					"name": "onERC721Received",
					"outputs": [
						{
							"internalType": "bytes4",
							"name": "",
							"type": "bytes4"
						}
					],
					"stateMutability": "pure",
					"type": "function"
				},
				{
					"inputs": [],
					"name": "owner",
					"outputs": [
						{
							"internalType": "address",
							"name": "",
							"type": "address"
						}
					],
					"stateMutability": "view",
					"type": "function"
				},
				{
					"inputs": [],
					"name": "renounceOwnership",
					"outputs": [],
					"stateMutability": "nonpayable",
					"type": "function"
				},
				{
					"inputs": [
						{
							"internalType": "address",
							"name": "newOwner",
							"type": "address"
						}
					],
					"name": "transferOwnership",
					"outputs": [],
					"stateMutability": "nonpayable",
					"type": "function"
				}
			],
			"devdoc": {
				"kind": "dev",
				"methods": {
					"owner()": {
						"details": "Returns the address of the current owner."
					},
					"renounceOwnership()": {
						"details": "Leaves the contract without owner. It will not be possible to call `onlyOwner` functions anymore. Can only be called by the current owner. NOTE: Renouncing ownership will leave the contract without an owner, thereby removing any functionality that is only available to the owner."
					},
					"transferOwnership(address)": {
						"details": "Transfers ownership of the contract to a new account (`newOwner`). Can only be called by the current owner."
					}
				},
				"version": 1
			},
			"evm": {
				"assembly": "    /* \"contracts/BTOFAManager.sol\":658:3330  contract BankManager is IERC721Receiver, Ownable {... */\n  mstore(0x40, 0x80)\n    /* \"contracts/BTOFAManager.sol\":792:932  constructor(address currency, address token) {... */\n  callvalue\n  dup1\n  iszero\n  tag_1\n  jumpi\n  0x00\n  dup1\n  revert\ntag_1:\n  pop\n  mload(0x40)\n  sub(codesize, bytecodeSize)\n  dup1\n  bytecodeSize\n  dup4\n  codecopy\n  dup2\n  dup2\n  add\n  0x40\n  mstore\n  dup2\n  add\n  swap1\n  tag_2\n  swap2\n  swap1\n  tag_3\n  jump\t// in\ntag_2:\n    /* \"@openzeppelin/contracts/access/Ownable.sol\":936:968  _transferOwnership(_msgSender()) */\n  tag_7\n    /* \"@openzeppelin/contracts/access/Ownable.sol\":955:967  _msgSender() */\n  tag_8\n    /* \"@openzeppelin/contracts/access/Ownable.sol\":955:965  _msgSender */\n  shl(0x20, tag_9)\n    /* \"@openzeppelin/contracts/access/Ownable.sol\":955:967  _msgSender() */\n  0x20\n  shr\n  jump\t// in\ntag_8:\n    /* \"@openzeppelin/contracts/access/Ownable.sol\":936:954  _transferOwnership */\n  shl(0x20, tag_10)\n    /* \"@openzeppelin/contracts/access/Ownable.sol\":936:968  _transferOwnership(_msgSender()) */\n  0x20\n  shr\n  jump\t// in\ntag_7:\n    /* \"contracts/BTOFAManager.sol\":872:880  currency */\n  dup2\n    /* \"contracts/BTOFAManager.sol\":848:862  _BTOFACurrency */\n  0x01\n  0x00\n    /* \"contracts/BTOFAManager.sol\":848:881  _BTOFACurrency = IERC20(currency) */\n  0x0100\n  exp\n  dup2\n  sload\n  dup2\n  0xffffffffffffffffffffffffffffffffffffffff\n  mul\n  not\n  and\n  swap1\n  dup4\n  0xffffffffffffffffffffffffffffffffffffffff\n  and\n  mul\n  or\n  swap1\n  sstore\n  pop\n    /* \"contracts/BTOFAManager.sol\":918:923  token */\n  dup1\n    /* \"contracts/BTOFAManager.sol\":892:903  _BTOFAToken */\n  0x02\n  0x00\n    /* \"contracts/BTOFAManager.sol\":892:924  _BTOFAToken = IBTOFAToken(token) */\n  0x0100\n  exp\n  dup2\n  sload\n  dup2\n  0xffffffffffffffffffffffffffffffffffffffff\n  mul\n  not\n  and\n  swap1\n  dup4\n  0xffffffffffffffffffffffffffffffffffffffff\n  and\n  mul\n  or\n  swap1\n  sstore\n  pop\n    /* \"contracts/BTOFAManager.sol\":792:932  constructor(address currency, address token) {... */\n  pop\n  pop\n    /* \"contracts/BTOFAManager.sol\":658:3330  contract BankManager is IERC721Receiver, Ownable {... */\n  jump(tag_12)\n    /* \"@openzeppelin/contracts/utils/Context.sol\":640:736  function _msgSender() internal view virtual returns (address) {... */\ntag_9:\n    /* \"@openzeppelin/contracts/utils/Context.sol\":693:700  address */\n  0x00\n    /* \"@openzeppelin/contracts/utils/Context.sol\":719:729  msg.sender */\n  caller\n    /* \"@openzeppelin/contracts/utils/Context.sol\":712:729  return msg.sender */\n  swap1\n  pop\n    /* \"@openzeppelin/contracts/utils/Context.sol\":640:736  function _msgSender() internal view virtual returns (address) {... */\n  swap1\n  jump\t// out\n    /* \"@openzeppelin/contracts/access/Ownable.sol\":2433:2620  function _transferOwnership(address newOwner) internal virtual {... */\ntag_10:\n    /* \"@openzeppelin/contracts/access/Ownable.sol\":2506:2522  address oldOwner */\n  0x00\n    /* \"@openzeppelin/contracts/access/Ownable.sol\":2525:2531  _owner */\n  dup1\n  0x00\n  swap1\n  sload\n  swap1\n  0x0100\n  exp\n  swap1\n  div\n  0xffffffffffffffffffffffffffffffffffffffff\n  and\n    /* \"@openzeppelin/contracts/access/Ownable.sol\":2506:2531  address oldOwner = _owner */\n  swap1\n  pop\n    /* \"@openzeppelin/contracts/access/Ownable.sol\":2550:2558  newOwner */\n  dup2\n    /* \"@openzeppelin/contracts/access/Ownable.sol\":2541:2547  _owner */\n  0x00\n  dup1\n    /* \"@openzeppelin/contracts/access/Ownable.sol\":2541:2558  _owner = newOwner */\n  0x0100\n  exp\n  dup2\n  sload\n  dup2\n  0xffffffffffffffffffffffffffffffffffffffff\n  mul\n  not\n  and\n  swap1\n  dup4\n  0xffffffffffffffffffffffffffffffffffffffff\n  and\n  mul\n  or\n  swap1\n  sstore\n  pop\n    /* \"@openzeppelin/contracts/access/Ownable.sol\":2604:2612  newOwner */\n  dup2\n    /* \"@openzeppelin/contracts/access/Ownable.sol\":2573:2613  OwnershipTransferred(oldOwner, newOwner) */\n  0xffffffffffffffffffffffffffffffffffffffff\n  and\n    /* \"@openzeppelin/contracts/access/Ownable.sol\":2594:2602  oldOwner */\n  dup2\n    /* \"@openzeppelin/contracts/access/Ownable.sol\":2573:2613  OwnershipTransferred(oldOwner, newOwner) */\n  0xffffffffffffffffffffffffffffffffffffffff\n  and\n  0x8be0079c531659141344cd1fd0a4f28419497f9722a3daafe3b4186f6b6457e0\n  mload(0x40)\n  mload(0x40)\n  dup1\n  swap2\n  sub\n  swap1\n  log3\n    /* \"@openzeppelin/contracts/access/Ownable.sol\":2496:2620  {... */\n  pop\n    /* \"@openzeppelin/contracts/access/Ownable.sol\":2433:2620  function _transferOwnership(address newOwner) internal virtual {... */\n  pop\n  jump\t// out\n    /* \"#utility.yul\":88:205   */\ntag_16:\n    /* \"#utility.yul\":197:198   */\n  0x00\n    /* \"#utility.yul\":194:195   */\n  dup1\n    /* \"#utility.yul\":187:199   */\n  revert\n    /* \"#utility.yul\":334:460   */\ntag_18:\n    /* \"#utility.yul\":371:378   */\n  0x00\n    /* \"#utility.yul\":411:453   */\n  0xffffffffffffffffffffffffffffffffffffffff\n    /* \"#utility.yul\":404:409   */\n  dup3\n    /* \"#utility.yul\":400:454   */\n  and\n    /* \"#utility.yul\":389:454   */\n  swap1\n  pop\n    /* \"#utility.yul\":334:460   */\n  swap2\n  swap1\n  pop\n  jump\t// out\n    /* \"#utility.yul\":466:562   */\ntag_19:\n    /* \"#utility.yul\":503:510   */\n  0x00\n    /* \"#utility.yul\":532:556   */\n  tag_28\n    /* \"#utility.yul\":550:555   */\n  dup3\n    /* \"#utility.yul\":532:556   */\n  tag_18\n  jump\t// in\ntag_28:\n    /* \"#utility.yul\":521:556   */\n  swap1\n  pop\n    /* \"#utility.yul\":466:562   */\n  swap2\n  swap1\n  pop\n  jump\t// out\n    /* \"#utility.yul\":568:690   */\ntag_20:\n    /* \"#utility.yul\":641:665   */\n  tag_30\n    /* \"#utility.yul\":659:664   */\n  dup2\n    /* \"#utility.yul\":641:665   */\n  tag_19\n  jump\t// in\ntag_30:\n    /* \"#utility.yul\":634:639   */\n  dup2\n    /* \"#utility.yul\":631:666   */\n  eq\n    /* \"#utility.yul\":621:684   */\n  tag_31\n  jumpi\n    /* \"#utility.yul\":680:681   */\n  0x00\n    /* \"#utility.yul\":677:678   */\n  dup1\n    /* \"#utility.yul\":670:682   */\n  revert\n    /* \"#utility.yul\":621:684   */\ntag_31:\n    /* \"#utility.yul\":568:690   */\n  pop\n  jump\t// out\n    /* \"#utility.yul\":696:839   */\ntag_21:\n    /* \"#utility.yul\":753:758   */\n  0x00\n    /* \"#utility.yul\":784:790   */\n  dup2\n    /* \"#utility.yul\":778:791   */\n  mload\n    /* \"#utility.yul\":769:791   */\n  swap1\n  pop\n    /* \"#utility.yul\":800:833   */\n  tag_33\n    /* \"#utility.yul\":827:832   */\n  dup2\n    /* \"#utility.yul\":800:833   */\n  tag_20\n  jump\t// in\ntag_33:\n    /* \"#utility.yul\":696:839   */\n  swap3\n  swap2\n  pop\n  pop\n  jump\t// out\n    /* \"#utility.yul\":845:1352   */\ntag_3:\n    /* \"#utility.yul\":924:930   */\n  0x00\n    /* \"#utility.yul\":932:938   */\n  dup1\n    /* \"#utility.yul\":981:983   */\n  0x40\n    /* \"#utility.yul\":969:978   */\n  dup4\n    /* \"#utility.yul\":960:967   */\n  dup6\n    /* \"#utility.yul\":956:979   */\n  sub\n    /* \"#utility.yul\":952:984   */\n  slt\n    /* \"#utility.yul\":949:1068   */\n  iszero\n  tag_35\n  jumpi\n    /* \"#utility.yul\":987:1066   */\n  tag_36\n  tag_16\n  jump\t// in\ntag_36:\n    /* \"#utility.yul\":949:1068   */\ntag_35:\n    /* \"#utility.yul\":1107:1108   */\n  0x00\n    /* \"#utility.yul\":1132:1196   */\n  tag_37\n    /* \"#utility.yul\":1188:1195   */\n  dup6\n    /* \"#utility.yul\":1179:1185   */\n  dup3\n    /* \"#utility.yul\":1168:1177   */\n  dup7\n    /* \"#utility.yul\":1164:1186   */\n  add\n    /* \"#utility.yul\":1132:1196   */\n  tag_21\n  jump\t// in\ntag_37:\n    /* \"#utility.yul\":1122:1196   */\n  swap3\n  pop\n    /* \"#utility.yul\":1078:1206   */\n  pop\n    /* \"#utility.yul\":1245:1247   */\n  0x20\n    /* \"#utility.yul\":1271:1335   */\n  tag_38\n    /* \"#utility.yul\":1327:1334   */\n  dup6\n    /* \"#utility.yul\":1318:1324   */\n  dup3\n    /* \"#utility.yul\":1307:1316   */\n  dup7\n    /* \"#utility.yul\":1303:1325   */\n  add\n    /* \"#utility.yul\":1271:1335   */\n  tag_21\n  jump\t// in\ntag_38:\n    /* \"#utility.yul\":1261:1335   */\n  swap2\n  pop\n    /* \"#utility.yul\":1216:1345   */\n  pop\n    /* \"#utility.yul\":845:1352   */\n  swap3\n  pop\n  swap3\n  swap1\n  pop\n  jump\t// out\n    /* \"contracts/BTOFAManager.sol\":658:3330  contract BankManager is IERC721Receiver, Ownable {... */\ntag_12:\n  dataSize(sub_0)\n  dup1\n  dataOffset(sub_0)\n  0x00\n  codecopy\n  0x00\n  return\nstop\n\nsub_0: assembly {\n        /* \"contracts/BTOFAManager.sol\":658:3330  contract BankManager is IERC721Receiver, Ownable {... */\n      mstore(0x40, 0x80)\n      callvalue\n      dup1\n      iszero\n      tag_1\n      jumpi\n      0x00\n      dup1\n      revert\n    tag_1:\n      pop\n      jumpi(tag_2, lt(calldatasize, 0x04))\n      shr(0xe0, calldataload(0x00))\n      dup1\n      0x057466ea\n      eq\n      tag_3\n      jumpi\n      dup1\n      0x150b7a02\n      eq\n      tag_4\n      jumpi\n      dup1\n      0x715018a6\n      eq\n      tag_5\n      jumpi\n      dup1\n      0x722227f2\n      eq\n      tag_6\n      jumpi\n      dup1\n      0x8da5cb5b\n      eq\n      tag_7\n      jumpi\n      dup1\n      0xf2fde38b\n      eq\n      tag_8\n      jumpi\n    tag_2:\n      0x00\n      dup1\n      revert\n        /* \"contracts/BTOFAManager.sol\":940:1947  function buyToken(uint256 startId, uint256 endId) external {... */\n    tag_3:\n      tag_9\n      0x04\n      dup1\n      calldatasize\n      sub\n      dup2\n      add\n      swap1\n      tag_10\n      swap2\n      swap1\n      tag_11\n      jump\t// in\n    tag_10:\n      tag_12\n      jump\t// in\n    tag_9:\n      stop\n        /* \"contracts/BTOFAManager.sol\":3151:3327  function onERC721Received(address, address, uint256, bytes calldata) external override pure returns (bytes4) {... */\n    tag_4:\n      tag_13\n      0x04\n      dup1\n      calldatasize\n      sub\n      dup2\n      add\n      swap1\n      tag_14\n      swap2\n      swap1\n      tag_15\n      jump\t// in\n    tag_14:\n      tag_16\n      jump\t// in\n    tag_13:\n      mload(0x40)\n      tag_17\n      swap2\n      swap1\n      tag_18\n      jump\t// in\n    tag_17:\n      mload(0x40)\n      dup1\n      swap2\n      sub\n      swap1\n      return\n        /* \"@openzeppelin/contracts/access/Ownable.sol\":1831:1932  function renounceOwnership() public virtual onlyOwner {... */\n    tag_5:\n      tag_19\n      tag_20\n      jump\t// in\n    tag_19:\n      stop\n        /* \"contracts/BTOFAManager.sol\":1955:3143  function expireToken(uint256 startId, uint256 endId) public onlyOwner {... */\n    tag_6:\n      tag_21\n      0x04\n      dup1\n      calldatasize\n      sub\n      dup2\n      add\n      swap1\n      tag_22\n      swap2\n      swap1\n      tag_11\n      jump\t// in\n    tag_22:\n      tag_23\n      jump\t// in\n    tag_21:\n      stop\n        /* \"@openzeppelin/contracts/access/Ownable.sol\":1201:1286  function owner() public view virtual returns (address) {... */\n    tag_7:\n      tag_24\n      tag_25\n      jump\t// in\n    tag_24:\n      mload(0x40)\n      tag_26\n      swap2\n      swap1\n      tag_27\n      jump\t// in\n    tag_26:\n      mload(0x40)\n      dup1\n      swap2\n      sub\n      swap1\n      return\n        /* \"@openzeppelin/contracts/access/Ownable.sol\":2081:2279  function transferOwnership(address newOwner) public virtual onlyOwner {... */\n    tag_8:\n      tag_28\n      0x04\n      dup1\n      calldatasize\n      sub\n      dup2\n      add\n      swap1\n      tag_29\n      swap2\n      swap1\n      tag_30\n      jump\t// in\n    tag_29:\n      tag_31\n      jump\t// in\n    tag_28:\n      stop\n        /* \"contracts/BTOFAManager.sol\":940:1947  function buyToken(uint256 startId, uint256 endId) external {... */\n    tag_12:\n        /* \"contracts/BTOFAManager.sol\":1029:1034  endId */\n      dup1\n        /* \"contracts/BTOFAManager.sol\":1018:1025  startId */\n      dup3\n        /* \"contracts/BTOFAManager.sol\":1018:1034  startId <= endId */\n      gt\n      iszero\n        /* \"contracts/BTOFAManager.sol\":1010:1092  require(startId <= endId, \"BANK MANAGER: Right ID's bound is less than left one.\") */\n      tag_33\n      jumpi\n      mload(0x40)\n      0x08c379a000000000000000000000000000000000000000000000000000000000\n      dup2\n      mstore\n      0x04\n      add\n      tag_34\n      swap1\n      tag_35\n      jump\t// in\n    tag_34:\n      mload(0x40)\n      dup1\n      swap2\n      sub\n      swap1\n      revert\n    tag_33:\n        /* \"contracts/BTOFAManager.sol\":1103:1116  uint256 price */\n      0x00\n        /* \"contracts/BTOFAManager.sol\":1146:1161  uint256 tokenId */\n      dup1\n        /* \"contracts/BTOFAManager.sol\":1164:1171  startId */\n      dup4\n        /* \"contracts/BTOFAManager.sol\":1146:1171  uint256 tokenId = startId */\n      swap1\n      pop\n        /* \"contracts/BTOFAManager.sol\":1141:1464  for (uint256 tokenId = startId; tokenId <= endId; ++tokenId) {... */\n    tag_36:\n        /* \"contracts/BTOFAManager.sol\":1184:1189  endId */\n      dup3\n        /* \"contracts/BTOFAManager.sol\":1173:1180  tokenId */\n      dup2\n        /* \"contracts/BTOFAManager.sol\":1173:1189  tokenId <= endId */\n      gt\n        /* \"contracts/BTOFAManager.sol\":1141:1464  for (uint256 tokenId = startId; tokenId <= endId; ++tokenId) {... */\n      tag_37\n      jumpi\n        /* \"contracts/BTOFAManager.sol\":1226:1237  _BTOFAToken */\n      0x02\n      0x00\n      swap1\n      sload\n      swap1\n      0x0100\n      exp\n      swap1\n      div\n      0xffffffffffffffffffffffffffffffffffffffff\n      and\n        /* \"contracts/BTOFAManager.sol\":1226:1246  _BTOFAToken.getPrice */\n      0xffffffffffffffffffffffffffffffffffffffff\n      and\n      0xe7572230\n        /* \"contracts/BTOFAManager.sol\":1247:1254  tokenId */\n      dup3\n        /* \"contracts/BTOFAManager.sol\":1226:1255  _BTOFAToken.getPrice(tokenId) */\n      mload(0x40)\n      dup3\n      0xffffffff\n      and\n      0xe0\n      shl\n      dup2\n      mstore\n      0x04\n      add\n      tag_39\n      swap2\n      swap1\n      tag_40\n      jump\t// in\n    tag_39:\n      0x20\n      mload(0x40)\n      dup1\n      dup4\n      sub\n      dup2\n      dup7\n      gas\n      staticcall\n      iszero\n      dup1\n      iszero\n      tag_42\n      jumpi\n      returndatasize\n      0x00\n      dup1\n      returndatacopy\n      revert(0x00, returndatasize)\n    tag_42:\n      pop\n      pop\n      pop\n      pop\n      mload(0x40)\n      returndatasize\n      not(0x1f)\n      0x1f\n      dup3\n      add\n      and\n      dup3\n      add\n      dup1\n      0x40\n      mstore\n      pop\n      dup2\n      add\n      swap1\n      tag_43\n      swap2\n      swap1\n      tag_44\n      jump\t// in\n    tag_43:\n        /* \"contracts/BTOFAManager.sol\":1217:1255  price += _BTOFAToken.getPrice(tokenId) */\n      dup3\n      tag_45\n      swap2\n      swap1\n      tag_46\n      jump\t// in\n    tag_45:\n      swap2\n      pop\n        /* \"contracts/BTOFAManager.sol\":1292:1303  _BTOFAToken */\n      0x02\n      0x00\n      swap1\n      sload\n      swap1\n      0x0100\n      exp\n      swap1\n      div\n      0xffffffffffffffffffffffffffffffffffffffff\n      and\n        /* \"contracts/BTOFAManager.sol\":1292:1311  _BTOFAToken.ownerOf */\n      0xffffffffffffffffffffffffffffffffffffffff\n      and\n      0x6352211e\n        /* \"contracts/BTOFAManager.sol\":1312:1319  tokenId */\n      dup3\n        /* \"contracts/BTOFAManager.sol\":1292:1320  _BTOFAToken.ownerOf(tokenId) */\n      mload(0x40)\n      dup3\n      0xffffffff\n      and\n      0xe0\n      shl\n      dup2\n      mstore\n      0x04\n      add\n      tag_47\n      swap2\n      swap1\n      tag_40\n      jump\t// in\n    tag_47:\n      0x20\n      mload(0x40)\n      dup1\n      dup4\n      sub\n      dup2\n      dup7\n      gas\n      staticcall\n      iszero\n      dup1\n      iszero\n      tag_49\n      jumpi\n      returndatasize\n      0x00\n      dup1\n      returndatacopy\n      revert(0x00, returndatasize)\n    tag_49:\n      pop\n      pop\n      pop\n      pop\n      mload(0x40)\n      returndatasize\n      not(0x1f)\n      0x1f\n      dup3\n      add\n      and\n      dup3\n      add\n      dup1\n      0x40\n      mstore\n      pop\n      dup2\n      add\n      swap1\n      tag_50\n      swap2\n      swap1\n      tag_51\n      jump\t// in\n    tag_50:\n        /* \"contracts/BTOFAManager.sol\":1278:1320  msg.sender != _BTOFAToken.ownerOf(tokenId) */\n      0xffffffffffffffffffffffffffffffffffffffff\n      and\n        /* \"contracts/BTOFAManager.sol\":1278:1288  msg.sender */\n      caller\n        /* \"contracts/BTOFAManager.sol\":1278:1320  msg.sender != _BTOFAToken.ownerOf(tokenId) */\n      0xffffffffffffffffffffffffffffffffffffffff\n      and\n      eq\n      iszero\n        /* \"contracts/BTOFAManager.sol\":1419:1444  Strings.toString(tokenId) */\n      tag_52\n        /* \"contracts/BTOFAManager.sol\":1436:1443  tokenId */\n      dup3\n        /* \"contracts/BTOFAManager.sol\":1419:1435  Strings.toString */\n      tag_53\n        /* \"contracts/BTOFAManager.sol\":1419:1444  Strings.toString(tokenId) */\n      jump\t// in\n    tag_52:\n        /* \"contracts/BTOFAManager.sol\":1350:1450  abi.encodePacked(\"BTOT: User already is an owner of token with ID \", Strings.toString(tokenId), \".\") */\n      add(0x20, mload(0x40))\n      tag_54\n      swap2\n      swap1\n      tag_55\n      jump\t// in\n    tag_54:\n      mload(0x40)\n      0x20\n      dup2\n      dup4\n      sub\n      sub\n      dup2\n      mstore\n      swap1\n      0x40\n      mstore\n        /* \"contracts/BTOFAManager.sol\":1270:1452  require(msg.sender != _BTOFAToken.ownerOf(tokenId),... */\n      swap1\n      tag_56\n      jumpi\n      mload(0x40)\n      0x08c379a000000000000000000000000000000000000000000000000000000000\n      dup2\n      mstore\n      0x04\n      add\n      tag_57\n      swap2\n      swap1\n      tag_58\n      jump\t// in\n    tag_57:\n      mload(0x40)\n      dup1\n      swap2\n      sub\n      swap1\n      revert\n    tag_56:\n      pop\n        /* \"contracts/BTOFAManager.sol\":1191:1200  ++tokenId */\n      dup1\n      tag_59\n      swap1\n      tag_60\n      jump\t// in\n    tag_59:\n      swap1\n      pop\n        /* \"contracts/BTOFAManager.sol\":1141:1464  for (uint256 tokenId = startId; tokenId <= endId; ++tokenId) {... */\n      jump(tag_36)\n    tag_37:\n      pop\n        /* \"contracts/BTOFAManager.sol\":1524:1529  price */\n      dup1\n        /* \"contracts/BTOFAManager.sol\":1484:1498  _BTOFACurrency */\n      0x01\n      0x00\n      swap1\n      sload\n      swap1\n      0x0100\n      exp\n      swap1\n      div\n      0xffffffffffffffffffffffffffffffffffffffff\n      and\n        /* \"contracts/BTOFAManager.sol\":1484:1508  _BTOFACurrency.balanceOf */\n      0xffffffffffffffffffffffffffffffffffffffff\n      and\n      0x70a08231\n        /* \"contracts/BTOFAManager.sol\":1509:1519  msg.sender */\n      caller\n        /* \"contracts/BTOFAManager.sol\":1484:1520  _BTOFACurrency.balanceOf(msg.sender) */\n      mload(0x40)\n      dup3\n      0xffffffff\n      and\n      0xe0\n      shl\n      dup2\n      mstore\n      0x04\n      add\n      tag_61\n      swap2\n      swap1\n      tag_27\n      jump\t// in\n    tag_61:\n      0x20\n      mload(0x40)\n      dup1\n      dup4\n      sub\n      dup2\n      dup7\n      gas\n      staticcall\n      iszero\n      dup1\n      iszero\n      tag_63\n      jumpi\n      returndatasize\n      0x00\n      dup1\n      returndatacopy\n      revert(0x00, returndatasize)\n    tag_63:\n      pop\n      pop\n      pop\n      pop\n      mload(0x40)\n      returndatasize\n      not(0x1f)\n      0x1f\n      dup3\n      add\n      and\n      dup3\n      add\n      dup1\n      0x40\n      mstore\n      pop\n      dup2\n      add\n      swap1\n      tag_64\n      swap2\n      swap1\n      tag_44\n      jump\t// in\n    tag_64:\n        /* \"contracts/BTOFAManager.sol\":1484:1529  _BTOFACurrency.balanceOf(msg.sender) >= price */\n      lt\n      iszero\n        /* \"contracts/BTOFAManager.sol\":1476:1570  require(_BTOFACurrency.balanceOf(msg.sender) >= price, \"BTOC: Insufficient amount of tokens.\") */\n      tag_65\n      jumpi\n      mload(0x40)\n      0x08c379a000000000000000000000000000000000000000000000000000000000\n      dup2\n      mstore\n      0x04\n      add\n      tag_66\n      swap1\n      tag_67\n      jump\t// in\n    tag_66:\n      mload(0x40)\n      dup1\n      swap2\n      sub\n      swap1\n      revert\n    tag_65:\n        /* \"contracts/BTOFAManager.sol\":1644:1649  price */\n      dup1\n        /* \"contracts/BTOFAManager.sol\":1589:1603  _BTOFACurrency */\n      0x01\n      0x00\n      swap1\n      sload\n      swap1\n      0x0100\n      exp\n      swap1\n      div\n      0xffffffffffffffffffffffffffffffffffffffff\n      and\n        /* \"contracts/BTOFAManager.sol\":1589:1613  _BTOFACurrency.allowance */\n      0xffffffffffffffffffffffffffffffffffffffff\n      and\n      0xdd62ed3e\n        /* \"contracts/BTOFAManager.sol\":1614:1624  msg.sender */\n      caller\n        /* \"contracts/BTOFAManager.sol\":1634:1638  this */\n      address\n        /* \"contracts/BTOFAManager.sol\":1589:1640  _BTOFACurrency.allowance(msg.sender, address(this)) */\n      mload(0x40)\n      dup4\n      0xffffffff\n      and\n      0xe0\n      shl\n      dup2\n      mstore\n      0x04\n      add\n      tag_68\n      swap3\n      swap2\n      swap1\n      tag_69\n      jump\t// in\n    tag_68:\n      0x20\n      mload(0x40)\n      dup1\n      dup4\n      sub\n      dup2\n      dup7\n      gas\n      staticcall\n      iszero\n      dup1\n      iszero\n      tag_71\n      jumpi\n      returndatasize\n      0x00\n      dup1\n      returndatacopy\n      revert(0x00, returndatasize)\n    tag_71:\n      pop\n      pop\n      pop\n      pop\n      mload(0x40)\n      returndatasize\n      not(0x1f)\n      0x1f\n      dup3\n      add\n      and\n      dup3\n      add\n      dup1\n      0x40\n      mstore\n      pop\n      dup2\n      add\n      swap1\n      tag_72\n      swap2\n      swap1\n      tag_44\n      jump\t// in\n    tag_72:\n        /* \"contracts/BTOFAManager.sol\":1589:1649  _BTOFACurrency.allowance(msg.sender, address(this)) >= price */\n      lt\n      iszero\n        /* \"contracts/BTOFAManager.sol\":1581:1707  require(_BTOFACurrency.allowance(msg.sender, address(this)) >= price, \"BTOC: Insufficient allowed amount of tokens to spend.\") */\n      tag_73\n      jumpi\n      mload(0x40)\n      0x08c379a000000000000000000000000000000000000000000000000000000000\n      dup2\n      mstore\n      0x04\n      add\n      tag_74\n      swap1\n      tag_75\n      jump\t// in\n    tag_74:\n      mload(0x40)\n      dup1\n      swap2\n      sub\n      swap1\n      revert\n    tag_73:\n        /* \"contracts/BTOFAManager.sol\":1718:1732  _BTOFACurrency */\n      0x01\n      0x00\n      swap1\n      sload\n      swap1\n      0x0100\n      exp\n      swap1\n      div\n      0xffffffffffffffffffffffffffffffffffffffff\n      and\n        /* \"contracts/BTOFAManager.sol\":1718:1745  _BTOFACurrency.transferFrom */\n      0xffffffffffffffffffffffffffffffffffffffff\n      and\n      0x23b872dd\n        /* \"contracts/BTOFAManager.sol\":1746:1756  msg.sender */\n      caller\n        /* \"contracts/BTOFAManager.sol\":1758:1765  owner() */\n      tag_76\n        /* \"contracts/BTOFAManager.sol\":1758:1763  owner */\n      tag_25\n        /* \"contracts/BTOFAManager.sol\":1758:1765  owner() */\n      jump\t// in\n    tag_76:\n        /* \"contracts/BTOFAManager.sol\":1767:1772  price */\n      dup5\n        /* \"contracts/BTOFAManager.sol\":1718:1773  _BTOFACurrency.transferFrom(msg.sender, owner(), price) */\n      mload(0x40)\n      dup5\n      0xffffffff\n      and\n      0xe0\n      shl\n      dup2\n      mstore\n      0x04\n      add\n      tag_77\n      swap4\n      swap3\n      swap2\n      swap1\n      tag_78\n      jump\t// in\n    tag_77:\n      0x20\n      mload(0x40)\n      dup1\n      dup4\n      sub\n      dup2\n      0x00\n      dup8\n      gas\n      call\n      iszero\n      dup1\n      iszero\n      tag_80\n      jumpi\n      returndatasize\n      0x00\n      dup1\n      returndatacopy\n      revert(0x00, returndatasize)\n    tag_80:\n      pop\n      pop\n      pop\n      pop\n      mload(0x40)\n      returndatasize\n      not(0x1f)\n      0x1f\n      dup3\n      add\n      and\n      dup3\n      add\n      dup1\n      0x40\n      mstore\n      pop\n      dup2\n      add\n      swap1\n      tag_81\n      swap2\n      swap1\n      tag_82\n      jump\t// in\n    tag_81:\n      pop\n        /* \"contracts/BTOFAManager.sol\":1799:1814  uint256 tokenId */\n      0x00\n        /* \"contracts/BTOFAManager.sol\":1817:1824  startId */\n      dup4\n        /* \"contracts/BTOFAManager.sol\":1799:1824  uint256 tokenId = startId */\n      swap1\n      pop\n        /* \"contracts/BTOFAManager.sol\":1794:1940  for (uint256 tokenId = startId; tokenId <= endId; ++tokenId) {... */\n    tag_83:\n        /* \"contracts/BTOFAManager.sol\":1837:1842  endId */\n      dup3\n        /* \"contracts/BTOFAManager.sol\":1826:1833  tokenId */\n      dup2\n        /* \"contracts/BTOFAManager.sol\":1826:1842  tokenId <= endId */\n      gt\n        /* \"contracts/BTOFAManager.sol\":1794:1940  for (uint256 tokenId = startId; tokenId <= endId; ++tokenId) {... */\n      tag_84\n      jumpi\n        /* \"contracts/BTOFAManager.sol\":1870:1881  _BTOFAToken */\n      0x02\n      0x00\n      swap1\n      sload\n      swap1\n      0x0100\n      exp\n      swap1\n      div\n      0xffffffffffffffffffffffffffffffffffffffff\n      and\n        /* \"contracts/BTOFAManager.sol\":1870:1898  _BTOFAToken.safeTransferFrom */\n      0xffffffffffffffffffffffffffffffffffffffff\n      and\n      0x42842e0e\n        /* \"contracts/BTOFAManager.sol\":1899:1906  owner() */\n      tag_86\n        /* \"contracts/BTOFAManager.sol\":1899:1904  owner */\n      tag_25\n        /* \"contracts/BTOFAManager.sol\":1899:1906  owner() */\n      jump\t// in\n    tag_86:\n        /* \"contracts/BTOFAManager.sol\":1908:1918  msg.sender */\n      caller\n        /* \"contracts/BTOFAManager.sol\":1920:1927  tokenId */\n      dup5\n        /* \"contracts/BTOFAManager.sol\":1870:1928  _BTOFAToken.safeTransferFrom(owner(), msg.sender, tokenId) */\n      mload(0x40)\n      dup5\n      0xffffffff\n      and\n      0xe0\n      shl\n      dup2\n      mstore\n      0x04\n      add\n      tag_87\n      swap4\n      swap3\n      swap2\n      swap1\n      tag_78\n      jump\t// in\n    tag_87:\n      0x00\n      mload(0x40)\n      dup1\n      dup4\n      sub\n      dup2\n      0x00\n      dup8\n      dup1\n      extcodesize\n      iszero\n      dup1\n      iszero\n      tag_88\n      jumpi\n      0x00\n      dup1\n      revert\n    tag_88:\n      pop\n      gas\n      call\n      iszero\n      dup1\n      iszero\n      tag_90\n      jumpi\n      returndatasize\n      0x00\n      dup1\n      returndatacopy\n      revert(0x00, returndatasize)\n    tag_90:\n      pop\n      pop\n      pop\n      pop\n        /* \"contracts/BTOFAManager.sol\":1844:1853  ++tokenId */\n      dup1\n      tag_91\n      swap1\n      tag_60\n      jump\t// in\n    tag_91:\n      swap1\n      pop\n        /* \"contracts/BTOFAManager.sol\":1794:1940  for (uint256 tokenId = startId; tokenId <= endId; ++tokenId) {... */\n      jump(tag_83)\n    tag_84:\n      pop\n        /* \"contracts/BTOFAManager.sol\":999:1947  {... */\n      pop\n        /* \"contracts/BTOFAManager.sol\":940:1947  function buyToken(uint256 startId, uint256 endId) external {... */\n      pop\n      pop\n      jump\t// out\n        /* \"contracts/BTOFAManager.sol\":3151:3327  function onERC721Received(address, address, uint256, bytes calldata) external override pure returns (bytes4) {... */\n    tag_16:\n        /* \"contracts/BTOFAManager.sol\":3252:3258  bytes4 */\n      0x00\n        /* \"contracts/BTOFAManager.sol\":3278:3319  IERC721Receiver.onERC721Received.selector */\n      shl(0xe0, 0x150b7a02)\n        /* \"contracts/BTOFAManager.sol\":3271:3319  return IERC721Receiver.onERC721Received.selector */\n      swap1\n      pop\n        /* \"contracts/BTOFAManager.sol\":3151:3327  function onERC721Received(address, address, uint256, bytes calldata) external override pure returns (bytes4) {... */\n      swap6\n      swap5\n      pop\n      pop\n      pop\n      pop\n      pop\n      jump\t// out\n        /* \"@openzeppelin/contracts/access/Ownable.sol\":1831:1932  function renounceOwnership() public virtual onlyOwner {... */\n    tag_20:\n        /* \"@openzeppelin/contracts/access/Ownable.sol\":1094:1107  _checkOwner() */\n      tag_94\n        /* \"@openzeppelin/contracts/access/Ownable.sol\":1094:1105  _checkOwner */\n      tag_95\n        /* \"@openzeppelin/contracts/access/Ownable.sol\":1094:1107  _checkOwner() */\n      jump\t// in\n    tag_94:\n        /* \"@openzeppelin/contracts/access/Ownable.sol\":1895:1925  _transferOwnership(address(0)) */\n      tag_97\n        /* \"@openzeppelin/contracts/access/Ownable.sol\":1922:1923  0 */\n      0x00\n        /* \"@openzeppelin/contracts/access/Ownable.sol\":1895:1913  _transferOwnership */\n      tag_98\n        /* \"@openzeppelin/contracts/access/Ownable.sol\":1895:1925  _transferOwnership(address(0)) */\n      jump\t// in\n    tag_97:\n        /* \"@openzeppelin/contracts/access/Ownable.sol\":1831:1932  function renounceOwnership() public virtual onlyOwner {... */\n      jump\t// out\n        /* \"contracts/BTOFAManager.sol\":1955:3143  function expireToken(uint256 startId, uint256 endId) public onlyOwner {... */\n    tag_23:\n        /* \"@openzeppelin/contracts/access/Ownable.sol\":1094:1107  _checkOwner() */\n      tag_100\n        /* \"@openzeppelin/contracts/access/Ownable.sol\":1094:1105  _checkOwner */\n      tag_95\n        /* \"@openzeppelin/contracts/access/Ownable.sol\":1094:1107  _checkOwner() */\n      jump\t// in\n    tag_100:\n        /* \"contracts/BTOFAManager.sol\":2036:2049  uint256 price */\n      0x00\n        /* \"contracts/BTOFAManager.sol\":2083:2088  endId */\n      dup2\n        /* \"contracts/BTOFAManager.sol\":2072:2079  startId */\n      dup4\n        /* \"contracts/BTOFAManager.sol\":2072:2088  startId <= endId */\n      gt\n      iszero\n        /* \"contracts/BTOFAManager.sol\":2064:2146  require(startId <= endId, \"BANK MANAGER: Right ID's bound is less than left one.\") */\n      tag_102\n      jumpi\n      mload(0x40)\n      0x08c379a000000000000000000000000000000000000000000000000000000000\n      dup2\n      mstore\n      0x04\n      add\n      tag_103\n      swap1\n      tag_35\n      jump\t// in\n    tag_103:\n      mload(0x40)\n      dup1\n      swap2\n      sub\n      swap1\n      revert\n    tag_102:\n        /* \"contracts/BTOFAManager.sol\":2172:2187  uint256 tokenId */\n      0x00\n        /* \"contracts/BTOFAManager.sol\":2190:2197  startId */\n      dup4\n        /* \"contracts/BTOFAManager.sol\":2172:2197  uint256 tokenId = startId */\n      swap1\n      pop\n        /* \"contracts/BTOFAManager.sol\":2167:2590  for (uint256 tokenId = startId; tokenId <= endId; ++tokenId) {... */\n    tag_104:\n        /* \"contracts/BTOFAManager.sol\":2210:2215  endId */\n      dup3\n        /* \"contracts/BTOFAManager.sol\":2199:2206  tokenId */\n      dup2\n        /* \"contracts/BTOFAManager.sol\":2199:2215  tokenId <= endId */\n      gt\n        /* \"contracts/BTOFAManager.sol\":2167:2590  for (uint256 tokenId = startId; tokenId <= endId; ++tokenId) {... */\n      tag_105\n      jumpi\n        /* \"contracts/BTOFAManager.sol\":2252:2263  _BTOFAToken */\n      0x02\n      0x00\n      swap1\n      sload\n      swap1\n      0x0100\n      exp\n      swap1\n      div\n      0xffffffffffffffffffffffffffffffffffffffff\n      and\n        /* \"contracts/BTOFAManager.sol\":2252:2273  _BTOFAToken.getProfit */\n      0xffffffffffffffffffffffffffffffffffffffff\n      and\n      0xa91b2e9f\n        /* \"contracts/BTOFAManager.sol\":2274:2281  tokenId */\n      dup3\n        /* \"contracts/BTOFAManager.sol\":2252:2282  _BTOFAToken.getProfit(tokenId) */\n      mload(0x40)\n      dup3\n      0xffffffff\n      and\n      0xe0\n      shl\n      dup2\n      mstore\n      0x04\n      add\n      tag_107\n      swap2\n      swap1\n      tag_40\n      jump\t// in\n    tag_107:\n      0x20\n      mload(0x40)\n      dup1\n      dup4\n      sub\n      dup2\n      dup7\n      gas\n      staticcall\n      iszero\n      dup1\n      iszero\n      tag_109\n      jumpi\n      returndatasize\n      0x00\n      dup1\n      returndatacopy\n      revert(0x00, returndatasize)\n    tag_109:\n      pop\n      pop\n      pop\n      pop\n      mload(0x40)\n      returndatasize\n      not(0x1f)\n      0x1f\n      dup3\n      add\n      and\n      dup3\n      add\n      dup1\n      0x40\n      mstore\n      pop\n      dup2\n      add\n      swap1\n      tag_110\n      swap2\n      swap1\n      tag_44\n      jump\t// in\n    tag_110:\n        /* \"contracts/BTOFAManager.sol\":2243:2282  price += _BTOFAToken.getProfit(tokenId) */\n      dup3\n      tag_111\n      swap2\n      swap1\n      tag_46\n      jump\t// in\n    tag_111:\n      swap2\n      pop\n        /* \"contracts/BTOFAManager.sol\":2316:2327  _BTOFAToken */\n      0x02\n      0x00\n      swap1\n      sload\n      swap1\n      0x0100\n      exp\n      swap1\n      div\n      0xffffffffffffffffffffffffffffffffffffffff\n      and\n        /* \"contracts/BTOFAManager.sol\":2316:2335  _BTOFAToken.ownerOf */\n      0xffffffffffffffffffffffffffffffffffffffff\n      and\n      0x6352211e\n        /* \"contracts/BTOFAManager.sol\":2336:2343  tokenId */\n      dup3\n        /* \"contracts/BTOFAManager.sol\":2316:2344  _BTOFAToken.ownerOf(tokenId) */\n      mload(0x40)\n      dup3\n      0xffffffff\n      and\n      0xe0\n      shl\n      dup2\n      mstore\n      0x04\n      add\n      tag_112\n      swap2\n      swap1\n      tag_40\n      jump\t// in\n    tag_112:\n      0x20\n      mload(0x40)\n      dup1\n      dup4\n      sub\n      dup2\n      dup7\n      gas\n      staticcall\n      iszero\n      dup1\n      iszero\n      tag_114\n      jumpi\n      returndatasize\n      0x00\n      dup1\n      returndatacopy\n      revert(0x00, returndatasize)\n    tag_114:\n      pop\n      pop\n      pop\n      pop\n      mload(0x40)\n      returndatasize\n      not(0x1f)\n      0x1f\n      dup3\n      add\n      and\n      dup3\n      add\n      dup1\n      0x40\n      mstore\n      pop\n      dup2\n      add\n      swap1\n      tag_115\n      swap2\n      swap1\n      tag_51\n      jump\t// in\n    tag_115:\n        /* \"contracts/BTOFAManager.sol\":2305:2344  owner() != _BTOFAToken.ownerOf(tokenId) */\n      0xffffffffffffffffffffffffffffffffffffffff\n      and\n        /* \"contracts/BTOFAManager.sol\":2305:2312  owner() */\n      tag_116\n        /* \"contracts/BTOFAManager.sol\":2305:2310  owner */\n      tag_25\n        /* \"contracts/BTOFAManager.sol\":2305:2312  owner() */\n      jump\t// in\n    tag_116:\n        /* \"contracts/BTOFAManager.sol\":2305:2344  owner() != _BTOFAToken.ownerOf(tokenId) */\n      0xffffffffffffffffffffffffffffffffffffffff\n      and\n      eq\n      iszero\n        /* \"contracts/BTOFAManager.sol\":2443:2468  Strings.toString(tokenId) */\n      tag_117\n        /* \"contracts/BTOFAManager.sol\":2460:2467  tokenId */\n      dup3\n        /* \"contracts/BTOFAManager.sol\":2443:2459  Strings.toString */\n      tag_53\n        /* \"contracts/BTOFAManager.sol\":2443:2468  Strings.toString(tokenId) */\n      jump\t// in\n    tag_117:\n        /* \"contracts/BTOFAManager.sol\":2374:2474  abi.encodePacked(\"BTOT: User already is an owner of token with ID \", Strings.toString(tokenId), \".\") */\n      add(0x20, mload(0x40))\n      tag_118\n      swap2\n      swap1\n      tag_55\n      jump\t// in\n    tag_118:\n      mload(0x40)\n      0x20\n      dup2\n      dup4\n      sub\n      sub\n      dup2\n      mstore\n      swap1\n      0x40\n      mstore\n        /* \"contracts/BTOFAManager.sol\":2297:2476  require(owner() != _BTOFAToken.ownerOf(tokenId),... */\n      swap1\n      tag_119\n      jumpi\n      mload(0x40)\n      0x08c379a000000000000000000000000000000000000000000000000000000000\n      dup2\n      mstore\n      0x04\n      add\n      tag_120\n      swap2\n      swap1\n      tag_58\n      jump\t// in\n    tag_120:\n      mload(0x40)\n      dup1\n      swap2\n      sub\n      swap1\n      revert\n    tag_119:\n      pop\n        /* \"contracts/BTOFAManager.sol\":2499:2510  _BTOFAToken */\n      0x02\n      0x00\n      swap1\n      sload\n      swap1\n      0x0100\n      exp\n      swap1\n      div\n      0xffffffffffffffffffffffffffffffffffffffff\n      and\n        /* \"contracts/BTOFAManager.sol\":2499:2520  _BTOFAToken.isExpired */\n      0xffffffffffffffffffffffffffffffffffffffff\n      and\n      0xd9548e53\n        /* \"contracts/BTOFAManager.sol\":2521:2528  tokenId */\n      dup3\n        /* \"contracts/BTOFAManager.sol\":2499:2529  _BTOFAToken.isExpired(tokenId) */\n      mload(0x40)\n      dup3\n      0xffffffff\n      and\n      0xe0\n      shl\n      dup2\n      mstore\n      0x04\n      add\n      tag_121\n      swap2\n      swap1\n      tag_40\n      jump\t// in\n    tag_121:\n      0x20\n      mload(0x40)\n      dup1\n      dup4\n      sub\n      dup2\n      dup7\n      gas\n      staticcall\n      iszero\n      dup1\n      iszero\n      tag_123\n      jumpi\n      returndatasize\n      0x00\n      dup1\n      returndatacopy\n      revert(0x00, returndatasize)\n    tag_123:\n      pop\n      pop\n      pop\n      pop\n      mload(0x40)\n      returndatasize\n      not(0x1f)\n      0x1f\n      dup3\n      add\n      and\n      dup3\n      add\n      dup1\n      0x40\n      mstore\n      pop\n      dup2\n      add\n      swap1\n      tag_124\n      swap2\n      swap1\n      tag_82\n      jump\t// in\n    tag_124:\n        /* \"contracts/BTOFAManager.sol\":2491:2578  require(_BTOFAToken.isExpired(tokenId), \"BTOT: Token with such ID hasn't expired yet.\") */\n      tag_125\n      jumpi\n      mload(0x40)\n      0x08c379a000000000000000000000000000000000000000000000000000000000\n      dup2\n      mstore\n      0x04\n      add\n      tag_126\n      swap1\n      tag_127\n      jump\t// in\n    tag_126:\n      mload(0x40)\n      dup1\n      swap2\n      sub\n      swap1\n      revert\n    tag_125:\n        /* \"contracts/BTOFAManager.sol\":2217:2226  ++tokenId */\n      dup1\n      tag_128\n      swap1\n      tag_60\n      jump\t// in\n    tag_128:\n      swap1\n      pop\n        /* \"contracts/BTOFAManager.sol\":2167:2590  for (uint256 tokenId = startId; tokenId <= endId; ++tokenId) {... */\n      jump(tag_104)\n    tag_105:\n      pop\n        /* \"contracts/BTOFAManager.sol\":2647:2652  price */\n      dup1\n        /* \"contracts/BTOFAManager.sol\":2610:2624  _BTOFACurrency */\n      0x01\n      0x00\n      swap1\n      sload\n      swap1\n      0x0100\n      exp\n      swap1\n      div\n      0xffffffffffffffffffffffffffffffffffffffff\n      and\n        /* \"contracts/BTOFAManager.sol\":2610:2634  _BTOFACurrency.balanceOf */\n      0xffffffffffffffffffffffffffffffffffffffff\n      and\n      0x70a08231\n        /* \"contracts/BTOFAManager.sol\":2635:2642  owner() */\n      tag_129\n        /* \"contracts/BTOFAManager.sol\":2635:2640  owner */\n      tag_25\n        /* \"contracts/BTOFAManager.sol\":2635:2642  owner() */\n      jump\t// in\n    tag_129:\n        /* \"contracts/BTOFAManager.sol\":2610:2643  _BTOFACurrency.balanceOf(owner()) */\n      mload(0x40)\n      dup3\n      0xffffffff\n      and\n      0xe0\n      shl\n      dup2\n      mstore\n      0x04\n      add\n      tag_130\n      swap2\n      swap1\n      tag_27\n      jump\t// in\n    tag_130:\n      0x20\n      mload(0x40)\n      dup1\n      dup4\n      sub\n      dup2\n      dup7\n      gas\n      staticcall\n      iszero\n      dup1\n      iszero\n      tag_132\n      jumpi\n      returndatasize\n      0x00\n      dup1\n      returndatacopy\n      revert(0x00, returndatasize)\n    tag_132:\n      pop\n      pop\n      pop\n      pop\n      mload(0x40)\n      returndatasize\n      not(0x1f)\n      0x1f\n      dup3\n      add\n      and\n      dup3\n      add\n      dup1\n      0x40\n      mstore\n      pop\n      dup2\n      add\n      swap1\n      tag_133\n      swap2\n      swap1\n      tag_44\n      jump\t// in\n    tag_133:\n        /* \"contracts/BTOFAManager.sol\":2610:2652  _BTOFACurrency.balanceOf(owner()) >= price */\n      lt\n      iszero\n        /* \"contracts/BTOFAManager.sol\":2602:2693  require(_BTOFACurrency.balanceOf(owner()) >= price, \"BTOC: Insufficient amount of tokens.\") */\n      tag_134\n      jumpi\n      mload(0x40)\n      0x08c379a000000000000000000000000000000000000000000000000000000000\n      dup2\n      mstore\n      0x04\n      add\n      tag_135\n      swap1\n      tag_67\n      jump\t// in\n    tag_135:\n      mload(0x40)\n      dup1\n      swap2\n      sub\n      swap1\n      revert\n    tag_134:\n        /* \"contracts/BTOFAManager.sol\":2764:2769  price */\n      dup1\n        /* \"contracts/BTOFAManager.sol\":2712:2726  _BTOFACurrency */\n      0x01\n      0x00\n      swap1\n      sload\n      swap1\n      0x0100\n      exp\n      swap1\n      div\n      0xffffffffffffffffffffffffffffffffffffffff\n      and\n        /* \"contracts/BTOFAManager.sol\":2712:2736  _BTOFACurrency.allowance */\n      0xffffffffffffffffffffffffffffffffffffffff\n      and\n      0xdd62ed3e\n        /* \"contracts/BTOFAManager.sol\":2737:2744  owner() */\n      tag_136\n        /* \"contracts/BTOFAManager.sol\":2737:2742  owner */\n      tag_25\n        /* \"contracts/BTOFAManager.sol\":2737:2744  owner() */\n      jump\t// in\n    tag_136:\n        /* \"contracts/BTOFAManager.sol\":2754:2758  this */\n      address\n        /* \"contracts/BTOFAManager.sol\":2712:2760  _BTOFACurrency.allowance(owner(), address(this)) */\n      mload(0x40)\n      dup4\n      0xffffffff\n      and\n      0xe0\n      shl\n      dup2\n      mstore\n      0x04\n      add\n      tag_137\n      swap3\n      swap2\n      swap1\n      tag_69\n      jump\t// in\n    tag_137:\n      0x20\n      mload(0x40)\n      dup1\n      dup4\n      sub\n      dup2\n      dup7\n      gas\n      staticcall\n      iszero\n      dup1\n      iszero\n      tag_139\n      jumpi\n      returndatasize\n      0x00\n      dup1\n      returndatacopy\n      revert(0x00, returndatasize)\n    tag_139:\n      pop\n      pop\n      pop\n      pop\n      mload(0x40)\n      returndatasize\n      not(0x1f)\n      0x1f\n      dup3\n      add\n      and\n      dup3\n      add\n      dup1\n      0x40\n      mstore\n      pop\n      dup2\n      add\n      swap1\n      tag_140\n      swap2\n      swap1\n      tag_44\n      jump\t// in\n    tag_140:\n        /* \"contracts/BTOFAManager.sol\":2712:2769  _BTOFACurrency.allowance(owner(), address(this)) >= price */\n      lt\n      iszero\n        /* \"contracts/BTOFAManager.sol\":2704:2827  require(_BTOFACurrency.allowance(owner(), address(this)) >= price, \"BTOC: Insufficient allowed amount of tokens to spend.\") */\n      tag_141\n      jumpi\n      mload(0x40)\n      0x08c379a000000000000000000000000000000000000000000000000000000000\n      dup2\n      mstore\n      0x04\n      add\n      tag_142\n      swap1\n      tag_75\n      jump\t// in\n    tag_142:\n      mload(0x40)\n      dup1\n      swap2\n      sub\n      swap1\n      revert\n    tag_141:\n        /* \"contracts/BTOFAManager.sol\":2838:2852  _BTOFACurrency */\n      0x01\n      0x00\n      swap1\n      sload\n      swap1\n      0x0100\n      exp\n      swap1\n      div\n      0xffffffffffffffffffffffffffffffffffffffff\n      and\n        /* \"contracts/BTOFAManager.sol\":2838:2865  _BTOFACurrency.transferFrom */\n      0xffffffffffffffffffffffffffffffffffffffff\n      and\n      0x23b872dd\n        /* \"contracts/BTOFAManager.sol\":2866:2873  owner() */\n      tag_143\n        /* \"contracts/BTOFAManager.sol\":2866:2871  owner */\n      tag_25\n        /* \"contracts/BTOFAManager.sol\":2866:2873  owner() */\n      jump\t// in\n    tag_143:\n        /* \"contracts/BTOFAManager.sol\":2875:2886  _BTOFAToken */\n      0x02\n      0x00\n      swap1\n      sload\n      swap1\n      0x0100\n      exp\n      swap1\n      div\n      0xffffffffffffffffffffffffffffffffffffffff\n      and\n        /* \"contracts/BTOFAManager.sol\":2875:2894  _BTOFAToken.ownerOf */\n      0xffffffffffffffffffffffffffffffffffffffff\n      and\n      0x6352211e\n        /* \"contracts/BTOFAManager.sol\":2895:2902  startId */\n      dup8\n        /* \"contracts/BTOFAManager.sol\":2875:2903  _BTOFAToken.ownerOf(startId) */\n      mload(0x40)\n      dup3\n      0xffffffff\n      and\n      0xe0\n      shl\n      dup2\n      mstore\n      0x04\n      add\n      tag_144\n      swap2\n      swap1\n      tag_40\n      jump\t// in\n    tag_144:\n      0x20\n      mload(0x40)\n      dup1\n      dup4\n      sub\n      dup2\n      dup7\n      gas\n      staticcall\n      iszero\n      dup1\n      iszero\n      tag_146\n      jumpi\n      returndatasize\n      0x00\n      dup1\n      returndatacopy\n      revert(0x00, returndatasize)\n    tag_146:\n      pop\n      pop\n      pop\n      pop\n      mload(0x40)\n      returndatasize\n      not(0x1f)\n      0x1f\n      dup3\n      add\n      and\n      dup3\n      add\n      dup1\n      0x40\n      mstore\n      pop\n      dup2\n      add\n      swap1\n      tag_147\n      swap2\n      swap1\n      tag_51\n      jump\t// in\n    tag_147:\n        /* \"contracts/BTOFAManager.sol\":2905:2910  price */\n      dup5\n        /* \"contracts/BTOFAManager.sol\":2838:2911  _BTOFACurrency.transferFrom(owner(), _BTOFAToken.ownerOf(startId), price) */\n      mload(0x40)\n      dup5\n      0xffffffff\n      and\n      0xe0\n      shl\n      dup2\n      mstore\n      0x04\n      add\n      tag_148\n      swap4\n      swap3\n      swap2\n      swap1\n      tag_78\n      jump\t// in\n    tag_148:\n      0x20\n      mload(0x40)\n      dup1\n      dup4\n      sub\n      dup2\n      0x00\n      dup8\n      gas\n      call\n      iszero\n      dup1\n      iszero\n      tag_150\n      jumpi\n      returndatasize\n      0x00\n      dup1\n      returndatacopy\n      revert(0x00, returndatasize)\n    tag_150:\n      pop\n      pop\n      pop\n      pop\n      mload(0x40)\n      returndatasize\n      not(0x1f)\n      0x1f\n      dup3\n      add\n      and\n      dup3\n      add\n      dup1\n      0x40\n      mstore\n      pop\n      dup2\n      add\n      swap1\n      tag_151\n      swap2\n      swap1\n      tag_82\n      jump\t// in\n    tag_151:\n      pop\n        /* \"contracts/BTOFAManager.sol\":2937:2952  uint256 tokenId */\n      0x00\n        /* \"contracts/BTOFAManager.sol\":2955:2962  startId */\n      dup4\n        /* \"contracts/BTOFAManager.sol\":2937:2962  uint256 tokenId = startId */\n      swap1\n      pop\n        /* \"contracts/BTOFAManager.sol\":2932:3136  for (uint256 tokenId = startId; tokenId <= endId; ++tokenId) {... */\n    tag_152:\n        /* \"contracts/BTOFAManager.sol\":2975:2980  endId */\n      dup3\n        /* \"contracts/BTOFAManager.sol\":2964:2971  tokenId */\n      dup2\n        /* \"contracts/BTOFAManager.sol\":2964:2980  tokenId <= endId */\n      gt\n        /* \"contracts/BTOFAManager.sol\":2932:3136  for (uint256 tokenId = startId; tokenId <= endId; ++tokenId) {... */\n      tag_153\n      jumpi\n        /* \"contracts/BTOFAManager.sol\":3008:3019  _BTOFAToken */\n      0x02\n      0x00\n      swap1\n      sload\n      swap1\n      0x0100\n      exp\n      swap1\n      div\n      0xffffffffffffffffffffffffffffffffffffffff\n      and\n        /* \"contracts/BTOFAManager.sol\":3008:3036  _BTOFAToken.safeTransferFrom */\n      0xffffffffffffffffffffffffffffffffffffffff\n      and\n      0x42842e0e\n        /* \"contracts/BTOFAManager.sol\":3037:3048  _BTOFAToken */\n      0x02\n      0x00\n      swap1\n      sload\n      swap1\n      0x0100\n      exp\n      swap1\n      div\n      0xffffffffffffffffffffffffffffffffffffffff\n      and\n        /* \"contracts/BTOFAManager.sol\":3037:3056  _BTOFAToken.ownerOf */\n      0xffffffffffffffffffffffffffffffffffffffff\n      and\n      0x6352211e\n        /* \"contracts/BTOFAManager.sol\":3057:3064  tokenId */\n      dup5\n        /* \"contracts/BTOFAManager.sol\":3037:3065  _BTOFAToken.ownerOf(tokenId) */\n      mload(0x40)\n      dup3\n      0xffffffff\n      and\n      0xe0\n      shl\n      dup2\n      mstore\n      0x04\n      add\n      tag_155\n      swap2\n      swap1\n      tag_40\n      jump\t// in\n    tag_155:\n      0x20\n      mload(0x40)\n      dup1\n      dup4\n      sub\n      dup2\n      dup7\n      gas\n      staticcall\n      iszero\n      dup1\n      iszero\n      tag_157\n      jumpi\n      returndatasize\n      0x00\n      dup1\n      returndatacopy\n      revert(0x00, returndatasize)\n    tag_157:\n      pop\n      pop\n      pop\n      pop\n      mload(0x40)\n      returndatasize\n      not(0x1f)\n      0x1f\n      dup3\n      add\n      and\n      dup3\n      add\n      dup1\n      0x40\n      mstore\n      pop\n      dup2\n      add\n      swap1\n      tag_158\n      swap2\n      swap1\n      tag_51\n      jump\t// in\n    tag_158:\n        /* \"contracts/BTOFAManager.sol\":3067:3074  owner() */\n      tag_159\n        /* \"contracts/BTOFAManager.sol\":3067:3072  owner */\n      tag_25\n        /* \"contracts/BTOFAManager.sol\":3067:3074  owner() */\n      jump\t// in\n    tag_159:\n        /* \"contracts/BTOFAManager.sol\":3076:3083  tokenId */\n      dup5\n        /* \"contracts/BTOFAManager.sol\":3008:3084  _BTOFAToken.safeTransferFrom(_BTOFAToken.ownerOf(tokenId), owner(), tokenId) */\n      mload(0x40)\n      dup5\n      0xffffffff\n      and\n      0xe0\n      shl\n      dup2\n      mstore\n      0x04\n      add\n      tag_160\n      swap4\n      swap3\n      swap2\n      swap1\n      tag_78\n      jump\t// in\n    tag_160:\n      0x00\n      mload(0x40)\n      dup1\n      dup4\n      sub\n      dup2\n      0x00\n      dup8\n      dup1\n      extcodesize\n      iszero\n      dup1\n      iszero\n      tag_161\n      jumpi\n      0x00\n      dup1\n      revert\n    tag_161:\n      pop\n      gas\n      call\n      iszero\n      dup1\n      iszero\n      tag_163\n      jumpi\n      returndatasize\n      0x00\n      dup1\n      returndatacopy\n      revert(0x00, returndatasize)\n    tag_163:\n      pop\n      pop\n      pop\n      pop\n        /* \"contracts/BTOFAManager.sol\":3099:3110  _BTOFAToken */\n      0x02\n      0x00\n      swap1\n      sload\n      swap1\n      0x0100\n      exp\n      swap1\n      div\n      0xffffffffffffffffffffffffffffffffffffffff\n      and\n        /* \"contracts/BTOFAManager.sol\":3099:3115  _BTOFAToken.burn */\n      0xffffffffffffffffffffffffffffffffffffffff\n      and\n      0x42966c68\n        /* \"contracts/BTOFAManager.sol\":3116:3123  tokenId */\n      dup3\n        /* \"contracts/BTOFAManager.sol\":3099:3124  _BTOFAToken.burn(tokenId) */\n      mload(0x40)\n      dup3\n      0xffffffff\n      and\n      0xe0\n      shl\n      dup2\n      mstore\n      0x04\n      add\n      tag_164\n      swap2\n      swap1\n      tag_40\n      jump\t// in\n    tag_164:\n      0x00\n      mload(0x40)\n      dup1\n      dup4\n      sub\n      dup2\n      0x00\n      dup8\n      dup1\n      extcodesize\n      iszero\n      dup1\n      iszero\n      tag_165\n      jumpi\n      0x00\n      dup1\n      revert\n    tag_165:\n      pop\n      gas\n      call\n      iszero\n      dup1\n      iszero\n      tag_167\n      jumpi\n      returndatasize\n      0x00\n      dup1\n      returndatacopy\n      revert(0x00, returndatasize)\n    tag_167:\n      pop\n      pop\n      pop\n      pop\n        /* \"contracts/BTOFAManager.sol\":2982:2991  ++tokenId */\n      dup1\n      tag_168\n      swap1\n      tag_60\n      jump\t// in\n    tag_168:\n      swap1\n      pop\n        /* \"contracts/BTOFAManager.sol\":2932:3136  for (uint256 tokenId = startId; tokenId <= endId; ++tokenId) {... */\n      jump(tag_152)\n    tag_153:\n      pop\n        /* \"contracts/BTOFAManager.sol\":2025:3143  {... */\n      pop\n        /* \"contracts/BTOFAManager.sol\":1955:3143  function expireToken(uint256 startId, uint256 endId) public onlyOwner {... */\n      pop\n      pop\n      jump\t// out\n        /* \"@openzeppelin/contracts/access/Ownable.sol\":1201:1286  function owner() public view virtual returns (address) {... */\n    tag_25:\n        /* \"@openzeppelin/contracts/access/Ownable.sol\":1247:1254  address */\n      0x00\n        /* \"@openzeppelin/contracts/access/Ownable.sol\":1273:1279  _owner */\n      dup1\n      0x00\n      swap1\n      sload\n      swap1\n      0x0100\n      exp\n      swap1\n      div\n      0xffffffffffffffffffffffffffffffffffffffff\n      and\n        /* \"@openzeppelin/contracts/access/Ownable.sol\":1266:1279  return _owner */\n      swap1\n      pop\n        /* \"@openzeppelin/contracts/access/Ownable.sol\":1201:1286  function owner() public view virtual returns (address) {... */\n      swap1\n      jump\t// out\n        /* \"@openzeppelin/contracts/access/Ownable.sol\":2081:2279  function transferOwnership(address newOwner) public virtual onlyOwner {... */\n    tag_31:\n        /* \"@openzeppelin/contracts/access/Ownable.sol\":1094:1107  _checkOwner() */\n      tag_171\n        /* \"@openzeppelin/contracts/access/Ownable.sol\":1094:1105  _checkOwner */\n      tag_95\n        /* \"@openzeppelin/contracts/access/Ownable.sol\":1094:1107  _checkOwner() */\n      jump\t// in\n    tag_171:\n        /* \"@openzeppelin/contracts/access/Ownable.sol\":2189:2190  0 */\n      0x00\n        /* \"@openzeppelin/contracts/access/Ownable.sol\":2169:2191  newOwner != address(0) */\n      0xffffffffffffffffffffffffffffffffffffffff\n      and\n        /* \"@openzeppelin/contracts/access/Ownable.sol\":2169:2177  newOwner */\n      dup2\n        /* \"@openzeppelin/contracts/access/Ownable.sol\":2169:2191  newOwner != address(0) */\n      0xffffffffffffffffffffffffffffffffffffffff\n      and\n      sub\n        /* \"@openzeppelin/contracts/access/Ownable.sol\":2161:2234  require(newOwner != address(0), \"Ownable: new owner is the zero address\") */\n      tag_173\n      jumpi\n      mload(0x40)\n      0x08c379a000000000000000000000000000000000000000000000000000000000\n      dup2\n      mstore\n      0x04\n      add\n      tag_174\n      swap1\n      tag_175\n      jump\t// in\n    tag_174:\n      mload(0x40)\n      dup1\n      swap2\n      sub\n      swap1\n      revert\n    tag_173:\n        /* \"@openzeppelin/contracts/access/Ownable.sol\":2244:2272  _transferOwnership(newOwner) */\n      tag_176\n        /* \"@openzeppelin/contracts/access/Ownable.sol\":2263:2271  newOwner */\n      dup2\n        /* \"@openzeppelin/contracts/access/Ownable.sol\":2244:2262  _transferOwnership */\n      tag_98\n        /* \"@openzeppelin/contracts/access/Ownable.sol\":2244:2272  _transferOwnership(newOwner) */\n      jump\t// in\n    tag_176:\n        /* \"@openzeppelin/contracts/access/Ownable.sol\":2081:2279  function transferOwnership(address newOwner) public virtual onlyOwner {... */\n      pop\n      jump\t// out\n        /* \"@openzeppelin/contracts/utils/Strings.sol\":415:1111  function toString(uint256 value) internal pure returns (string memory) {... */\n    tag_53:\n        /* \"@openzeppelin/contracts/utils/Strings.sol\":471:484  string memory */\n      0x60\n        /* \"@openzeppelin/contracts/utils/Strings.sol\":520:534  uint256 length */\n      0x00\n        /* \"@openzeppelin/contracts/utils/Strings.sol\":557:558  1 */\n      0x01\n        /* \"@openzeppelin/contracts/utils/Strings.sol\":537:554  Math.log10(value) */\n      tag_178\n        /* \"@openzeppelin/contracts/utils/Strings.sol\":548:553  value */\n      dup5\n        /* \"@openzeppelin/contracts/utils/Strings.sol\":537:547  Math.log10 */\n      tag_179\n        /* \"@openzeppelin/contracts/utils/Strings.sol\":537:554  Math.log10(value) */\n      jump\t// in\n    tag_178:\n        /* \"@openzeppelin/contracts/utils/Strings.sol\":537:558  Math.log10(value) + 1 */\n      add\n        /* \"@openzeppelin/contracts/utils/Strings.sol\":520:558  uint256 length = Math.log10(value) + 1 */\n      swap1\n      pop\n        /* \"@openzeppelin/contracts/utils/Strings.sol\":572:592  string memory buffer */\n      0x00\n        /* \"@openzeppelin/contracts/utils/Strings.sol\":606:612  length */\n      dup2\n        /* \"@openzeppelin/contracts/utils/Strings.sol\":595:613  new string(length) */\n      0xffffffffffffffff\n      dup2\n      gt\n      iszero\n      tag_180\n      jumpi\n      tag_181\n      tag_182\n      jump\t// in\n    tag_181:\n    tag_180:\n      mload(0x40)\n      swap1\n      dup1\n      dup3\n      mstore\n      dup1\n      0x1f\n      add\n      not(0x1f)\n      and\n      0x20\n      add\n      dup3\n      add\n      0x40\n      mstore\n      dup1\n      iszero\n      tag_183\n      jumpi\n      dup2\n      0x20\n      add\n      0x01\n      dup3\n      mul\n      dup1\n      calldatasize\n      dup4\n      calldatacopy\n      dup1\n      dup3\n      add\n      swap2\n      pop\n      pop\n      swap1\n      pop\n    tag_183:\n      pop\n        /* \"@openzeppelin/contracts/utils/Strings.sol\":572:613  string memory buffer = new string(length) */\n      swap1\n      pop\n        /* \"@openzeppelin/contracts/utils/Strings.sol\":627:638  uint256 ptr */\n      0x00\n        /* \"@openzeppelin/contracts/utils/Strings.sol\":753:759  length */\n      dup3\n        /* \"@openzeppelin/contracts/utils/Strings.sol\":749:751  32 */\n      0x20\n        /* \"@openzeppelin/contracts/utils/Strings.sol\":745:760  add(32, length) */\n      add\n        /* \"@openzeppelin/contracts/utils/Strings.sol\":737:743  buffer */\n      dup3\n        /* \"@openzeppelin/contracts/utils/Strings.sol\":733:761  add(buffer, add(32, length)) */\n      add\n        /* \"@openzeppelin/contracts/utils/Strings.sol\":726:761  ptr := add(buffer, add(32, length)) */\n      swap1\n      pop\n        /* \"@openzeppelin/contracts/utils/Strings.sol\":788:1068  while (true) {... */\n    tag_184:\n        /* \"@openzeppelin/contracts/utils/Strings.sol\":795:799  true */\n      0x01\n        /* \"@openzeppelin/contracts/utils/Strings.sol\":788:1068  while (true) {... */\n      iszero\n      tag_185\n      jumpi\n        /* \"@openzeppelin/contracts/utils/Strings.sol\":819:824  ptr-- */\n      dup1\n      dup1\n      0x01\n      swap1\n      sub\n      swap2\n      pop\n      pop\n        /* \"@openzeppelin/contracts/utils/Strings.sol\":958:966  _SYMBOLS */\n      0x3031323334353637383961626364656600000000000000000000000000000000\n        /* \"@openzeppelin/contracts/utils/Strings.sol\":953:955  10 */\n      0x0a\n        /* \"@openzeppelin/contracts/utils/Strings.sol\":946:951  value */\n      dup7\n        /* \"@openzeppelin/contracts/utils/Strings.sol\":942:956  mod(value, 10) */\n      mod\n        /* \"@openzeppelin/contracts/utils/Strings.sol\":937:967  byte(mod(value, 10), _SYMBOLS) */\n      byte\n        /* \"@openzeppelin/contracts/utils/Strings.sol\":932:935  ptr */\n      dup2\n        /* \"@openzeppelin/contracts/utils/Strings.sol\":924:968  mstore8(ptr, byte(mod(value, 10), _SYMBOLS)) */\n      mstore8\n        /* \"@openzeppelin/contracts/utils/Strings.sol\":1012:1014  10 */\n      0x0a\n        /* \"@openzeppelin/contracts/utils/Strings.sol\":1003:1014  value /= 10 */\n      dup6\n      dup2\n      tag_186\n      jumpi\n      tag_187\n      tag_188\n      jump\t// in\n    tag_187:\n    tag_186:\n      div\n      swap5\n      pop\n        /* \"@openzeppelin/contracts/utils/Strings.sol\":1045:1046  0 */\n      0x00\n        /* \"@openzeppelin/contracts/utils/Strings.sol\":1036:1041  value */\n      dup6\n        /* \"@openzeppelin/contracts/utils/Strings.sol\":1036:1046  value == 0 */\n      sub\n        /* \"@openzeppelin/contracts/utils/Strings.sol\":788:1068  while (true) {... */\n      tag_184\n        /* \"@openzeppelin/contracts/utils/Strings.sol\":1032:1053  if (value == 0) break */\n      jumpi\n        /* \"@openzeppelin/contracts/utils/Strings.sol\":788:1068  while (true) {... */\n    tag_185:\n        /* \"@openzeppelin/contracts/utils/Strings.sol\":1088:1094  buffer */\n      dup2\n        /* \"@openzeppelin/contracts/utils/Strings.sol\":1081:1094  return buffer */\n      swap4\n      pop\n      pop\n      pop\n      pop\n        /* \"@openzeppelin/contracts/utils/Strings.sol\":415:1111  function toString(uint256 value) internal pure returns (string memory) {... */\n      swap2\n      swap1\n      pop\n      jump\t// out\n        /* \"@openzeppelin/contracts/access/Ownable.sol\":1359:1489  function _checkOwner() internal view virtual {... */\n    tag_95:\n        /* \"@openzeppelin/contracts/access/Ownable.sol\":1433:1445  _msgSender() */\n      tag_191\n        /* \"@openzeppelin/contracts/access/Ownable.sol\":1433:1443  _msgSender */\n      tag_192\n        /* \"@openzeppelin/contracts/access/Ownable.sol\":1433:1445  _msgSender() */\n      jump\t// in\n    tag_191:\n        /* \"@openzeppelin/contracts/access/Ownable.sol\":1422:1445  owner() == _msgSender() */\n      0xffffffffffffffffffffffffffffffffffffffff\n      and\n        /* \"@openzeppelin/contracts/access/Ownable.sol\":1422:1429  owner() */\n      tag_193\n        /* \"@openzeppelin/contracts/access/Ownable.sol\":1422:1427  owner */\n      tag_25\n        /* \"@openzeppelin/contracts/access/Ownable.sol\":1422:1429  owner() */\n      jump\t// in\n    tag_193:\n        /* \"@openzeppelin/contracts/access/Ownable.sol\":1422:1445  owner() == _msgSender() */\n      0xffffffffffffffffffffffffffffffffffffffff\n      and\n      eq\n        /* \"@openzeppelin/contracts/access/Ownable.sol\":1414:1482  require(owner() == _msgSender(), \"Ownable: caller is not the owner\") */\n      tag_194\n      jumpi\n      mload(0x40)\n      0x08c379a000000000000000000000000000000000000000000000000000000000\n      dup2\n      mstore\n      0x04\n      add\n      tag_195\n      swap1\n      tag_196\n      jump\t// in\n    tag_195:\n      mload(0x40)\n      dup1\n      swap2\n      sub\n      swap1\n      revert\n    tag_194:\n        /* \"@openzeppelin/contracts/access/Ownable.sol\":1359:1489  function _checkOwner() internal view virtual {... */\n      jump\t// out\n        /* \"@openzeppelin/contracts/access/Ownable.sol\":2433:2620  function _transferOwnership(address newOwner) internal virtual {... */\n    tag_98:\n        /* \"@openzeppelin/contracts/access/Ownable.sol\":2506:2522  address oldOwner */\n      0x00\n        /* \"@openzeppelin/contracts/access/Ownable.sol\":2525:2531  _owner */\n      dup1\n      0x00\n      swap1\n      sload\n      swap1\n      0x0100\n      exp\n      swap1\n      div\n      0xffffffffffffffffffffffffffffffffffffffff\n      and\n        /* \"@openzeppelin/contracts/access/Ownable.sol\":2506:2531  address oldOwner = _owner */\n      swap1\n      pop\n        /* \"@openzeppelin/contracts/access/Ownable.sol\":2550:2558  newOwner */\n      dup2\n        /* \"@openzeppelin/contracts/access/Ownable.sol\":2541:2547  _owner */\n      0x00\n      dup1\n        /* \"@openzeppelin/contracts/access/Ownable.sol\":2541:2558  _owner = newOwner */\n      0x0100\n      exp\n      dup2\n      sload\n      dup2\n      0xffffffffffffffffffffffffffffffffffffffff\n      mul\n      not\n      and\n      swap1\n      dup4\n      0xffffffffffffffffffffffffffffffffffffffff\n      and\n      mul\n      or\n      swap1\n      sstore\n      pop\n        /* \"@openzeppelin/contracts/access/Ownable.sol\":2604:2612  newOwner */\n      dup2\n        /* \"@openzeppelin/contracts/access/Ownable.sol\":2573:2613  OwnershipTransferred(oldOwner, newOwner) */\n      0xffffffffffffffffffffffffffffffffffffffff\n      and\n        /* \"@openzeppelin/contracts/access/Ownable.sol\":2594:2602  oldOwner */\n      dup2\n        /* \"@openzeppelin/contracts/access/Ownable.sol\":2573:2613  OwnershipTransferred(oldOwner, newOwner) */\n      0xffffffffffffffffffffffffffffffffffffffff\n      and\n      0x8be0079c531659141344cd1fd0a4f28419497f9722a3daafe3b4186f6b6457e0\n      mload(0x40)\n      mload(0x40)\n      dup1\n      swap2\n      sub\n      swap1\n      log3\n        /* \"@openzeppelin/contracts/access/Ownable.sol\":2496:2620  {... */\n      pop\n        /* \"@openzeppelin/contracts/access/Ownable.sol\":2433:2620  function _transferOwnership(address newOwner) internal virtual {... */\n      pop\n      jump\t// out\n        /* \"@openzeppelin/contracts/utils/math/Math.sol\":9889:10779  function log10(uint256 value) internal pure returns (uint256) {... */\n    tag_179:\n        /* \"@openzeppelin/contracts/utils/math/Math.sol\":9942:9949  uint256 */\n      0x00\n        /* \"@openzeppelin/contracts/utils/math/Math.sol\":9961:9975  uint256 result */\n      dup1\n        /* \"@openzeppelin/contracts/utils/math/Math.sol\":9978:9979  0 */\n      0x00\n        /* \"@openzeppelin/contracts/utils/math/Math.sol\":9961:9979  uint256 result = 0 */\n      swap1\n      pop\n        /* \"@openzeppelin/contracts/utils/math/Math.sol\":10026:10032  10**64 */\n      0x184f03e93ff9f4daa797ed6e38ed64bf6a1f010000000000000000\n        /* \"@openzeppelin/contracts/utils/math/Math.sol\":10017:10022  value */\n      dup4\n        /* \"@openzeppelin/contracts/utils/math/Math.sol\":10017:10032  value >= 10**64 */\n      lt\n        /* \"@openzeppelin/contracts/utils/math/Math.sol\":10013:10112  if (value >= 10**64) {... */\n      tag_199\n      jumpi\n        /* \"@openzeppelin/contracts/utils/math/Math.sol\":10061:10067  10**64 */\n      0x184f03e93ff9f4daa797ed6e38ed64bf6a1f010000000000000000\n        /* \"@openzeppelin/contracts/utils/math/Math.sol\":10052:10067  value /= 10**64 */\n      dup4\n      dup2\n      tag_200\n      jumpi\n      tag_201\n      tag_188\n      jump\t// in\n    tag_201:\n    tag_200:\n      div\n      swap3\n      pop\n        /* \"@openzeppelin/contracts/utils/math/Math.sol\":10095:10097  64 */\n      0x40\n        /* \"@openzeppelin/contracts/utils/math/Math.sol\":10085:10097  result += 64 */\n      dup2\n      add\n      swap1\n      pop\n        /* \"@openzeppelin/contracts/utils/math/Math.sol\":10013:10112  if (value >= 10**64) {... */\n    tag_199:\n        /* \"@openzeppelin/contracts/utils/math/Math.sol\":10138:10144  10**32 */\n      0x04ee2d6d415b85acef8100000000\n        /* \"@openzeppelin/contracts/utils/math/Math.sol\":10129:10134  value */\n      dup4\n        /* \"@openzeppelin/contracts/utils/math/Math.sol\":10129:10144  value >= 10**32 */\n      lt\n        /* \"@openzeppelin/contracts/utils/math/Math.sol\":10125:10224  if (value >= 10**32) {... */\n      tag_202\n      jumpi\n        /* \"@openzeppelin/contracts/utils/math/Math.sol\":10173:10179  10**32 */\n      0x04ee2d6d415b85acef8100000000\n        /* \"@openzeppelin/contracts/utils/math/Math.sol\":10164:10179  value /= 10**32 */\n      dup4\n      dup2\n      tag_203\n      jumpi\n      tag_204\n      tag_188\n      jump\t// in\n    tag_204:\n    tag_203:\n      div\n      swap3\n      pop\n        /* \"@openzeppelin/contracts/utils/math/Math.sol\":10207:10209  32 */\n      0x20\n        /* \"@openzeppelin/contracts/utils/math/Math.sol\":10197:10209  result += 32 */\n      dup2\n      add\n      swap1\n      pop\n        /* \"@openzeppelin/contracts/utils/math/Math.sol\":10125:10224  if (value >= 10**32) {... */\n    tag_202:\n        /* \"@openzeppelin/contracts/utils/math/Math.sol\":10250:10256  10**16 */\n      0x2386f26fc10000\n        /* \"@openzeppelin/contracts/utils/math/Math.sol\":10241:10246  value */\n      dup4\n        /* \"@openzeppelin/contracts/utils/math/Math.sol\":10241:10256  value >= 10**16 */\n      lt\n        /* \"@openzeppelin/contracts/utils/math/Math.sol\":10237:10336  if (value >= 10**16) {... */\n      tag_205\n      jumpi\n        /* \"@openzeppelin/contracts/utils/math/Math.sol\":10285:10291  10**16 */\n      0x2386f26fc10000\n        /* \"@openzeppelin/contracts/utils/math/Math.sol\":10276:10291  value /= 10**16 */\n      dup4\n      dup2\n      tag_206\n      jumpi\n      tag_207\n      tag_188\n      jump\t// in\n    tag_207:\n    tag_206:\n      div\n      swap3\n      pop\n        /* \"@openzeppelin/contracts/utils/math/Math.sol\":10319:10321  16 */\n      0x10\n        /* \"@openzeppelin/contracts/utils/math/Math.sol\":10309:10321  result += 16 */\n      dup2\n      add\n      swap1\n      pop\n        /* \"@openzeppelin/contracts/utils/math/Math.sol\":10237:10336  if (value >= 10**16) {... */\n    tag_205:\n        /* \"@openzeppelin/contracts/utils/math/Math.sol\":10362:10367  10**8 */\n      0x05f5e100\n        /* \"@openzeppelin/contracts/utils/math/Math.sol\":10353:10358  value */\n      dup4\n        /* \"@openzeppelin/contracts/utils/math/Math.sol\":10353:10367  value >= 10**8 */\n      lt\n        /* \"@openzeppelin/contracts/utils/math/Math.sol\":10349:10445  if (value >= 10**8) {... */\n      tag_208\n      jumpi\n        /* \"@openzeppelin/contracts/utils/math/Math.sol\":10396:10401  10**8 */\n      0x05f5e100\n        /* \"@openzeppelin/contracts/utils/math/Math.sol\":10387:10401  value /= 10**8 */\n      dup4\n      dup2\n      tag_209\n      jumpi\n      tag_210\n      tag_188\n      jump\t// in\n    tag_210:\n    tag_209:\n      div\n      swap3\n      pop\n        /* \"@openzeppelin/contracts/utils/math/Math.sol\":10429:10430  8 */\n      0x08\n        /* \"@openzeppelin/contracts/utils/math/Math.sol\":10419:10430  result += 8 */\n      dup2\n      add\n      swap1\n      pop\n        /* \"@openzeppelin/contracts/utils/math/Math.sol\":10349:10445  if (value >= 10**8) {... */\n    tag_208:\n        /* \"@openzeppelin/contracts/utils/math/Math.sol\":10471:10476  10**4 */\n      0x2710\n        /* \"@openzeppelin/contracts/utils/math/Math.sol\":10462:10467  value */\n      dup4\n        /* \"@openzeppelin/contracts/utils/math/Math.sol\":10462:10476  value >= 10**4 */\n      lt\n        /* \"@openzeppelin/contracts/utils/math/Math.sol\":10458:10554  if (value >= 10**4) {... */\n      tag_211\n      jumpi\n        /* \"@openzeppelin/contracts/utils/math/Math.sol\":10505:10510  10**4 */\n      0x2710\n        /* \"@openzeppelin/contracts/utils/math/Math.sol\":10496:10510  value /= 10**4 */\n      dup4\n      dup2\n      tag_212\n      jumpi\n      tag_213\n      tag_188\n      jump\t// in\n    tag_213:\n    tag_212:\n      div\n      swap3\n      pop\n        /* \"@openzeppelin/contracts/utils/math/Math.sol\":10538:10539  4 */\n      0x04\n        /* \"@openzeppelin/contracts/utils/math/Math.sol\":10528:10539  result += 4 */\n      dup2\n      add\n      swap1\n      pop\n        /* \"@openzeppelin/contracts/utils/math/Math.sol\":10458:10554  if (value >= 10**4) {... */\n    tag_211:\n        /* \"@openzeppelin/contracts/utils/math/Math.sol\":10580:10585  10**2 */\n      0x64\n        /* \"@openzeppelin/contracts/utils/math/Math.sol\":10571:10576  value */\n      dup4\n        /* \"@openzeppelin/contracts/utils/math/Math.sol\":10571:10585  value >= 10**2 */\n      lt\n        /* \"@openzeppelin/contracts/utils/math/Math.sol\":10567:10663  if (value >= 10**2) {... */\n      tag_214\n      jumpi\n        /* \"@openzeppelin/contracts/utils/math/Math.sol\":10614:10619  10**2 */\n      0x64\n        /* \"@openzeppelin/contracts/utils/math/Math.sol\":10605:10619  value /= 10**2 */\n      dup4\n      dup2\n      tag_215\n      jumpi\n      tag_216\n      tag_188\n      jump\t// in\n    tag_216:\n    tag_215:\n      div\n      swap3\n      pop\n        /* \"@openzeppelin/contracts/utils/math/Math.sol\":10647:10648  2 */\n      0x02\n        /* \"@openzeppelin/contracts/utils/math/Math.sol\":10637:10648  result += 2 */\n      dup2\n      add\n      swap1\n      pop\n        /* \"@openzeppelin/contracts/utils/math/Math.sol\":10567:10663  if (value >= 10**2) {... */\n    tag_214:\n        /* \"@openzeppelin/contracts/utils/math/Math.sol\":10689:10694  10**1 */\n      0x0a\n        /* \"@openzeppelin/contracts/utils/math/Math.sol\":10680:10685  value */\n      dup4\n        /* \"@openzeppelin/contracts/utils/math/Math.sol\":10680:10694  value >= 10**1 */\n      lt\n        /* \"@openzeppelin/contracts/utils/math/Math.sol\":10676:10740  if (value >= 10**1) {... */\n      tag_217\n      jumpi\n        /* \"@openzeppelin/contracts/utils/math/Math.sol\":10724:10725  1 */\n      0x01\n        /* \"@openzeppelin/contracts/utils/math/Math.sol\":10714:10725  result += 1 */\n      dup2\n      add\n      swap1\n      pop\n        /* \"@openzeppelin/contracts/utils/math/Math.sol\":10676:10740  if (value >= 10**1) {... */\n    tag_217:\n        /* \"@openzeppelin/contracts/utils/math/Math.sol\":10766:10772  result */\n      dup1\n        /* \"@openzeppelin/contracts/utils/math/Math.sol\":10759:10772  return result */\n      swap2\n      pop\n      pop\n        /* \"@openzeppelin/contracts/utils/math/Math.sol\":9889:10779  function log10(uint256 value) internal pure returns (uint256) {... */\n      swap2\n      swap1\n      pop\n      jump\t// out\n        /* \"@openzeppelin/contracts/utils/Context.sol\":640:736  function _msgSender() internal view virtual returns (address) {... */\n    tag_192:\n        /* \"@openzeppelin/contracts/utils/Context.sol\":693:700  address */\n      0x00\n        /* \"@openzeppelin/contracts/utils/Context.sol\":719:729  msg.sender */\n      caller\n        /* \"@openzeppelin/contracts/utils/Context.sol\":712:729  return msg.sender */\n      swap1\n      pop\n        /* \"@openzeppelin/contracts/utils/Context.sol\":640:736  function _msgSender() internal view virtual returns (address) {... */\n      swap1\n      jump\t// out\n        /* \"#utility.yul\":88:205   */\n    tag_220:\n        /* \"#utility.yul\":197:198   */\n      0x00\n        /* \"#utility.yul\":194:195   */\n      dup1\n        /* \"#utility.yul\":187:199   */\n      revert\n        /* \"#utility.yul\":211:328   */\n    tag_221:\n        /* \"#utility.yul\":320:321   */\n      0x00\n        /* \"#utility.yul\":317:318   */\n      dup1\n        /* \"#utility.yul\":310:322   */\n      revert\n        /* \"#utility.yul\":334:411   */\n    tag_222:\n        /* \"#utility.yul\":371:378   */\n      0x00\n        /* \"#utility.yul\":400:405   */\n      dup2\n        /* \"#utility.yul\":389:405   */\n      swap1\n      pop\n        /* \"#utility.yul\":334:411   */\n      swap2\n      swap1\n      pop\n      jump\t// out\n        /* \"#utility.yul\":417:539   */\n    tag_223:\n        /* \"#utility.yul\":490:514   */\n      tag_272\n        /* \"#utility.yul\":508:513   */\n      dup2\n        /* \"#utility.yul\":490:514   */\n      tag_222\n      jump\t// in\n    tag_272:\n        /* \"#utility.yul\":483:488   */\n      dup2\n        /* \"#utility.yul\":480:515   */\n      eq\n        /* \"#utility.yul\":470:533   */\n      tag_273\n      jumpi\n        /* \"#utility.yul\":529:530   */\n      0x00\n        /* \"#utility.yul\":526:527   */\n      dup1\n        /* \"#utility.yul\":519:531   */\n      revert\n        /* \"#utility.yul\":470:533   */\n    tag_273:\n        /* \"#utility.yul\":417:539   */\n      pop\n      jump\t// out\n        /* \"#utility.yul\":545:684   */\n    tag_224:\n        /* \"#utility.yul\":591:596   */\n      0x00\n        /* \"#utility.yul\":629:635   */\n      dup2\n        /* \"#utility.yul\":616:636   */\n      calldataload\n        /* \"#utility.yul\":607:636   */\n      swap1\n      pop\n        /* \"#utility.yul\":645:678   */\n      tag_275\n        /* \"#utility.yul\":672:677   */\n      dup2\n        /* \"#utility.yul\":645:678   */\n      tag_223\n      jump\t// in\n    tag_275:\n        /* \"#utility.yul\":545:684   */\n      swap3\n      swap2\n      pop\n      pop\n      jump\t// out\n        /* \"#utility.yul\":690:1164   */\n    tag_11:\n        /* \"#utility.yul\":758:764   */\n      0x00\n        /* \"#utility.yul\":766:772   */\n      dup1\n        /* \"#utility.yul\":815:817   */\n      0x40\n        /* \"#utility.yul\":803:812   */\n      dup4\n        /* \"#utility.yul\":794:801   */\n      dup6\n        /* \"#utility.yul\":790:813   */\n      sub\n        /* \"#utility.yul\":786:818   */\n      slt\n        /* \"#utility.yul\":783:902   */\n      iszero\n      tag_277\n      jumpi\n        /* \"#utility.yul\":821:900   */\n      tag_278\n      tag_220\n      jump\t// in\n    tag_278:\n        /* \"#utility.yul\":783:902   */\n    tag_277:\n        /* \"#utility.yul\":941:942   */\n      0x00\n        /* \"#utility.yul\":966:1019   */\n      tag_279\n        /* \"#utility.yul\":1011:1018   */\n      dup6\n        /* \"#utility.yul\":1002:1008   */\n      dup3\n        /* \"#utility.yul\":991:1000   */\n      dup7\n        /* \"#utility.yul\":987:1009   */\n      add\n        /* \"#utility.yul\":966:1019   */\n      tag_224\n      jump\t// in\n    tag_279:\n        /* \"#utility.yul\":956:1019   */\n      swap3\n      pop\n        /* \"#utility.yul\":912:1029   */\n      pop\n        /* \"#utility.yul\":1068:1070   */\n      0x20\n        /* \"#utility.yul\":1094:1147   */\n      tag_280\n        /* \"#utility.yul\":1139:1146   */\n      dup6\n        /* \"#utility.yul\":1130:1136   */\n      dup3\n        /* \"#utility.yul\":1119:1128   */\n      dup7\n        /* \"#utility.yul\":1115:1137   */\n      add\n        /* \"#utility.yul\":1094:1147   */\n      tag_224\n      jump\t// in\n    tag_280:\n        /* \"#utility.yul\":1084:1147   */\n      swap2\n      pop\n        /* \"#utility.yul\":1039:1157   */\n      pop\n        /* \"#utility.yul\":690:1164   */\n      swap3\n      pop\n      swap3\n      swap1\n      pop\n      jump\t// out\n        /* \"#utility.yul\":1170:1296   */\n    tag_225:\n        /* \"#utility.yul\":1207:1214   */\n      0x00\n        /* \"#utility.yul\":1247:1289   */\n      0xffffffffffffffffffffffffffffffffffffffff\n        /* \"#utility.yul\":1240:1245   */\n      dup3\n        /* \"#utility.yul\":1236:1290   */\n      and\n        /* \"#utility.yul\":1225:1290   */\n      swap1\n      pop\n        /* \"#utility.yul\":1170:1296   */\n      swap2\n      swap1\n      pop\n      jump\t// out\n        /* \"#utility.yul\":1302:1398   */\n    tag_226:\n        /* \"#utility.yul\":1339:1346   */\n      0x00\n        /* \"#utility.yul\":1368:1392   */\n      tag_283\n        /* \"#utility.yul\":1386:1391   */\n      dup3\n        /* \"#utility.yul\":1368:1392   */\n      tag_225\n      jump\t// in\n    tag_283:\n        /* \"#utility.yul\":1357:1392   */\n      swap1\n      pop\n        /* \"#utility.yul\":1302:1398   */\n      swap2\n      swap1\n      pop\n      jump\t// out\n        /* \"#utility.yul\":1404:1526   */\n    tag_227:\n        /* \"#utility.yul\":1477:1501   */\n      tag_285\n        /* \"#utility.yul\":1495:1500   */\n      dup2\n        /* \"#utility.yul\":1477:1501   */\n      tag_226\n      jump\t// in\n    tag_285:\n        /* \"#utility.yul\":1470:1475   */\n      dup2\n        /* \"#utility.yul\":1467:1502   */\n      eq\n        /* \"#utility.yul\":1457:1520   */\n      tag_286\n      jumpi\n        /* \"#utility.yul\":1516:1517   */\n      0x00\n        /* \"#utility.yul\":1513:1514   */\n      dup1\n        /* \"#utility.yul\":1506:1518   */\n      revert\n        /* \"#utility.yul\":1457:1520   */\n    tag_286:\n        /* \"#utility.yul\":1404:1526   */\n      pop\n      jump\t// out\n        /* \"#utility.yul\":1532:1671   */\n    tag_228:\n        /* \"#utility.yul\":1578:1583   */\n      0x00\n        /* \"#utility.yul\":1616:1622   */\n      dup2\n        /* \"#utility.yul\":1603:1623   */\n      calldataload\n        /* \"#utility.yul\":1594:1623   */\n      swap1\n      pop\n        /* \"#utility.yul\":1632:1665   */\n      tag_288\n        /* \"#utility.yul\":1659:1664   */\n      dup2\n        /* \"#utility.yul\":1632:1665   */\n      tag_227\n      jump\t// in\n    tag_288:\n        /* \"#utility.yul\":1532:1671   */\n      swap3\n      swap2\n      pop\n      pop\n      jump\t// out\n        /* \"#utility.yul\":1677:1794   */\n    tag_229:\n        /* \"#utility.yul\":1786:1787   */\n      0x00\n        /* \"#utility.yul\":1783:1784   */\n      dup1\n        /* \"#utility.yul\":1776:1788   */\n      revert\n        /* \"#utility.yul\":1800:1917   */\n    tag_230:\n        /* \"#utility.yul\":1909:1910   */\n      0x00\n        /* \"#utility.yul\":1906:1907   */\n      dup1\n        /* \"#utility.yul\":1899:1911   */\n      revert\n        /* \"#utility.yul\":1923:2040   */\n    tag_231:\n        /* \"#utility.yul\":2032:2033   */\n      0x00\n        /* \"#utility.yul\":2029:2030   */\n      dup1\n        /* \"#utility.yul\":2022:2034   */\n      revert\n        /* \"#utility.yul\":2059:2611   */\n    tag_232:\n        /* \"#utility.yul\":2116:2124   */\n      0x00\n        /* \"#utility.yul\":2126:2132   */\n      dup1\n        /* \"#utility.yul\":2176:2179   */\n      dup4\n        /* \"#utility.yul\":2169:2173   */\n      0x1f\n        /* \"#utility.yul\":2161:2167   */\n      dup5\n        /* \"#utility.yul\":2157:2174   */\n      add\n        /* \"#utility.yul\":2153:2180   */\n      slt\n        /* \"#utility.yul\":2143:2265   */\n      tag_293\n      jumpi\n        /* \"#utility.yul\":2184:2263   */\n      tag_294\n      tag_229\n      jump\t// in\n    tag_294:\n        /* \"#utility.yul\":2143:2265   */\n    tag_293:\n        /* \"#utility.yul\":2297:2303   */\n      dup3\n        /* \"#utility.yul\":2284:2304   */\n      calldataload\n        /* \"#utility.yul\":2274:2304   */\n      swap1\n      pop\n        /* \"#utility.yul\":2327:2345   */\n      0xffffffffffffffff\n        /* \"#utility.yul\":2319:2325   */\n      dup2\n        /* \"#utility.yul\":2316:2346   */\n      gt\n        /* \"#utility.yul\":2313:2430   */\n      iszero\n      tag_295\n      jumpi\n        /* \"#utility.yul\":2349:2428   */\n      tag_296\n      tag_230\n      jump\t// in\n    tag_296:\n        /* \"#utility.yul\":2313:2430   */\n    tag_295:\n        /* \"#utility.yul\":2463:2467   */\n      0x20\n        /* \"#utility.yul\":2455:2461   */\n      dup4\n        /* \"#utility.yul\":2451:2468   */\n      add\n        /* \"#utility.yul\":2439:2468   */\n      swap2\n      pop\n        /* \"#utility.yul\":2517:2520   */\n      dup4\n        /* \"#utility.yul\":2509:2513   */\n      0x01\n        /* \"#utility.yul\":2501:2507   */\n      dup3\n        /* \"#utility.yul\":2497:2514   */\n      mul\n        /* \"#utility.yul\":2487:2495   */\n      dup4\n        /* \"#utility.yul\":2483:2515   */\n      add\n        /* \"#utility.yul\":2480:2521   */\n      gt\n        /* \"#utility.yul\":2477:2605   */\n      iszero\n      tag_297\n      jumpi\n        /* \"#utility.yul\":2524:2603   */\n      tag_298\n      tag_231\n      jump\t// in\n    tag_298:\n        /* \"#utility.yul\":2477:2605   */\n    tag_297:\n        /* \"#utility.yul\":2059:2611   */\n      swap3\n      pop\n      swap3\n      swap1\n      pop\n      jump\t// out\n        /* \"#utility.yul\":2617:3580   */\n    tag_15:\n        /* \"#utility.yul\":2714:2720   */\n      0x00\n        /* \"#utility.yul\":2722:2728   */\n      dup1\n        /* \"#utility.yul\":2730:2736   */\n      0x00\n        /* \"#utility.yul\":2738:2744   */\n      dup1\n        /* \"#utility.yul\":2746:2752   */\n      0x00\n        /* \"#utility.yul\":2795:2798   */\n      0x80\n        /* \"#utility.yul\":2783:2792   */\n      dup7\n        /* \"#utility.yul\":2774:2781   */\n      dup9\n        /* \"#utility.yul\":2770:2793   */\n      sub\n        /* \"#utility.yul\":2766:2799   */\n      slt\n        /* \"#utility.yul\":2763:2883   */\n      iszero\n      tag_300\n      jumpi\n        /* \"#utility.yul\":2802:2881   */\n      tag_301\n      tag_220\n      jump\t// in\n    tag_301:\n        /* \"#utility.yul\":2763:2883   */\n    tag_300:\n        /* \"#utility.yul\":2922:2923   */\n      0x00\n        /* \"#utility.yul\":2947:3000   */\n      tag_302\n        /* \"#utility.yul\":2992:2999   */\n      dup9\n        /* \"#utility.yul\":2983:2989   */\n      dup3\n        /* \"#utility.yul\":2972:2981   */\n      dup10\n        /* \"#utility.yul\":2968:2990   */\n      add\n        /* \"#utility.yul\":2947:3000   */\n      tag_228\n      jump\t// in\n    tag_302:\n        /* \"#utility.yul\":2937:3000   */\n      swap6\n      pop\n        /* \"#utility.yul\":2893:3010   */\n      pop\n        /* \"#utility.yul\":3049:3051   */\n      0x20\n        /* \"#utility.yul\":3075:3128   */\n      tag_303\n        /* \"#utility.yul\":3120:3127   */\n      dup9\n        /* \"#utility.yul\":3111:3117   */\n      dup3\n        /* \"#utility.yul\":3100:3109   */\n      dup10\n        /* \"#utility.yul\":3096:3118   */\n      add\n        /* \"#utility.yul\":3075:3128   */\n      tag_228\n      jump\t// in\n    tag_303:\n        /* \"#utility.yul\":3065:3128   */\n      swap5\n      pop\n        /* \"#utility.yul\":3020:3138   */\n      pop\n        /* \"#utility.yul\":3177:3179   */\n      0x40\n        /* \"#utility.yul\":3203:3256   */\n      tag_304\n        /* \"#utility.yul\":3248:3255   */\n      dup9\n        /* \"#utility.yul\":3239:3245   */\n      dup3\n        /* \"#utility.yul\":3228:3237   */\n      dup10\n        /* \"#utility.yul\":3224:3246   */\n      add\n        /* \"#utility.yul\":3203:3256   */\n      tag_224\n      jump\t// in\n    tag_304:\n        /* \"#utility.yul\":3193:3256   */\n      swap4\n      pop\n        /* \"#utility.yul\":3148:3266   */\n      pop\n        /* \"#utility.yul\":3333:3335   */\n      0x60\n        /* \"#utility.yul\":3322:3331   */\n      dup7\n        /* \"#utility.yul\":3318:3336   */\n      add\n        /* \"#utility.yul\":3305:3337   */\n      calldataload\n        /* \"#utility.yul\":3364:3382   */\n      0xffffffffffffffff\n        /* \"#utility.yul\":3356:3362   */\n      dup2\n        /* \"#utility.yul\":3353:3383   */\n      gt\n        /* \"#utility.yul\":3350:3467   */\n      iszero\n      tag_305\n      jumpi\n        /* \"#utility.yul\":3386:3465   */\n      tag_306\n      tag_221\n      jump\t// in\n    tag_306:\n        /* \"#utility.yul\":3350:3467   */\n    tag_305:\n        /* \"#utility.yul\":3499:3563   */\n      tag_307\n        /* \"#utility.yul\":3555:3562   */\n      dup9\n        /* \"#utility.yul\":3546:3552   */\n      dup3\n        /* \"#utility.yul\":3535:3544   */\n      dup10\n        /* \"#utility.yul\":3531:3553   */\n      add\n        /* \"#utility.yul\":3499:3563   */\n      tag_232\n      jump\t// in\n    tag_307:\n        /* \"#utility.yul\":3481:3563   */\n      swap3\n      pop\n      swap3\n      pop\n        /* \"#utility.yul\":3276:3573   */\n      pop\n        /* \"#utility.yul\":2617:3580   */\n      swap3\n      swap6\n      pop\n      swap3\n      swap6\n      swap1\n      swap4\n      pop\n      jump\t// out\n        /* \"#utility.yul\":3586:3735   */\n    tag_233:\n        /* \"#utility.yul\":3622:3629   */\n      0x00\n        /* \"#utility.yul\":3662:3728   */\n      0xffffffff00000000000000000000000000000000000000000000000000000000\n        /* \"#utility.yul\":3655:3660   */\n      dup3\n        /* \"#utility.yul\":3651:3729   */\n      and\n        /* \"#utility.yul\":3640:3729   */\n      swap1\n      pop\n        /* \"#utility.yul\":3586:3735   */\n      swap2\n      swap1\n      pop\n      jump\t// out\n        /* \"#utility.yul\":3741:3856   */\n    tag_234:\n        /* \"#utility.yul\":3826:3849   */\n      tag_310\n        /* \"#utility.yul\":3843:3848   */\n      dup2\n        /* \"#utility.yul\":3826:3849   */\n      tag_233\n      jump\t// in\n    tag_310:\n        /* \"#utility.yul\":3821:3824   */\n      dup3\n        /* \"#utility.yul\":3814:3850   */\n      mstore\n        /* \"#utility.yul\":3741:3856   */\n      pop\n      pop\n      jump\t// out\n        /* \"#utility.yul\":3862:4080   */\n    tag_18:\n        /* \"#utility.yul\":3953:3957   */\n      0x00\n        /* \"#utility.yul\":3991:3993   */\n      0x20\n        /* \"#utility.yul\":3980:3989   */\n      dup3\n        /* \"#utility.yul\":3976:3994   */\n      add\n        /* \"#utility.yul\":3968:3994   */\n      swap1\n      pop\n        /* \"#utility.yul\":4004:4073   */\n      tag_312\n        /* \"#utility.yul\":4070:4071   */\n      0x00\n        /* \"#utility.yul\":4059:4068   */\n      dup4\n        /* \"#utility.yul\":4055:4072   */\n      add\n        /* \"#utility.yul\":4046:4052   */\n      dup5\n        /* \"#utility.yul\":4004:4073   */\n      tag_234\n      jump\t// in\n    tag_312:\n        /* \"#utility.yul\":3862:4080   */\n      swap3\n      swap2\n      pop\n      pop\n      jump\t// out\n        /* \"#utility.yul\":4086:4204   */\n    tag_235:\n        /* \"#utility.yul\":4173:4197   */\n      tag_314\n        /* \"#utility.yul\":4191:4196   */\n      dup2\n        /* \"#utility.yul\":4173:4197   */\n      tag_226\n      jump\t// in\n    tag_314:\n        /* \"#utility.yul\":4168:4171   */\n      dup3\n        /* \"#utility.yul\":4161:4198   */\n      mstore\n        /* \"#utility.yul\":4086:4204   */\n      pop\n      pop\n      jump\t// out\n        /* \"#utility.yul\":4210:4432   */\n    tag_27:\n        /* \"#utility.yul\":4303:4307   */\n      0x00\n        /* \"#utility.yul\":4341:4343   */\n      0x20\n        /* \"#utility.yul\":4330:4339   */\n      dup3\n        /* \"#utility.yul\":4326:4344   */\n      add\n        /* \"#utility.yul\":4318:4344   */\n      swap1\n      pop\n        /* \"#utility.yul\":4354:4425   */\n      tag_316\n        /* \"#utility.yul\":4422:4423   */\n      0x00\n        /* \"#utility.yul\":4411:4420   */\n      dup4\n        /* \"#utility.yul\":4407:4424   */\n      add\n        /* \"#utility.yul\":4398:4404   */\n      dup5\n        /* \"#utility.yul\":4354:4425   */\n      tag_235\n      jump\t// in\n    tag_316:\n        /* \"#utility.yul\":4210:4432   */\n      swap3\n      swap2\n      pop\n      pop\n      jump\t// out\n        /* \"#utility.yul\":4438:4767   */\n    tag_30:\n        /* \"#utility.yul\":4497:4503   */\n      0x00\n        /* \"#utility.yul\":4546:4548   */\n      0x20\n        /* \"#utility.yul\":4534:4543   */\n      dup3\n        /* \"#utility.yul\":4525:4532   */\n      dup5\n        /* \"#utility.yul\":4521:4544   */\n      sub\n        /* \"#utility.yul\":4517:4549   */\n      slt\n        /* \"#utility.yul\":4514:4633   */\n      iszero\n      tag_318\n      jumpi\n        /* \"#utility.yul\":4552:4631   */\n      tag_319\n      tag_220\n      jump\t// in\n    tag_319:\n        /* \"#utility.yul\":4514:4633   */\n    tag_318:\n        /* \"#utility.yul\":4672:4673   */\n      0x00\n        /* \"#utility.yul\":4697:4750   */\n      tag_320\n        /* \"#utility.yul\":4742:4749   */\n      dup5\n        /* \"#utility.yul\":4733:4739   */\n      dup3\n        /* \"#utility.yul\":4722:4731   */\n      dup6\n        /* \"#utility.yul\":4718:4740   */\n      add\n        /* \"#utility.yul\":4697:4750   */\n      tag_228\n      jump\t// in\n    tag_320:\n        /* \"#utility.yul\":4687:4750   */\n      swap2\n      pop\n        /* \"#utility.yul\":4643:4760   */\n      pop\n        /* \"#utility.yul\":4438:4767   */\n      swap3\n      swap2\n      pop\n      pop\n      jump\t// out\n        /* \"#utility.yul\":4773:4942   */\n    tag_236:\n        /* \"#utility.yul\":4857:4868   */\n      0x00\n        /* \"#utility.yul\":4891:4897   */\n      dup3\n        /* \"#utility.yul\":4886:4889   */\n      dup3\n        /* \"#utility.yul\":4879:4898   */\n      mstore\n        /* \"#utility.yul\":4931:4935   */\n      0x20\n        /* \"#utility.yul\":4926:4929   */\n      dup3\n        /* \"#utility.yul\":4922:4936   */\n      add\n        /* \"#utility.yul\":4907:4936   */\n      swap1\n      pop\n        /* \"#utility.yul\":4773:4942   */\n      swap3\n      swap2\n      pop\n      pop\n      jump\t// out\n        /* \"#utility.yul\":4948:5188   */\n    tag_237:\n        /* \"#utility.yul\":5088:5122   */\n      0x42414e4b204d414e414745523a205269676874204944277320626f756e642069\n        /* \"#utility.yul\":5084:5085   */\n      0x00\n        /* \"#utility.yul\":5076:5082   */\n      dup3\n        /* \"#utility.yul\":5072:5086   */\n      add\n        /* \"#utility.yul\":5065:5123   */\n      mstore\n        /* \"#utility.yul\":5157:5180   */\n      0x73206c657373207468616e206c656674206f6e652e0000000000000000000000\n        /* \"#utility.yul\":5152:5154   */\n      0x20\n        /* \"#utility.yul\":5144:5150   */\n      dup3\n        /* \"#utility.yul\":5140:5155   */\n      add\n        /* \"#utility.yul\":5133:5181   */\n      mstore\n        /* \"#utility.yul\":4948:5188   */\n      pop\n      jump\t// out\n        /* \"#utility.yul\":5194:5560   */\n    tag_238:\n        /* \"#utility.yul\":5336:5339   */\n      0x00\n        /* \"#utility.yul\":5357:5424   */\n      tag_324\n        /* \"#utility.yul\":5421:5423   */\n      0x35\n        /* \"#utility.yul\":5416:5419   */\n      dup4\n        /* \"#utility.yul\":5357:5424   */\n      tag_236\n      jump\t// in\n    tag_324:\n        /* \"#utility.yul\":5350:5424   */\n      swap2\n      pop\n        /* \"#utility.yul\":5433:5526   */\n      tag_325\n        /* \"#utility.yul\":5522:5525   */\n      dup3\n        /* \"#utility.yul\":5433:5526   */\n      tag_237\n      jump\t// in\n    tag_325:\n        /* \"#utility.yul\":5551:5553   */\n      0x40\n        /* \"#utility.yul\":5546:5549   */\n      dup3\n        /* \"#utility.yul\":5542:5554   */\n      add\n        /* \"#utility.yul\":5535:5554   */\n      swap1\n      pop\n        /* \"#utility.yul\":5194:5560   */\n      swap2\n      swap1\n      pop\n      jump\t// out\n        /* \"#utility.yul\":5566:5985   */\n    tag_35:\n        /* \"#utility.yul\":5732:5736   */\n      0x00\n        /* \"#utility.yul\":5770:5772   */\n      0x20\n        /* \"#utility.yul\":5759:5768   */\n      dup3\n        /* \"#utility.yul\":5755:5773   */\n      add\n        /* \"#utility.yul\":5747:5773   */\n      swap1\n      pop\n        /* \"#utility.yul\":5819:5828   */\n      dup2\n        /* \"#utility.yul\":5813:5817   */\n      dup2\n        /* \"#utility.yul\":5809:5829   */\n      sub\n        /* \"#utility.yul\":5805:5806   */\n      0x00\n        /* \"#utility.yul\":5794:5803   */\n      dup4\n        /* \"#utility.yul\":5790:5807   */\n      add\n        /* \"#utility.yul\":5783:5830   */\n      mstore\n        /* \"#utility.yul\":5847:5978   */\n      tag_327\n        /* \"#utility.yul\":5973:5977   */\n      dup2\n        /* \"#utility.yul\":5847:5978   */\n      tag_238\n      jump\t// in\n    tag_327:\n        /* \"#utility.yul\":5839:5978   */\n      swap1\n      pop\n        /* \"#utility.yul\":5566:5985   */\n      swap2\n      swap1\n      pop\n      jump\t// out\n        /* \"#utility.yul\":5991:6109   */\n    tag_239:\n        /* \"#utility.yul\":6078:6102   */\n      tag_329\n        /* \"#utility.yul\":6096:6101   */\n      dup2\n        /* \"#utility.yul\":6078:6102   */\n      tag_222\n      jump\t// in\n    tag_329:\n        /* \"#utility.yul\":6073:6076   */\n      dup3\n        /* \"#utility.yul\":6066:6103   */\n      mstore\n        /* \"#utility.yul\":5991:6109   */\n      pop\n      pop\n      jump\t// out\n        /* \"#utility.yul\":6115:6337   */\n    tag_40:\n        /* \"#utility.yul\":6208:6212   */\n      0x00\n        /* \"#utility.yul\":6246:6248   */\n      0x20\n        /* \"#utility.yul\":6235:6244   */\n      dup3\n        /* \"#utility.yul\":6231:6249   */\n      add\n        /* \"#utility.yul\":6223:6249   */\n      swap1\n      pop\n        /* \"#utility.yul\":6259:6330   */\n      tag_331\n        /* \"#utility.yul\":6327:6328   */\n      0x00\n        /* \"#utility.yul\":6316:6325   */\n      dup4\n        /* \"#utility.yul\":6312:6329   */\n      add\n        /* \"#utility.yul\":6303:6309   */\n      dup5\n        /* \"#utility.yul\":6259:6330   */\n      tag_239\n      jump\t// in\n    tag_331:\n        /* \"#utility.yul\":6115:6337   */\n      swap3\n      swap2\n      pop\n      pop\n      jump\t// out\n        /* \"#utility.yul\":6343:6486   */\n    tag_240:\n        /* \"#utility.yul\":6400:6405   */\n      0x00\n        /* \"#utility.yul\":6431:6437   */\n      dup2\n        /* \"#utility.yul\":6425:6438   */\n      mload\n        /* \"#utility.yul\":6416:6438   */\n      swap1\n      pop\n        /* \"#utility.yul\":6447:6480   */\n      tag_333\n        /* \"#utility.yul\":6474:6479   */\n      dup2\n        /* \"#utility.yul\":6447:6480   */\n      tag_223\n      jump\t// in\n    tag_333:\n        /* \"#utility.yul\":6343:6486   */\n      swap3\n      swap2\n      pop\n      pop\n      jump\t// out\n        /* \"#utility.yul\":6492:6843   */\n    tag_44:\n        /* \"#utility.yul\":6562:6568   */\n      0x00\n        /* \"#utility.yul\":6611:6613   */\n      0x20\n        /* \"#utility.yul\":6599:6608   */\n      dup3\n        /* \"#utility.yul\":6590:6597   */\n      dup5\n        /* \"#utility.yul\":6586:6609   */\n      sub\n        /* \"#utility.yul\":6582:6614   */\n      slt\n        /* \"#utility.yul\":6579:6698   */\n      iszero\n      tag_335\n      jumpi\n        /* \"#utility.yul\":6617:6696   */\n      tag_336\n      tag_220\n      jump\t// in\n    tag_336:\n        /* \"#utility.yul\":6579:6698   */\n    tag_335:\n        /* \"#utility.yul\":6737:6738   */\n      0x00\n        /* \"#utility.yul\":6762:6826   */\n      tag_337\n        /* \"#utility.yul\":6818:6825   */\n      dup5\n        /* \"#utility.yul\":6809:6815   */\n      dup3\n        /* \"#utility.yul\":6798:6807   */\n      dup6\n        /* \"#utility.yul\":6794:6816   */\n      add\n        /* \"#utility.yul\":6762:6826   */\n      tag_240\n      jump\t// in\n    tag_337:\n        /* \"#utility.yul\":6752:6826   */\n      swap2\n      pop\n        /* \"#utility.yul\":6708:6836   */\n      pop\n        /* \"#utility.yul\":6492:6843   */\n      swap3\n      swap2\n      pop\n      pop\n      jump\t// out\n        /* \"#utility.yul\":6849:7029   */\n    tag_241:\n        /* \"#utility.yul\":6897:6974   */\n      0x4e487b7100000000000000000000000000000000000000000000000000000000\n        /* \"#utility.yul\":6894:6895   */\n      0x00\n        /* \"#utility.yul\":6887:6975   */\n      mstore\n        /* \"#utility.yul\":6994:6998   */\n      0x11\n        /* \"#utility.yul\":6991:6992   */\n      0x04\n        /* \"#utility.yul\":6984:6999   */\n      mstore\n        /* \"#utility.yul\":7018:7022   */\n      0x24\n        /* \"#utility.yul\":7015:7016   */\n      0x00\n        /* \"#utility.yul\":7008:7023   */\n      revert\n        /* \"#utility.yul\":7035:7226   */\n    tag_46:\n        /* \"#utility.yul\":7075:7078   */\n      0x00\n        /* \"#utility.yul\":7094:7114   */\n      tag_340\n        /* \"#utility.yul\":7112:7113   */\n      dup3\n        /* \"#utility.yul\":7094:7114   */\n      tag_222\n      jump\t// in\n    tag_340:\n        /* \"#utility.yul\":7089:7114   */\n      swap2\n      pop\n        /* \"#utility.yul\":7128:7148   */\n      tag_341\n        /* \"#utility.yul\":7146:7147   */\n      dup4\n        /* \"#utility.yul\":7128:7148   */\n      tag_222\n      jump\t// in\n    tag_341:\n        /* \"#utility.yul\":7123:7148   */\n      swap3\n      pop\n        /* \"#utility.yul\":7171:7172   */\n      dup3\n        /* \"#utility.yul\":7168:7169   */\n      dup3\n        /* \"#utility.yul\":7164:7173   */\n      add\n        /* \"#utility.yul\":7157:7173   */\n      swap1\n      pop\n        /* \"#utility.yul\":7192:7195   */\n      dup1\n        /* \"#utility.yul\":7189:7190   */\n      dup3\n        /* \"#utility.yul\":7186:7196   */\n      gt\n        /* \"#utility.yul\":7183:7219   */\n      iszero\n      tag_342\n      jumpi\n        /* \"#utility.yul\":7199:7217   */\n      tag_343\n      tag_241\n      jump\t// in\n    tag_343:\n        /* \"#utility.yul\":7183:7219   */\n    tag_342:\n        /* \"#utility.yul\":7035:7226   */\n      swap3\n      swap2\n      pop\n      pop\n      jump\t// out\n        /* \"#utility.yul\":7232:7375   */\n    tag_242:\n        /* \"#utility.yul\":7289:7294   */\n      0x00\n        /* \"#utility.yul\":7320:7326   */\n      dup2\n        /* \"#utility.yul\":7314:7327   */\n      mload\n        /* \"#utility.yul\":7305:7327   */\n      swap1\n      pop\n        /* \"#utility.yul\":7336:7369   */\n      tag_345\n        /* \"#utility.yul\":7363:7368   */\n      dup2\n        /* \"#utility.yul\":7336:7369   */\n      tag_227\n      jump\t// in\n    tag_345:\n        /* \"#utility.yul\":7232:7375   */\n      swap3\n      swap2\n      pop\n      pop\n      jump\t// out\n        /* \"#utility.yul\":7381:7732   */\n    tag_51:\n        /* \"#utility.yul\":7451:7457   */\n      0x00\n        /* \"#utility.yul\":7500:7502   */\n      0x20\n        /* \"#utility.yul\":7488:7497   */\n      dup3\n        /* \"#utility.yul\":7479:7486   */\n      dup5\n        /* \"#utility.yul\":7475:7498   */\n      sub\n        /* \"#utility.yul\":7471:7503   */\n      slt\n        /* \"#utility.yul\":7468:7587   */\n      iszero\n      tag_347\n      jumpi\n        /* \"#utility.yul\":7506:7585   */\n      tag_348\n      tag_220\n      jump\t// in\n    tag_348:\n        /* \"#utility.yul\":7468:7587   */\n    tag_347:\n        /* \"#utility.yul\":7626:7627   */\n      0x00\n        /* \"#utility.yul\":7651:7715   */\n      tag_349\n        /* \"#utility.yul\":7707:7714   */\n      dup5\n        /* \"#utility.yul\":7698:7704   */\n      dup3\n        /* \"#utility.yul\":7687:7696   */\n      dup6\n        /* \"#utility.yul\":7683:7705   */\n      add\n        /* \"#utility.yul\":7651:7715   */\n      tag_242\n      jump\t// in\n    tag_349:\n        /* \"#utility.yul\":7641:7715   */\n      swap2\n      pop\n        /* \"#utility.yul\":7597:7725   */\n      pop\n        /* \"#utility.yul\":7381:7732   */\n      swap3\n      swap2\n      pop\n      pop\n      jump\t// out\n        /* \"#utility.yul\":7738:7886   */\n    tag_243:\n        /* \"#utility.yul\":7840:7851   */\n      0x00\n        /* \"#utility.yul\":7877:7880   */\n      dup2\n        /* \"#utility.yul\":7862:7880   */\n      swap1\n      pop\n        /* \"#utility.yul\":7738:7886   */\n      swap3\n      swap2\n      pop\n      pop\n      jump\t// out\n        /* \"#utility.yul\":7892:8127   */\n    tag_244:\n        /* \"#utility.yul\":8032:8066   */\n      0x42544f543a205573657220616c726561647920697320616e206f776e6572206f\n        /* \"#utility.yul\":8028:8029   */\n      0x00\n        /* \"#utility.yul\":8020:8026   */\n      dup3\n        /* \"#utility.yul\":8016:8030   */\n      add\n        /* \"#utility.yul\":8009:8067   */\n      mstore\n        /* \"#utility.yul\":8101:8119   */\n      0x6620746f6b656e20776974682049442000000000000000000000000000000000\n        /* \"#utility.yul\":8096:8098   */\n      0x20\n        /* \"#utility.yul\":8088:8094   */\n      dup3\n        /* \"#utility.yul\":8084:8099   */\n      add\n        /* \"#utility.yul\":8077:8120   */\n      mstore\n        /* \"#utility.yul\":7892:8127   */\n      pop\n      jump\t// out\n        /* \"#utility.yul\":8133:8535   */\n    tag_245:\n        /* \"#utility.yul\":8293:8296   */\n      0x00\n        /* \"#utility.yul\":8314:8399   */\n      tag_353\n        /* \"#utility.yul\":8396:8398   */\n      0x30\n        /* \"#utility.yul\":8391:8394   */\n      dup4\n        /* \"#utility.yul\":8314:8399   */\n      tag_243\n      jump\t// in\n    tag_353:\n        /* \"#utility.yul\":8307:8399   */\n      swap2\n      pop\n        /* \"#utility.yul\":8408:8501   */\n      tag_354\n        /* \"#utility.yul\":8497:8500   */\n      dup3\n        /* \"#utility.yul\":8408:8501   */\n      tag_244\n      jump\t// in\n    tag_354:\n        /* \"#utility.yul\":8526:8528   */\n      0x30\n        /* \"#utility.yul\":8521:8524   */\n      dup3\n        /* \"#utility.yul\":8517:8529   */\n      add\n        /* \"#utility.yul\":8510:8529   */\n      swap1\n      pop\n        /* \"#utility.yul\":8133:8535   */\n      swap2\n      swap1\n      pop\n      jump\t// out\n        /* \"#utility.yul\":8541:8640   */\n    tag_246:\n        /* \"#utility.yul\":8593:8599   */\n      0x00\n        /* \"#utility.yul\":8627:8632   */\n      dup2\n        /* \"#utility.yul\":8621:8633   */\n      mload\n        /* \"#utility.yul\":8611:8633   */\n      swap1\n      pop\n        /* \"#utility.yul\":8541:8640   */\n      swap2\n      swap1\n      pop\n      jump\t// out\n        /* \"#utility.yul\":8646:8892   */\n    tag_247:\n        /* \"#utility.yul\":8727:8728   */\n      0x00\n        /* \"#utility.yul\":8737:8850   */\n    tag_357:\n        /* \"#utility.yul\":8751:8757   */\n      dup4\n        /* \"#utility.yul\":8748:8749   */\n      dup2\n        /* \"#utility.yul\":8745:8758   */\n      lt\n        /* \"#utility.yul\":8737:8850   */\n      iszero\n      tag_359\n      jumpi\n        /* \"#utility.yul\":8836:8837   */\n      dup1\n        /* \"#utility.yul\":8831:8834   */\n      dup3\n        /* \"#utility.yul\":8827:8838   */\n      add\n        /* \"#utility.yul\":8821:8839   */\n      mload\n        /* \"#utility.yul\":8817:8818   */\n      dup2\n        /* \"#utility.yul\":8812:8815   */\n      dup5\n        /* \"#utility.yul\":8808:8819   */\n      add\n        /* \"#utility.yul\":8801:8840   */\n      mstore\n        /* \"#utility.yul\":8773:8775   */\n      0x20\n        /* \"#utility.yul\":8770:8771   */\n      dup2\n        /* \"#utility.yul\":8766:8776   */\n      add\n        /* \"#utility.yul\":8761:8776   */\n      swap1\n      pop\n        /* \"#utility.yul\":8737:8850   */\n      jump(tag_357)\n    tag_359:\n        /* \"#utility.yul\":8884:8885   */\n      0x00\n        /* \"#utility.yul\":8875:8881   */\n      dup5\n        /* \"#utility.yul\":8870:8873   */\n      dup5\n        /* \"#utility.yul\":8866:8882   */\n      add\n        /* \"#utility.yul\":8859:8886   */\n      mstore\n        /* \"#utility.yul\":8708:8892   */\n      pop\n        /* \"#utility.yul\":8646:8892   */\n      pop\n      pop\n      pop\n      jump\t// out\n        /* \"#utility.yul\":8898:9288   */\n    tag_248:\n        /* \"#utility.yul\":9004:9007   */\n      0x00\n        /* \"#utility.yul\":9032:9071   */\n      tag_361\n        /* \"#utility.yul\":9065:9070   */\n      dup3\n        /* \"#utility.yul\":9032:9071   */\n      tag_246\n      jump\t// in\n    tag_361:\n        /* \"#utility.yul\":9087:9176   */\n      tag_362\n        /* \"#utility.yul\":9169:9175   */\n      dup2\n        /* \"#utility.yul\":9164:9167   */\n      dup6\n        /* \"#utility.yul\":9087:9176   */\n      tag_243\n      jump\t// in\n    tag_362:\n        /* \"#utility.yul\":9080:9176   */\n      swap4\n      pop\n        /* \"#utility.yul\":9185:9250   */\n      tag_363\n        /* \"#utility.yul\":9243:9249   */\n      dup2\n        /* \"#utility.yul\":9238:9241   */\n      dup6\n        /* \"#utility.yul\":9231:9235   */\n      0x20\n        /* \"#utility.yul\":9224:9229   */\n      dup7\n        /* \"#utility.yul\":9220:9236   */\n      add\n        /* \"#utility.yul\":9185:9250   */\n      tag_247\n      jump\t// in\n    tag_363:\n        /* \"#utility.yul\":9275:9281   */\n      dup1\n        /* \"#utility.yul\":9270:9273   */\n      dup5\n        /* \"#utility.yul\":9266:9282   */\n      add\n        /* \"#utility.yul\":9259:9282   */\n      swap2\n      pop\n        /* \"#utility.yul\":9008:9288   */\n      pop\n        /* \"#utility.yul\":8898:9288   */\n      swap3\n      swap2\n      pop\n      pop\n      jump\t// out\n        /* \"#utility.yul\":9294:9445   */\n    tag_249:\n        /* \"#utility.yul\":9434:9437   */\n      0x2e00000000000000000000000000000000000000000000000000000000000000\n        /* \"#utility.yul\":9430:9431   */\n      0x00\n        /* \"#utility.yul\":9422:9428   */\n      dup3\n        /* \"#utility.yul\":9418:9432   */\n      add\n        /* \"#utility.yul\":9411:9438   */\n      mstore\n        /* \"#utility.yul\":9294:9445   */\n      pop\n      jump\t// out\n        /* \"#utility.yul\":9451:9851   */\n    tag_250:\n        /* \"#utility.yul\":9611:9614   */\n      0x00\n        /* \"#utility.yul\":9632:9716   */\n      tag_366\n        /* \"#utility.yul\":9714:9715   */\n      0x01\n        /* \"#utility.yul\":9709:9712   */\n      dup4\n        /* \"#utility.yul\":9632:9716   */\n      tag_243\n      jump\t// in\n    tag_366:\n        /* \"#utility.yul\":9625:9716   */\n      swap2\n      pop\n        /* \"#utility.yul\":9725:9818   */\n      tag_367\n        /* \"#utility.yul\":9814:9817   */\n      dup3\n        /* \"#utility.yul\":9725:9818   */\n      tag_249\n      jump\t// in\n    tag_367:\n        /* \"#utility.yul\":9843:9844   */\n      0x01\n        /* \"#utility.yul\":9838:9841   */\n      dup3\n        /* \"#utility.yul\":9834:9845   */\n      add\n        /* \"#utility.yul\":9827:9845   */\n      swap1\n      pop\n        /* \"#utility.yul\":9451:9851   */\n      swap2\n      swap1\n      pop\n      jump\t// out\n        /* \"#utility.yul\":9857:10664   */\n    tag_55:\n        /* \"#utility.yul\":10191:10194   */\n      0x00\n        /* \"#utility.yul\":10213:10361   */\n      tag_369\n        /* \"#utility.yul\":10357:10360   */\n      dup3\n        /* \"#utility.yul\":10213:10361   */\n      tag_245\n      jump\t// in\n    tag_369:\n        /* \"#utility.yul\":10206:10361   */\n      swap2\n      pop\n        /* \"#utility.yul\":10378:10473   */\n      tag_370\n        /* \"#utility.yul\":10469:10472   */\n      dup3\n        /* \"#utility.yul\":10460:10466   */\n      dup5\n        /* \"#utility.yul\":10378:10473   */\n      tag_248\n      jump\t// in\n    tag_370:\n        /* \"#utility.yul\":10371:10473   */\n      swap2\n      pop\n        /* \"#utility.yul\":10490:10638   */\n      tag_371\n        /* \"#utility.yul\":10634:10637   */\n      dup3\n        /* \"#utility.yul\":10490:10638   */\n      tag_250\n      jump\t// in\n    tag_371:\n        /* \"#utility.yul\":10483:10638   */\n      swap2\n      pop\n        /* \"#utility.yul\":10655:10658   */\n      dup2\n        /* \"#utility.yul\":10648:10658   */\n      swap1\n      pop\n        /* \"#utility.yul\":9857:10664   */\n      swap3\n      swap2\n      pop\n      pop\n      jump\t// out\n        /* \"#utility.yul\":10670:10772   */\n    tag_251:\n        /* \"#utility.yul\":10711:10717   */\n      0x00\n        /* \"#utility.yul\":10762:10764   */\n      0x1f\n        /* \"#utility.yul\":10758:10765   */\n      not\n        /* \"#utility.yul\":10753:10755   */\n      0x1f\n        /* \"#utility.yul\":10746:10751   */\n      dup4\n        /* \"#utility.yul\":10742:10756   */\n      add\n        /* \"#utility.yul\":10738:10766   */\n      and\n        /* \"#utility.yul\":10728:10766   */\n      swap1\n      pop\n        /* \"#utility.yul\":10670:10772   */\n      swap2\n      swap1\n      pop\n      jump\t// out\n        /* \"#utility.yul\":10778:11155   */\n    tag_252:\n        /* \"#utility.yul\":10866:10869   */\n      0x00\n        /* \"#utility.yul\":10894:10933   */\n      tag_374\n        /* \"#utility.yul\":10927:10932   */\n      dup3\n        /* \"#utility.yul\":10894:10933   */\n      tag_246\n      jump\t// in\n    tag_374:\n        /* \"#utility.yul\":10949:11020   */\n      tag_375\n        /* \"#utility.yul\":11013:11019   */\n      dup2\n        /* \"#utility.yul\":11008:11011   */\n      dup6\n        /* \"#utility.yul\":10949:11020   */\n      tag_236\n      jump\t// in\n    tag_375:\n        /* \"#utility.yul\":10942:11020   */\n      swap4\n      pop\n        /* \"#utility.yul\":11029:11094   */\n      tag_376\n        /* \"#utility.yul\":11087:11093   */\n      dup2\n        /* \"#utility.yul\":11082:11085   */\n      dup6\n        /* \"#utility.yul\":11075:11079   */\n      0x20\n        /* \"#utility.yul\":11068:11073   */\n      dup7\n        /* \"#utility.yul\":11064:11080   */\n      add\n        /* \"#utility.yul\":11029:11094   */\n      tag_247\n      jump\t// in\n    tag_376:\n        /* \"#utility.yul\":11119:11148   */\n      tag_377\n        /* \"#utility.yul\":11141:11147   */\n      dup2\n        /* \"#utility.yul\":11119:11148   */\n      tag_251\n      jump\t// in\n    tag_377:\n        /* \"#utility.yul\":11114:11117   */\n      dup5\n        /* \"#utility.yul\":11110:11149   */\n      add\n        /* \"#utility.yul\":11103:11149   */\n      swap2\n      pop\n        /* \"#utility.yul\":10870:11155   */\n      pop\n        /* \"#utility.yul\":10778:11155   */\n      swap3\n      swap2\n      pop\n      pop\n      jump\t// out\n        /* \"#utility.yul\":11161:11474   */\n    tag_58:\n        /* \"#utility.yul\":11274:11278   */\n      0x00\n        /* \"#utility.yul\":11312:11314   */\n      0x20\n        /* \"#utility.yul\":11301:11310   */\n      dup3\n        /* \"#utility.yul\":11297:11315   */\n      add\n        /* \"#utility.yul\":11289:11315   */\n      swap1\n      pop\n        /* \"#utility.yul\":11361:11370   */\n      dup2\n        /* \"#utility.yul\":11355:11359   */\n      dup2\n        /* \"#utility.yul\":11351:11371   */\n      sub\n        /* \"#utility.yul\":11347:11348   */\n      0x00\n        /* \"#utility.yul\":11336:11345   */\n      dup4\n        /* \"#utility.yul\":11332:11349   */\n      add\n        /* \"#utility.yul\":11325:11372   */\n      mstore\n        /* \"#utility.yul\":11389:11467   */\n      tag_379\n        /* \"#utility.yul\":11462:11466   */\n      dup2\n        /* \"#utility.yul\":11453:11459   */\n      dup5\n        /* \"#utility.yul\":11389:11467   */\n      tag_252\n      jump\t// in\n    tag_379:\n        /* \"#utility.yul\":11381:11467   */\n      swap1\n      pop\n        /* \"#utility.yul\":11161:11474   */\n      swap3\n      swap2\n      pop\n      pop\n      jump\t// out\n        /* \"#utility.yul\":11480:11713   */\n    tag_60:\n        /* \"#utility.yul\":11519:11522   */\n      0x00\n        /* \"#utility.yul\":11542:11566   */\n      tag_381\n        /* \"#utility.yul\":11560:11565   */\n      dup3\n        /* \"#utility.yul\":11542:11566   */\n      tag_222\n      jump\t// in\n    tag_381:\n        /* \"#utility.yul\":11533:11566   */\n      swap2\n      pop\n        /* \"#utility.yul\":11588:11654   */\n      0xffffffffffffffffffffffffffffffffffffffffffffffffffffffffffffffff\n        /* \"#utility.yul\":11581:11586   */\n      dup3\n        /* \"#utility.yul\":11578:11655   */\n      sub\n        /* \"#utility.yul\":11575:11678   */\n      tag_382\n      jumpi\n        /* \"#utility.yul\":11658:11676   */\n      tag_383\n      tag_241\n      jump\t// in\n    tag_383:\n        /* \"#utility.yul\":11575:11678   */\n    tag_382:\n        /* \"#utility.yul\":11705:11706   */\n      0x01\n        /* \"#utility.yul\":11698:11703   */\n      dup3\n        /* \"#utility.yul\":11694:11707   */\n      add\n        /* \"#utility.yul\":11687:11707   */\n      swap1\n      pop\n        /* \"#utility.yul\":11480:11713   */\n      swap2\n      swap1\n      pop\n      jump\t// out\n        /* \"#utility.yul\":11719:11942   */\n    tag_253:\n        /* \"#utility.yul\":11859:11893   */\n      0x42544f433a20496e73756666696369656e7420616d6f756e74206f6620746f6b\n        /* \"#utility.yul\":11855:11856   */\n      0x00\n        /* \"#utility.yul\":11847:11853   */\n      dup3\n        /* \"#utility.yul\":11843:11857   */\n      add\n        /* \"#utility.yul\":11836:11894   */\n      mstore\n        /* \"#utility.yul\":11928:11934   */\n      0x656e732e00000000000000000000000000000000000000000000000000000000\n        /* \"#utility.yul\":11923:11925   */\n      0x20\n        /* \"#utility.yul\":11915:11921   */\n      dup3\n        /* \"#utility.yul\":11911:11926   */\n      add\n        /* \"#utility.yul\":11904:11935   */\n      mstore\n        /* \"#utility.yul\":11719:11942   */\n      pop\n      jump\t// out\n        /* \"#utility.yul\":11948:12314   */\n    tag_254:\n        /* \"#utility.yul\":12090:12093   */\n      0x00\n        /* \"#utility.yul\":12111:12178   */\n      tag_386\n        /* \"#utility.yul\":12175:12177   */\n      0x24\n        /* \"#utility.yul\":12170:12173   */\n      dup4\n        /* \"#utility.yul\":12111:12178   */\n      tag_236\n      jump\t// in\n    tag_386:\n        /* \"#utility.yul\":12104:12178   */\n      swap2\n      pop\n        /* \"#utility.yul\":12187:12280   */\n      tag_387\n        /* \"#utility.yul\":12276:12279   */\n      dup3\n        /* \"#utility.yul\":12187:12280   */\n      tag_253\n      jump\t// in\n    tag_387:\n        /* \"#utility.yul\":12305:12307   */\n      0x40\n        /* \"#utility.yul\":12300:12303   */\n      dup3\n        /* \"#utility.yul\":12296:12308   */\n      add\n        /* \"#utility.yul\":12289:12308   */\n      swap1\n      pop\n        /* \"#utility.yul\":11948:12314   */\n      swap2\n      swap1\n      pop\n      jump\t// out\n        /* \"#utility.yul\":12320:12739   */\n    tag_67:\n        /* \"#utility.yul\":12486:12490   */\n      0x00\n        /* \"#utility.yul\":12524:12526   */\n      0x20\n        /* \"#utility.yul\":12513:12522   */\n      dup3\n        /* \"#utility.yul\":12509:12527   */\n      add\n        /* \"#utility.yul\":12501:12527   */\n      swap1\n      pop\n        /* \"#utility.yul\":12573:12582   */\n      dup2\n        /* \"#utility.yul\":12567:12571   */\n      dup2\n        /* \"#utility.yul\":12563:12583   */\n      sub\n        /* \"#utility.yul\":12559:12560   */\n      0x00\n        /* \"#utility.yul\":12548:12557   */\n      dup4\n        /* \"#utility.yul\":12544:12561   */\n      add\n        /* \"#utility.yul\":12537:12584   */\n      mstore\n        /* \"#utility.yul\":12601:12732   */\n      tag_389\n        /* \"#utility.yul\":12727:12731   */\n      dup2\n        /* \"#utility.yul\":12601:12732   */\n      tag_254\n      jump\t// in\n    tag_389:\n        /* \"#utility.yul\":12593:12732   */\n      swap1\n      pop\n        /* \"#utility.yul\":12320:12739   */\n      swap2\n      swap1\n      pop\n      jump\t// out\n        /* \"#utility.yul\":12745:13077   */\n    tag_69:\n        /* \"#utility.yul\":12866:12870   */\n      0x00\n        /* \"#utility.yul\":12904:12906   */\n      0x40\n        /* \"#utility.yul\":12893:12902   */\n      dup3\n        /* \"#utility.yul\":12889:12907   */\n      add\n        /* \"#utility.yul\":12881:12907   */\n      swap1\n      pop\n        /* \"#utility.yul\":12917:12988   */\n      tag_391\n        /* \"#utility.yul\":12985:12986   */\n      0x00\n        /* \"#utility.yul\":12974:12983   */\n      dup4\n        /* \"#utility.yul\":12970:12987   */\n      add\n        /* \"#utility.yul\":12961:12967   */\n      dup6\n        /* \"#utility.yul\":12917:12988   */\n      tag_235\n      jump\t// in\n    tag_391:\n        /* \"#utility.yul\":12998:13070   */\n      tag_392\n        /* \"#utility.yul\":13066:13068   */\n      0x20\n        /* \"#utility.yul\":13055:13064   */\n      dup4\n        /* \"#utility.yul\":13051:13069   */\n      add\n        /* \"#utility.yul\":13042:13048   */\n      dup5\n        /* \"#utility.yul\":12998:13070   */\n      tag_235\n      jump\t// in\n    tag_392:\n        /* \"#utility.yul\":12745:13077   */\n      swap4\n      swap3\n      pop\n      pop\n      pop\n      jump\t// out\n        /* \"#utility.yul\":13083:13323   */\n    tag_255:\n        /* \"#utility.yul\":13223:13257   */\n      0x42544f433a20496e73756666696369656e7420616c6c6f77656420616d6f756e\n        /* \"#utility.yul\":13219:13220   */\n      0x00\n        /* \"#utility.yul\":13211:13217   */\n      dup3\n        /* \"#utility.yul\":13207:13221   */\n      add\n        /* \"#utility.yul\":13200:13258   */\n      mstore\n        /* \"#utility.yul\":13292:13315   */\n      0x74206f6620746f6b656e7320746f207370656e642e0000000000000000000000\n        /* \"#utility.yul\":13287:13289   */\n      0x20\n        /* \"#utility.yul\":13279:13285   */\n      dup3\n        /* \"#utility.yul\":13275:13290   */\n      add\n        /* \"#utility.yul\":13268:13316   */\n      mstore\n        /* \"#utility.yul\":13083:13323   */\n      pop\n      jump\t// out\n        /* \"#utility.yul\":13329:13695   */\n    tag_256:\n        /* \"#utility.yul\":13471:13474   */\n      0x00\n        /* \"#utility.yul\":13492:13559   */\n      tag_395\n        /* \"#utility.yul\":13556:13558   */\n      0x35\n        /* \"#utility.yul\":13551:13554   */\n      dup4\n        /* \"#utility.yul\":13492:13559   */\n      tag_236\n      jump\t// in\n    tag_395:\n        /* \"#utility.yul\":13485:13559   */\n      swap2\n      pop\n        /* \"#utility.yul\":13568:13661   */\n      tag_396\n        /* \"#utility.yul\":13657:13660   */\n      dup3\n        /* \"#utility.yul\":13568:13661   */\n      tag_255\n      jump\t// in\n    tag_396:\n        /* \"#utility.yul\":13686:13688   */\n      0x40\n        /* \"#utility.yul\":13681:13684   */\n      dup3\n        /* \"#utility.yul\":13677:13689   */\n      add\n        /* \"#utility.yul\":13670:13689   */\n      swap1\n      pop\n        /* \"#utility.yul\":13329:13695   */\n      swap2\n      swap1\n      pop\n      jump\t// out\n        /* \"#utility.yul\":13701:14120   */\n    tag_75:\n        /* \"#utility.yul\":13867:13871   */\n      0x00\n        /* \"#utility.yul\":13905:13907   */\n      0x20\n        /* \"#utility.yul\":13894:13903   */\n      dup3\n        /* \"#utility.yul\":13890:13908   */\n      add\n        /* \"#utility.yul\":13882:13908   */\n      swap1\n      pop\n        /* \"#utility.yul\":13954:13963   */\n      dup2\n        /* \"#utility.yul\":13948:13952   */\n      dup2\n        /* \"#utility.yul\":13944:13964   */\n      sub\n        /* \"#utility.yul\":13940:13941   */\n      0x00\n        /* \"#utility.yul\":13929:13938   */\n      dup4\n        /* \"#utility.yul\":13925:13942   */\n      add\n        /* \"#utility.yul\":13918:13965   */\n      mstore\n        /* \"#utility.yul\":13982:14113   */\n      tag_398\n        /* \"#utility.yul\":14108:14112   */\n      dup2\n        /* \"#utility.yul\":13982:14113   */\n      tag_256\n      jump\t// in\n    tag_398:\n        /* \"#utility.yul\":13974:14113   */\n      swap1\n      pop\n        /* \"#utility.yul\":13701:14120   */\n      swap2\n      swap1\n      pop\n      jump\t// out\n        /* \"#utility.yul\":14126:14568   */\n    tag_78:\n        /* \"#utility.yul\":14275:14279   */\n      0x00\n        /* \"#utility.yul\":14313:14315   */\n      0x60\n        /* \"#utility.yul\":14302:14311   */\n      dup3\n        /* \"#utility.yul\":14298:14316   */\n      add\n        /* \"#utility.yul\":14290:14316   */\n      swap1\n      pop\n        /* \"#utility.yul\":14326:14397   */\n      tag_400\n        /* \"#utility.yul\":14394:14395   */\n      0x00\n        /* \"#utility.yul\":14383:14392   */\n      dup4\n        /* \"#utility.yul\":14379:14396   */\n      add\n        /* \"#utility.yul\":14370:14376   */\n      dup7\n        /* \"#utility.yul\":14326:14397   */\n      tag_235\n      jump\t// in\n    tag_400:\n        /* \"#utility.yul\":14407:14479   */\n      tag_401\n        /* \"#utility.yul\":14475:14477   */\n      0x20\n        /* \"#utility.yul\":14464:14473   */\n      dup4\n        /* \"#utility.yul\":14460:14478   */\n      add\n        /* \"#utility.yul\":14451:14457   */\n      dup6\n        /* \"#utility.yul\":14407:14479   */\n      tag_235\n      jump\t// in\n    tag_401:\n        /* \"#utility.yul\":14489:14561   */\n      tag_402\n        /* \"#utility.yul\":14557:14559   */\n      0x40\n        /* \"#utility.yul\":14546:14555   */\n      dup4\n        /* \"#utility.yul\":14542:14560   */\n      add\n        /* \"#utility.yul\":14533:14539   */\n      dup5\n        /* \"#utility.yul\":14489:14561   */\n      tag_239\n      jump\t// in\n    tag_402:\n        /* \"#utility.yul\":14126:14568   */\n      swap5\n      swap4\n      pop\n      pop\n      pop\n      pop\n      jump\t// out\n        /* \"#utility.yul\":14574:14664   */\n    tag_257:\n        /* \"#utility.yul\":14608:14615   */\n      0x00\n        /* \"#utility.yul\":14651:14656   */\n      dup2\n        /* \"#utility.yul\":14644:14657   */\n      iszero\n        /* \"#utility.yul\":14637:14658   */\n      iszero\n        /* \"#utility.yul\":14626:14658   */\n      swap1\n      pop\n        /* \"#utility.yul\":14574:14664   */\n      swap2\n      swap1\n      pop\n      jump\t// out\n        /* \"#utility.yul\":14670:14786   */\n    tag_258:\n        /* \"#utility.yul\":14740:14761   */\n      tag_405\n        /* \"#utility.yul\":14755:14760   */\n      dup2\n        /* \"#utility.yul\":14740:14761   */\n      tag_257\n      jump\t// in\n    tag_405:\n        /* \"#utility.yul\":14733:14738   */\n      dup2\n        /* \"#utility.yul\":14730:14762   */\n      eq\n        /* \"#utility.yul\":14720:14780   */\n      tag_406\n      jumpi\n        /* \"#utility.yul\":14776:14777   */\n      0x00\n        /* \"#utility.yul\":14773:14774   */\n      dup1\n        /* \"#utility.yul\":14766:14778   */\n      revert\n        /* \"#utility.yul\":14720:14780   */\n    tag_406:\n        /* \"#utility.yul\":14670:14786   */\n      pop\n      jump\t// out\n        /* \"#utility.yul\":14792:14929   */\n    tag_259:\n        /* \"#utility.yul\":14846:14851   */\n      0x00\n        /* \"#utility.yul\":14877:14883   */\n      dup2\n        /* \"#utility.yul\":14871:14884   */\n      mload\n        /* \"#utility.yul\":14862:14884   */\n      swap1\n      pop\n        /* \"#utility.yul\":14893:14923   */\n      tag_408\n        /* \"#utility.yul\":14917:14922   */\n      dup2\n        /* \"#utility.yul\":14893:14923   */\n      tag_258\n      jump\t// in\n    tag_408:\n        /* \"#utility.yul\":14792:14929   */\n      swap3\n      swap2\n      pop\n      pop\n      jump\t// out\n        /* \"#utility.yul\":14935:15280   */\n    tag_82:\n        /* \"#utility.yul\":15002:15008   */\n      0x00\n        /* \"#utility.yul\":15051:15053   */\n      0x20\n        /* \"#utility.yul\":15039:15048   */\n      dup3\n        /* \"#utility.yul\":15030:15037   */\n      dup5\n        /* \"#utility.yul\":15026:15049   */\n      sub\n        /* \"#utility.yul\":15022:15054   */\n      slt\n        /* \"#utility.yul\":15019:15138   */\n      iszero\n      tag_410\n      jumpi\n        /* \"#utility.yul\":15057:15136   */\n      tag_411\n      tag_220\n      jump\t// in\n    tag_411:\n        /* \"#utility.yul\":15019:15138   */\n    tag_410:\n        /* \"#utility.yul\":15177:15178   */\n      0x00\n        /* \"#utility.yul\":15202:15263   */\n      tag_412\n        /* \"#utility.yul\":15255:15262   */\n      dup5\n        /* \"#utility.yul\":15246:15252   */\n      dup3\n        /* \"#utility.yul\":15235:15244   */\n      dup6\n        /* \"#utility.yul\":15231:15253   */\n      add\n        /* \"#utility.yul\":15202:15263   */\n      tag_259\n      jump\t// in\n    tag_412:\n        /* \"#utility.yul\":15192:15263   */\n      swap2\n      pop\n        /* \"#utility.yul\":15148:15273   */\n      pop\n        /* \"#utility.yul\":14935:15280   */\n      swap3\n      swap2\n      pop\n      pop\n      jump\t// out\n        /* \"#utility.yul\":15286:15517   */\n    tag_260:\n        /* \"#utility.yul\":15426:15460   */\n      0x42544f543a20546f6b656e20776974682073756368204944206861736e277420\n        /* \"#utility.yul\":15422:15423   */\n      0x00\n        /* \"#utility.yul\":15414:15420   */\n      dup3\n        /* \"#utility.yul\":15410:15424   */\n      add\n        /* \"#utility.yul\":15403:15461   */\n      mstore\n        /* \"#utility.yul\":15495:15509   */\n      0x65787069726564207965742e0000000000000000000000000000000000000000\n        /* \"#utility.yul\":15490:15492   */\n      0x20\n        /* \"#utility.yul\":15482:15488   */\n      dup3\n        /* \"#utility.yul\":15478:15493   */\n      add\n        /* \"#utility.yul\":15471:15510   */\n      mstore\n        /* \"#utility.yul\":15286:15517   */\n      pop\n      jump\t// out\n        /* \"#utility.yul\":15523:15889   */\n    tag_261:\n        /* \"#utility.yul\":15665:15668   */\n      0x00\n        /* \"#utility.yul\":15686:15753   */\n      tag_415\n        /* \"#utility.yul\":15750:15752   */\n      0x2c\n        /* \"#utility.yul\":15745:15748   */\n      dup4\n        /* \"#utility.yul\":15686:15753   */\n      tag_236\n      jump\t// in\n    tag_415:\n        /* \"#utility.yul\":15679:15753   */\n      swap2\n      pop\n        /* \"#utility.yul\":15762:15855   */\n      tag_416\n        /* \"#utility.yul\":15851:15854   */\n      dup3\n        /* \"#utility.yul\":15762:15855   */\n      tag_260\n      jump\t// in\n    tag_416:\n        /* \"#utility.yul\":15880:15882   */\n      0x40\n        /* \"#utility.yul\":15875:15878   */\n      dup3\n        /* \"#utility.yul\":15871:15883   */\n      add\n        /* \"#utility.yul\":15864:15883   */\n      swap1\n      pop\n        /* \"#utility.yul\":15523:15889   */\n      swap2\n      swap1\n      pop\n      jump\t// out\n        /* \"#utility.yul\":15895:16314   */\n    tag_127:\n        /* \"#utility.yul\":16061:16065   */\n      0x00\n        /* \"#utility.yul\":16099:16101   */\n      0x20\n        /* \"#utility.yul\":16088:16097   */\n      dup3\n        /* \"#utility.yul\":16084:16102   */\n      add\n        /* \"#utility.yul\":16076:16102   */\n      swap1\n      pop\n        /* \"#utility.yul\":16148:16157   */\n      dup2\n        /* \"#utility.yul\":16142:16146   */\n      dup2\n        /* \"#utility.yul\":16138:16158   */\n      sub\n        /* \"#utility.yul\":16134:16135   */\n      0x00\n        /* \"#utility.yul\":16123:16132   */\n      dup4\n        /* \"#utility.yul\":16119:16136   */\n      add\n        /* \"#utility.yul\":16112:16159   */\n      mstore\n        /* \"#utility.yul\":16176:16307   */\n      tag_418\n        /* \"#utility.yul\":16302:16306   */\n      dup2\n        /* \"#utility.yul\":16176:16307   */\n      tag_261\n      jump\t// in\n    tag_418:\n        /* \"#utility.yul\":16168:16307   */\n      swap1\n      pop\n        /* \"#utility.yul\":15895:16314   */\n      swap2\n      swap1\n      pop\n      jump\t// out\n        /* \"#utility.yul\":16320:16545   */\n    tag_262:\n        /* \"#utility.yul\":16460:16494   */\n      0x4f776e61626c653a206e6577206f776e657220697320746865207a65726f2061\n        /* \"#utility.yul\":16456:16457   */\n      0x00\n        /* \"#utility.yul\":16448:16454   */\n      dup3\n        /* \"#utility.yul\":16444:16458   */\n      add\n        /* \"#utility.yul\":16437:16495   */\n      mstore\n        /* \"#utility.yul\":16529:16537   */\n      0x6464726573730000000000000000000000000000000000000000000000000000\n        /* \"#utility.yul\":16524:16526   */\n      0x20\n        /* \"#utility.yul\":16516:16522   */\n      dup3\n        /* \"#utility.yul\":16512:16527   */\n      add\n        /* \"#utility.yul\":16505:16538   */\n      mstore\n        /* \"#utility.yul\":16320:16545   */\n      pop\n      jump\t// out\n        /* \"#utility.yul\":16551:16917   */\n    tag_263:\n        /* \"#utility.yul\":16693:16696   */\n      0x00\n        /* \"#utility.yul\":16714:16781   */\n      tag_421\n        /* \"#utility.yul\":16778:16780   */\n      0x26\n        /* \"#utility.yul\":16773:16776   */\n      dup4\n        /* \"#utility.yul\":16714:16781   */\n      tag_236\n      jump\t// in\n    tag_421:\n        /* \"#utility.yul\":16707:16781   */\n      swap2\n      pop\n        /* \"#utility.yul\":16790:16883   */\n      tag_422\n        /* \"#utility.yul\":16879:16882   */\n      dup3\n        /* \"#utility.yul\":16790:16883   */\n      tag_262\n      jump\t// in\n    tag_422:\n        /* \"#utility.yul\":16908:16910   */\n      0x40\n        /* \"#utility.yul\":16903:16906   */\n      dup3\n        /* \"#utility.yul\":16899:16911   */\n      add\n        /* \"#utility.yul\":16892:16911   */\n      swap1\n      pop\n        /* \"#utility.yul\":16551:16917   */\n      swap2\n      swap1\n      pop\n      jump\t// out\n        /* \"#utility.yul\":16923:17342   */\n    tag_175:\n        /* \"#utility.yul\":17089:17093   */\n      0x00\n        /* \"#utility.yul\":17127:17129   */\n      0x20\n        /* \"#utility.yul\":17116:17125   */\n      dup3\n        /* \"#utility.yul\":17112:17130   */\n      add\n        /* \"#utility.yul\":17104:17130   */\n      swap1\n      pop\n        /* \"#utility.yul\":17176:17185   */\n      dup2\n        /* \"#utility.yul\":17170:17174   */\n      dup2\n        /* \"#utility.yul\":17166:17186   */\n      sub\n        /* \"#utility.yul\":17162:17163   */\n      0x00\n        /* \"#utility.yul\":17151:17160   */\n      dup4\n        /* \"#utility.yul\":17147:17164   */\n      add\n        /* \"#utility.yul\":17140:17187   */\n      mstore\n        /* \"#utility.yul\":17204:17335   */\n      tag_424\n        /* \"#utility.yul\":17330:17334   */\n      dup2\n        /* \"#utility.yul\":17204:17335   */\n      tag_263\n      jump\t// in\n    tag_424:\n        /* \"#utility.yul\":17196:17335   */\n      swap1\n      pop\n        /* \"#utility.yul\":16923:17342   */\n      swap2\n      swap1\n      pop\n      jump\t// out\n        /* \"#utility.yul\":17348:17528   */\n    tag_182:\n        /* \"#utility.yul\":17396:17473   */\n      0x4e487b7100000000000000000000000000000000000000000000000000000000\n        /* \"#utility.yul\":17393:17394   */\n      0x00\n        /* \"#utility.yul\":17386:17474   */\n      mstore\n        /* \"#utility.yul\":17493:17497   */\n      0x41\n        /* \"#utility.yul\":17490:17491   */\n      0x04\n        /* \"#utility.yul\":17483:17498   */\n      mstore\n        /* \"#utility.yul\":17517:17521   */\n      0x24\n        /* \"#utility.yul\":17514:17515   */\n      0x00\n        /* \"#utility.yul\":17507:17522   */\n      revert\n        /* \"#utility.yul\":17534:17714   */\n    tag_188:\n        /* \"#utility.yul\":17582:17659   */\n      0x4e487b7100000000000000000000000000000000000000000000000000000000\n        /* \"#utility.yul\":17579:17580   */\n      0x00\n        /* \"#utility.yul\":17572:17660   */\n      mstore\n        /* \"#utility.yul\":17679:17683   */\n      0x12\n        /* \"#utility.yul\":17676:17677   */\n      0x04\n        /* \"#utility.yul\":17669:17684   */\n      mstore\n        /* \"#utility.yul\":17703:17707   */\n      0x24\n        /* \"#utility.yul\":17700:17701   */\n      0x00\n        /* \"#utility.yul\":17693:17708   */\n      revert\n        /* \"#utility.yul\":17720:17902   */\n    tag_264:\n        /* \"#utility.yul\":17860:17894   */\n      0x4f776e61626c653a2063616c6c6572206973206e6f7420746865206f776e6572\n        /* \"#utility.yul\":17856:17857   */\n      0x00\n        /* \"#utility.yul\":17848:17854   */\n      dup3\n        /* \"#utility.yul\":17844:17858   */\n      add\n        /* \"#utility.yul\":17837:17895   */\n      mstore\n        /* \"#utility.yul\":17720:17902   */\n      pop\n      jump\t// out\n        /* \"#utility.yul\":17908:18274   */\n    tag_265:\n        /* \"#utility.yul\":18050:18053   */\n      0x00\n        /* \"#utility.yul\":18071:18138   */\n      tag_429\n        /* \"#utility.yul\":18135:18137   */\n      0x20\n        /* \"#utility.yul\":18130:18133   */\n      dup4\n        /* \"#utility.yul\":18071:18138   */\n      tag_236\n      jump\t// in\n    tag_429:\n        /* \"#utility.yul\":18064:18138   */\n      swap2\n      pop\n        /* \"#utility.yul\":18147:18240   */\n      tag_430\n        /* \"#utility.yul\":18236:18239   */\n      dup3\n        /* \"#utility.yul\":18147:18240   */\n      tag_264\n      jump\t// in\n    tag_430:\n        /* \"#utility.yul\":18265:18267   */\n      0x20\n        /* \"#utility.yul\":18260:18263   */\n      dup3\n        /* \"#utility.yul\":18256:18268   */\n      add\n        /* \"#utility.yul\":18249:18268   */\n      swap1\n      pop\n        /* \"#utility.yul\":17908:18274   */\n      swap2\n      swap1\n      pop\n      jump\t// out\n        /* \"#utility.yul\":18280:18699   */\n    tag_196:\n        /* \"#utility.yul\":18446:18450   */\n      0x00\n        /* \"#utility.yul\":18484:18486   */\n      0x20\n        /* \"#utility.yul\":18473:18482   */\n      dup3\n        /* \"#utility.yul\":18469:18487   */\n      add\n        /* \"#utility.yul\":18461:18487   */\n      swap1\n      pop\n        /* \"#utility.yul\":18533:18542   */\n      dup2\n        /* \"#utility.yul\":18527:18531   */\n      dup2\n        /* \"#utility.yul\":18523:18543   */\n      sub\n        /* \"#utility.yul\":18519:18520   */\n      0x00\n        /* \"#utility.yul\":18508:18517   */\n      dup4\n        /* \"#utility.yul\":18504:18521   */\n      add\n        /* \"#utility.yul\":18497:18544   */\n      mstore\n        /* \"#utility.yul\":18561:18692   */\n      tag_432\n        /* \"#utility.yul\":18687:18691   */\n      dup2\n        /* \"#utility.yul\":18561:18692   */\n      tag_265\n      jump\t// in\n    tag_432:\n        /* \"#utility.yul\":18553:18692   */\n      swap1\n      pop\n        /* \"#utility.yul\":18280:18699   */\n      swap2\n      swap1\n      pop\n      jump\t// out\n\n    auxdata: 0xa26469706673582212207a00d138b359fa90f44a7fcf3f46b116c841591a449f9fc1a482c7de9a57ff4364736f6c63430008120033\n}\n",
				"bytecode": {
					"linkReferences": {},
					"object": "60806040523480156200001157600080fd5b5060405162001f9038038062001f90833981810160405281019062000037919062000217565b620000576200004b620000e160201b60201c565b620000e960201b60201c565b81600160006101000a81548173ffffffffffffffffffffffffffffffffffffffff021916908373ffffffffffffffffffffffffffffffffffffffff16021790555080600260006101000a81548173ffffffffffffffffffffffffffffffffffffffff021916908373ffffffffffffffffffffffffffffffffffffffff16021790555050506200025e565b600033905090565b60008060009054906101000a900473ffffffffffffffffffffffffffffffffffffffff169050816000806101000a81548173ffffffffffffffffffffffffffffffffffffffff021916908373ffffffffffffffffffffffffffffffffffffffff1602179055508173ffffffffffffffffffffffffffffffffffffffff168173ffffffffffffffffffffffffffffffffffffffff167f8be0079c531659141344cd1fd0a4f28419497f9722a3daafe3b4186f6b6457e060405160405180910390a35050565b600080fd5b600073ffffffffffffffffffffffffffffffffffffffff82169050919050565b6000620001df82620001b2565b9050919050565b620001f181620001d2565b8114620001fd57600080fd5b50565b6000815190506200021181620001e6565b92915050565b60008060408385031215620002315762000230620001ad565b5b6000620002418582860162000200565b9250506020620002548582860162000200565b9150509250929050565b611d22806200026e6000396000f3fe608060405234801561001057600080fd5b50600436106100625760003560e01c8063057466ea14610067578063150b7a0214610083578063715018a6146100b3578063722227f2146100bd5780638da5cb5b146100d9578063f2fde38b146100f7575b600080fd5b610081600480360381019061007c9190611319565b610113565b005b61009d6004803603810190610098919061141c565b610678565b6040516100aa91906114df565b60405180910390f35b6100bb61068d565b005b6100d760048036038101906100d29190611319565b6106a1565b005b6100e1610ec2565b6040516100ee9190611509565b60405180910390f35b610111600480360381019061010c9190611524565b610eeb565b005b80821115610156576040517f08c379a000000000000000000000000000000000000000000000000000000000815260040161014d906115d4565b60405180910390fd5b6000808390505b82811161035357600260009054906101000a900473ffffffffffffffffffffffffffffffffffffffff1673ffffffffffffffffffffffffffffffffffffffff1663e7572230826040518263ffffffff1660e01b81526004016101bf9190611603565b602060405180830381865afa1580156101dc573d6000803e3d6000fd5b505050506040513d601f19601f820116820180604052508101906102009190611633565b8261020b919061168f565b9150600260009054906101000a900473ffffffffffffffffffffffffffffffffffffffff1673ffffffffffffffffffffffffffffffffffffffff16636352211e826040518263ffffffff1660e01b81526004016102689190611603565b602060405180830381865afa158015610285573d6000803e3d6000fd5b505050506040513d601f19601f820116820180604052508101906102a991906116d8565b73ffffffffffffffffffffffffffffffffffffffff163373ffffffffffffffffffffffffffffffffffffffff1614156102e182610f6e565b6040516020016102f19190611834565b60405160208183030381529060405290610341576040517f08c379a000000000000000000000000000000000000000000000000000000000815260040161033891906118ab565b60405180910390fd5b508061034c906118cd565b905061015d565b5080600160009054906101000a900473ffffffffffffffffffffffffffffffffffffffff1673ffffffffffffffffffffffffffffffffffffffff166370a08231336040518263ffffffff1660e01b81526004016103b09190611509565b602060405180830381865afa1580156103cd573d6000803e3d6000fd5b505050506040513d601f19601f820116820180604052508101906103f19190611633565b1015610432576040517f08c379a000000000000000000000000000000000000000000000000000000000815260040161042990611987565b60405180910390fd5b80600160009054906101000a900473ffffffffffffffffffffffffffffffffffffffff1673ffffffffffffffffffffffffffffffffffffffff1663dd62ed3e33306040518363ffffffff1660e01b81526004016104909291906119a7565b602060405180830381865afa1580156104ad573d6000803e3d6000fd5b505050506040513d601f19601f820116820180604052508101906104d19190611633565b1015610512576040517f08c379a000000000000000000000000000000000000000000000000000000000815260040161050990611a42565b60405180910390fd5b600160009054906101000a900473ffffffffffffffffffffffffffffffffffffffff1673ffffffffffffffffffffffffffffffffffffffff166323b872dd33610559610ec2565b846040518463ffffffff1660e01b815260040161057893929190611a62565b6020604051808303816000875af1158015610597573d6000803e3d6000fd5b505050506040513d601f19601f820116820180604052508101906105bb9190611ad1565b5060008390505b82811161067257600260009054906101000a900473ffffffffffffffffffffffffffffffffffffffff1673ffffffffffffffffffffffffffffffffffffffff166342842e0e61060f610ec2565b33846040518463ffffffff1660e01b815260040161062f93929190611a62565b600060405180830381600087803b15801561064957600080fd5b505af115801561065d573d6000803e3d6000fd5b505050508061066b906118cd565b90506105c2565b50505050565b600063150b7a0260e01b905095945050505050565b61069561103c565b61069f60006110ba565b565b6106a961103c565b6000818311156106ee576040517f08c379a00000000000000000000000000000000000000000000000000000000081526004016106e5906115d4565b60405180910390fd5b60008390505b8281116109cc57600260009054906101000a900473ffffffffffffffffffffffffffffffffffffffff1673ffffffffffffffffffffffffffffffffffffffff1663a91b2e9f826040518263ffffffff1660e01b81526004016107569190611603565b602060405180830381865afa158015610773573d6000803e3d6000fd5b505050506040513d601f19601f820116820180604052508101906107979190611633565b826107a2919061168f565b9150600260009054906101000a900473ffffffffffffffffffffffffffffffffffffffff1673ffffffffffffffffffffffffffffffffffffffff16636352211e826040518263ffffffff1660e01b81526004016107ff9190611603565b602060405180830381865afa15801561081c573d6000803e3d6000fd5b505050506040513d601f19601f8201168201806040525081019061084091906116d8565b73ffffffffffffffffffffffffffffffffffffffff1661085e610ec2565b73ffffffffffffffffffffffffffffffffffffffff16141561087f82610f6e565b60405160200161088f9190611834565b604051602081830303815290604052906108df576040517f08c379a00000000000000000000000000000000000000000000000000000000081526004016108d691906118ab565b60405180910390fd5b50600260009054906101000a900473ffffffffffffffffffffffffffffffffffffffff1673ffffffffffffffffffffffffffffffffffffffff1663d9548e53826040518263ffffffff1660e01b815260040161093b9190611603565b602060405180830381865afa158015610958573d6000803e3d6000fd5b505050506040513d601f19601f8201168201806040525081019061097c9190611ad1565b6109bb576040517f08c379a00000000000000000000000000000000000000000000000000000000081526004016109b290611b70565b60405180910390fd5b806109c5906118cd565b90506106f4565b5080600160009054906101000a900473ffffffffffffffffffffffffffffffffffffffff1673ffffffffffffffffffffffffffffffffffffffff166370a08231610a14610ec2565b6040518263ffffffff1660e01b8152600401610a309190611509565b602060405180830381865afa158015610a4d573d6000803e3d6000fd5b505050506040513d601f19601f82011682018060405250810190610a719190611633565b1015610ab2576040517f08c379a0000000000000000000000000000000000000000000000000000000008152600401610aa990611987565b60405180910390fd5b80600160009054906101000a900473ffffffffffffffffffffffffffffffffffffffff1673ffffffffffffffffffffffffffffffffffffffff1663dd62ed3e610af9610ec2565b306040518363ffffffff1660e01b8152600401610b179291906119a7565b602060405180830381865afa158015610b34573d6000803e3d6000fd5b505050506040513d601f19601f82011682018060405250810190610b589190611633565b1015610b99576040517f08c379a0000000000000000000000000000000000000000000000000000000008152600401610b9090611a42565b60405180910390fd5b600160009054906101000a900473ffffffffffffffffffffffffffffffffffffffff1673ffffffffffffffffffffffffffffffffffffffff166323b872dd610bdf610ec2565b600260009054906101000a900473ffffffffffffffffffffffffffffffffffffffff1673ffffffffffffffffffffffffffffffffffffffff16636352211e876040518263ffffffff1660e01b8152600401610c3a9190611603565b602060405180830381865afa158015610c57573d6000803e3d6000fd5b505050506040513d601f19601f82011682018060405250810190610c7b91906116d8565b846040518463ffffffff1660e01b8152600401610c9a93929190611a62565b6020604051808303816000875af1158015610cb9573d6000803e3d6000fd5b505050506040513d601f19601f82011682018060405250810190610cdd9190611ad1565b5060008390505b828111610ebc57600260009054906101000a900473ffffffffffffffffffffffffffffffffffffffff1673ffffffffffffffffffffffffffffffffffffffff166342842e0e600260009054906101000a900473ffffffffffffffffffffffffffffffffffffffff1673ffffffffffffffffffffffffffffffffffffffff16636352211e846040518263ffffffff1660e01b8152600401610d849190611603565b602060405180830381865afa158015610da1573d6000803e3d6000fd5b505050506040513d601f19601f82011682018060405250810190610dc591906116d8565b610dcd610ec2565b846040518463ffffffff1660e01b8152600401610dec93929190611a62565b600060405180830381600087803b158015610e0657600080fd5b505af1158015610e1a573d6000803e3d6000fd5b50505050600260009054906101000a900473ffffffffffffffffffffffffffffffffffffffff1673ffffffffffffffffffffffffffffffffffffffff166342966c68826040518263ffffffff1660e01b8152600401610e799190611603565b600060405180830381600087803b158015610e9357600080fd5b505af1158015610ea7573d6000803e3d6000fd5b5050505080610eb5906118cd565b9050610ce4565b50505050565b60008060009054906101000a900473ffffffffffffffffffffffffffffffffffffffff16905090565b610ef361103c565b600073ffffffffffffffffffffffffffffffffffffffff168173ffffffffffffffffffffffffffffffffffffffff1603610f62576040517f08c379a0000000000000000000000000000000000000000000000000000000008152600401610f5990611c02565b60405180910390fd5b610f6b816110ba565b50565b606060006001610f7d8461117e565b01905060008167ffffffffffffffff811115610f9c57610f9b611c22565b5b6040519080825280601f01601f191660200182016040528015610fce5781602001600182028036833780820191505090505b509050600082602001820190505b600115611031578080600190039150507f3031323334353637383961626364656600000000000000000000000000000000600a86061a8153600a858161102557611024611c51565b5b04945060008503610fdc575b819350505050919050565b6110446112d1565b73ffffffffffffffffffffffffffffffffffffffff16611062610ec2565b73ffffffffffffffffffffffffffffffffffffffff16146110b8576040517f08c379a00000000000000000000000000000000000000000000000000000000081526004016110af90611ccc565b60405180910390fd5b565b60008060009054906101000a900473ffffffffffffffffffffffffffffffffffffffff169050816000806101000a81548173ffffffffffffffffffffffffffffffffffffffff021916908373ffffffffffffffffffffffffffffffffffffffff1602179055508173ffffffffffffffffffffffffffffffffffffffff168173ffffffffffffffffffffffffffffffffffffffff167f8be0079c531659141344cd1fd0a4f28419497f9722a3daafe3b4186f6b6457e060405160405180910390a35050565b600080600090507a184f03e93ff9f4daa797ed6e38ed64bf6a1f01000000000000000083106111dc577a184f03e93ff9f4daa797ed6e38ed64bf6a1f01000000000000000083816111d2576111d1611c51565b5b0492506040810190505b6d04ee2d6d415b85acef81000000008310611219576d04ee2d6d415b85acef8100000000838161120f5761120e611c51565b5b0492506020810190505b662386f26fc10000831061124857662386f26fc10000838161123e5761123d611c51565b5b0492506010810190505b6305f5e1008310611271576305f5e100838161126757611266611c51565b5b0492506008810190505b612710831061129657612710838161128c5761128b611c51565b5b0492506004810190505b606483106112b957606483816112af576112ae611c51565b5b0492506002810190505b600a83106112c8576001810190505b80915050919050565b600033905090565b600080fd5b600080fd5b6000819050919050565b6112f6816112e3565b811461130157600080fd5b50565b600081359050611313816112ed565b92915050565b600080604083850312156113305761132f6112d9565b5b600061133e85828601611304565b925050602061134f85828601611304565b9150509250929050565b600073ffffffffffffffffffffffffffffffffffffffff82169050919050565b600061138482611359565b9050919050565b61139481611379565b811461139f57600080fd5b50565b6000813590506113b18161138b565b92915050565b600080fd5b600080fd5b600080fd5b60008083601f8401126113dc576113db6113b7565b5b8235905067ffffffffffffffff8111156113f9576113f86113bc565b5b602083019150836001820283011115611415576114146113c1565b5b9250929050565b600080600080600060808688031215611438576114376112d9565b5b6000611446888289016113a2565b9550506020611457888289016113a2565b945050604061146888828901611304565b935050606086013567ffffffffffffffff811115611489576114886112de565b5b611495888289016113c6565b92509250509295509295909350565b60007fffffffff0000000000000000000000000000000000000000000000000000000082169050919050565b6114d9816114a4565b82525050565b60006020820190506114f460008301846114d0565b92915050565b61150381611379565b82525050565b600060208201905061151e60008301846114fa565b92915050565b60006020828403121561153a576115396112d9565b5b6000611548848285016113a2565b91505092915050565b600082825260208201905092915050565b7f42414e4b204d414e414745523a205269676874204944277320626f756e64206960008201527f73206c657373207468616e206c656674206f6e652e0000000000000000000000602082015250565b60006115be603583611551565b91506115c982611562565b604082019050919050565b600060208201905081810360008301526115ed816115b1565b9050919050565b6115fd816112e3565b82525050565b600060208201905061161860008301846115f4565b92915050565b60008151905061162d816112ed565b92915050565b600060208284031215611649576116486112d9565b5b60006116578482850161161e565b91505092915050565b7f4e487b7100000000000000000000000000000000000000000000000000000000600052601160045260246000fd5b600061169a826112e3565b91506116a5836112e3565b92508282019050808211156116bd576116bc611660565b5b92915050565b6000815190506116d28161138b565b92915050565b6000602082840312156116ee576116ed6112d9565b5b60006116fc848285016116c3565b91505092915050565b600081905092915050565b7f42544f543a205573657220616c726561647920697320616e206f776e6572206f60008201527f6620746f6b656e20776974682049442000000000000000000000000000000000602082015250565b600061176c603083611705565b915061177782611710565b603082019050919050565b600081519050919050565b60005b838110156117ab578082015181840152602081019050611790565b60008484015250505050565b60006117c282611782565b6117cc8185611705565b93506117dc81856020860161178d565b80840191505092915050565b7f2e00000000000000000000000000000000000000000000000000000000000000600082015250565b600061181e600183611705565b9150611829826117e8565b600182019050919050565b600061183f8261175f565b915061184b82846117b7565b915061185682611811565b915081905092915050565b6000601f19601f8301169050919050565b600061187d82611782565b6118878185611551565b935061189781856020860161178d565b6118a081611861565b840191505092915050565b600060208201905081810360008301526118c58184611872565b905092915050565b60006118d8826112e3565b91507fffffffffffffffffffffffffffffffffffffffffffffffffffffffffffffffff820361190a57611909611660565b5b600182019050919050565b7f42544f433a20496e73756666696369656e7420616d6f756e74206f6620746f6b60008201527f656e732e00000000000000000000000000000000000000000000000000000000602082015250565b6000611971602483611551565b915061197c82611915565b604082019050919050565b600060208201905081810360008301526119a081611964565b9050919050565b60006040820190506119bc60008301856114fa565b6119c960208301846114fa565b9392505050565b7f42544f433a20496e73756666696369656e7420616c6c6f77656420616d6f756e60008201527f74206f6620746f6b656e7320746f207370656e642e0000000000000000000000602082015250565b6000611a2c603583611551565b9150611a37826119d0565b604082019050919050565b60006020820190508181036000830152611a5b81611a1f565b9050919050565b6000606082019050611a7760008301866114fa565b611a8460208301856114fa565b611a9160408301846115f4565b949350505050565b60008115159050919050565b611aae81611a99565b8114611ab957600080fd5b50565b600081519050611acb81611aa5565b92915050565b600060208284031215611ae757611ae66112d9565b5b6000611af584828501611abc565b91505092915050565b7f42544f543a20546f6b656e20776974682073756368204944206861736e27742060008201527f65787069726564207965742e0000000000000000000000000000000000000000602082015250565b6000611b5a602c83611551565b9150611b6582611afe565b604082019050919050565b60006020820190508181036000830152611b8981611b4d565b9050919050565b7f4f776e61626c653a206e6577206f776e657220697320746865207a65726f206160008201527f6464726573730000000000000000000000000000000000000000000000000000602082015250565b6000611bec602683611551565b9150611bf782611b90565b604082019050919050565b60006020820190508181036000830152611c1b81611bdf565b9050919050565b7f4e487b7100000000000000000000000000000000000000000000000000000000600052604160045260246000fd5b7f4e487b7100000000000000000000000000000000000000000000000000000000600052601260045260246000fd5b7f4f776e61626c653a2063616c6c6572206973206e6f7420746865206f776e6572600082015250565b6000611cb6602083611551565b9150611cc182611c80565b602082019050919050565b60006020820190508181036000830152611ce581611ca9565b905091905056fea26469706673582212207a00d138b359fa90f44a7fcf3f46b116c841591a449f9fc1a482c7de9a57ff4364736f6c63430008120033",
					"opcodes": "PUSH1 0x80 PUSH1 0x40 MSTORE CALLVALUE DUP1 ISZERO PUSH3 0x11 JUMPI PUSH1 0x0 DUP1 REVERT JUMPDEST POP PUSH1 0x40 MLOAD PUSH3 0x1F90 CODESIZE SUB DUP1 PUSH3 0x1F90 DUP4 CODECOPY DUP2 DUP2 ADD PUSH1 0x40 MSTORE DUP2 ADD SWAP1 PUSH3 0x37 SWAP2 SWAP1 PUSH3 0x217 JUMP JUMPDEST PUSH3 0x57 PUSH3 0x4B PUSH3 0xE1 PUSH1 0x20 SHL PUSH1 0x20 SHR JUMP JUMPDEST PUSH3 0xE9 PUSH1 0x20 SHL PUSH1 0x20 SHR JUMP JUMPDEST DUP2 PUSH1 0x1 PUSH1 0x0 PUSH2 0x100 EXP DUP2 SLOAD DUP2 PUSH20 0xFFFFFFFFFFFFFFFFFFFFFFFFFFFFFFFFFFFFFFFF MUL NOT AND SWAP1 DUP4 PUSH20 0xFFFFFFFFFFFFFFFFFFFFFFFFFFFFFFFFFFFFFFFF AND MUL OR SWAP1 SSTORE POP DUP1 PUSH1 0x2 PUSH1 0x0 PUSH2 0x100 EXP DUP2 SLOAD DUP2 PUSH20 0xFFFFFFFFFFFFFFFFFFFFFFFFFFFFFFFFFFFFFFFF MUL NOT AND SWAP1 DUP4 PUSH20 0xFFFFFFFFFFFFFFFFFFFFFFFFFFFFFFFFFFFFFFFF AND MUL OR SWAP1 SSTORE POP POP POP PUSH3 0x25E JUMP JUMPDEST PUSH1 0x0 CALLER SWAP1 POP SWAP1 JUMP JUMPDEST PUSH1 0x0 DUP1 PUSH1 0x0 SWAP1 SLOAD SWAP1 PUSH2 0x100 EXP SWAP1 DIV PUSH20 0xFFFFFFFFFFFFFFFFFFFFFFFFFFFFFFFFFFFFFFFF AND SWAP1 POP DUP2 PUSH1 0x0 DUP1 PUSH2 0x100 EXP DUP2 SLOAD DUP2 PUSH20 0xFFFFFFFFFFFFFFFFFFFFFFFFFFFFFFFFFFFFFFFF MUL NOT AND SWAP1 DUP4 PUSH20 0xFFFFFFFFFFFFFFFFFFFFFFFFFFFFFFFFFFFFFFFF AND MUL OR SWAP1 SSTORE POP DUP2 PUSH20 0xFFFFFFFFFFFFFFFFFFFFFFFFFFFFFFFFFFFFFFFF AND DUP2 PUSH20 0xFFFFFFFFFFFFFFFFFFFFFFFFFFFFFFFFFFFFFFFF AND PUSH32 0x8BE0079C531659141344CD1FD0A4F28419497F9722A3DAAFE3B4186F6B6457E0 PUSH1 0x40 MLOAD PUSH1 0x40 MLOAD DUP1 SWAP2 SUB SWAP1 LOG3 POP POP JUMP JUMPDEST PUSH1 0x0 DUP1 REVERT JUMPDEST PUSH1 0x0 PUSH20 0xFFFFFFFFFFFFFFFFFFFFFFFFFFFFFFFFFFFFFFFF DUP3 AND SWAP1 POP SWAP2 SWAP1 POP JUMP JUMPDEST PUSH1 0x0 PUSH3 0x1DF DUP3 PUSH3 0x1B2 JUMP JUMPDEST SWAP1 POP SWAP2 SWAP1 POP JUMP JUMPDEST PUSH3 0x1F1 DUP2 PUSH3 0x1D2 JUMP JUMPDEST DUP2 EQ PUSH3 0x1FD JUMPI PUSH1 0x0 DUP1 REVERT JUMPDEST POP JUMP JUMPDEST PUSH1 0x0 DUP2 MLOAD SWAP1 POP PUSH3 0x211 DUP2 PUSH3 0x1E6 JUMP JUMPDEST SWAP3 SWAP2 POP POP JUMP JUMPDEST PUSH1 0x0 DUP1 PUSH1 0x40 DUP4 DUP6 SUB SLT ISZERO PUSH3 0x231 JUMPI PUSH3 0x230 PUSH3 0x1AD JUMP JUMPDEST JUMPDEST PUSH1 0x0 PUSH3 0x241 DUP6 DUP3 DUP7 ADD PUSH3 0x200 JUMP JUMPDEST SWAP3 POP POP PUSH1 0x20 PUSH3 0x254 DUP6 DUP3 DUP7 ADD PUSH3 0x200 JUMP JUMPDEST SWAP2 POP POP SWAP3 POP SWAP3 SWAP1 POP JUMP JUMPDEST PUSH2 0x1D22 DUP1 PUSH3 0x26E PUSH1 0x0 CODECOPY PUSH1 0x0 RETURN INVALID PUSH1 0x80 PUSH1 0x40 MSTORE CALLVALUE DUP1 ISZERO PUSH2 0x10 JUMPI PUSH1 0x0 DUP1 REVERT JUMPDEST POP PUSH1 0x4 CALLDATASIZE LT PUSH2 0x62 JUMPI PUSH1 0x0 CALLDATALOAD PUSH1 0xE0 SHR DUP1 PUSH4 0x57466EA EQ PUSH2 0x67 JUMPI DUP1 PUSH4 0x150B7A02 EQ PUSH2 0x83 JUMPI DUP1 PUSH4 0x715018A6 EQ PUSH2 0xB3 JUMPI DUP1 PUSH4 0x722227F2 EQ PUSH2 0xBD JUMPI DUP1 PUSH4 0x8DA5CB5B EQ PUSH2 0xD9 JUMPI DUP1 PUSH4 0xF2FDE38B EQ PUSH2 0xF7 JUMPI JUMPDEST PUSH1 0x0 DUP1 REVERT JUMPDEST PUSH2 0x81 PUSH1 0x4 DUP1 CALLDATASIZE SUB DUP2 ADD SWAP1 PUSH2 0x7C SWAP2 SWAP1 PUSH2 0x1319 JUMP JUMPDEST PUSH2 0x113 JUMP JUMPDEST STOP JUMPDEST PUSH2 0x9D PUSH1 0x4 DUP1 CALLDATASIZE SUB DUP2 ADD SWAP1 PUSH2 0x98 SWAP2 SWAP1 PUSH2 0x141C JUMP JUMPDEST PUSH2 0x678 JUMP JUMPDEST PUSH1 0x40 MLOAD PUSH2 0xAA SWAP2 SWAP1 PUSH2 0x14DF JUMP JUMPDEST PUSH1 0x40 MLOAD DUP1 SWAP2 SUB SWAP1 RETURN JUMPDEST PUSH2 0xBB PUSH2 0x68D JUMP JUMPDEST STOP JUMPDEST PUSH2 0xD7 PUSH1 0x4 DUP1 CALLDATASIZE SUB DUP2 ADD SWAP1 PUSH2 0xD2 SWAP2 SWAP1 PUSH2 0x1319 JUMP JUMPDEST PUSH2 0x6A1 JUMP JUMPDEST STOP JUMPDEST PUSH2 0xE1 PUSH2 0xEC2 JUMP JUMPDEST PUSH1 0x40 MLOAD PUSH2 0xEE SWAP2 SWAP1 PUSH2 0x1509 JUMP JUMPDEST PUSH1 0x40 MLOAD DUP1 SWAP2 SUB SWAP1 RETURN JUMPDEST PUSH2 0x111 PUSH1 0x4 DUP1 CALLDATASIZE SUB DUP2 ADD SWAP1 PUSH2 0x10C SWAP2 SWAP1 PUSH2 0x1524 JUMP JUMPDEST PUSH2 0xEEB JUMP JUMPDEST STOP JUMPDEST DUP1 DUP3 GT ISZERO PUSH2 0x156 JUMPI PUSH1 0x40 MLOAD PUSH32 0x8C379A000000000000000000000000000000000000000000000000000000000 DUP2 MSTORE PUSH1 0x4 ADD PUSH2 0x14D SWAP1 PUSH2 0x15D4 JUMP JUMPDEST PUSH1 0x40 MLOAD DUP1 SWAP2 SUB SWAP1 REVERT JUMPDEST PUSH1 0x0 DUP1 DUP4 SWAP1 POP JUMPDEST DUP3 DUP2 GT PUSH2 0x353 JUMPI PUSH1 0x2 PUSH1 0x0 SWAP1 SLOAD SWAP1 PUSH2 0x100 EXP SWAP1 DIV PUSH20 0xFFFFFFFFFFFFFFFFFFFFFFFFFFFFFFFFFFFFFFFF AND PUSH20 0xFFFFFFFFFFFFFFFFFFFFFFFFFFFFFFFFFFFFFFFF AND PUSH4 0xE7572230 DUP3 PUSH1 0x40 MLOAD DUP3 PUSH4 0xFFFFFFFF AND PUSH1 0xE0 SHL DUP2 MSTORE PUSH1 0x4 ADD PUSH2 0x1BF SWAP2 SWAP1 PUSH2 0x1603 JUMP JUMPDEST PUSH1 0x20 PUSH1 0x40 MLOAD DUP1 DUP4 SUB DUP2 DUP7 GAS STATICCALL ISZERO DUP1 ISZERO PUSH2 0x1DC JUMPI RETURNDATASIZE PUSH1 0x0 DUP1 RETURNDATACOPY RETURNDATASIZE PUSH1 0x0 REVERT JUMPDEST POP POP POP POP PUSH1 0x40 MLOAD RETURNDATASIZE PUSH1 0x1F NOT PUSH1 0x1F DUP3 ADD AND DUP3 ADD DUP1 PUSH1 0x40 MSTORE POP DUP2 ADD SWAP1 PUSH2 0x200 SWAP2 SWAP1 PUSH2 0x1633 JUMP JUMPDEST DUP3 PUSH2 0x20B SWAP2 SWAP1 PUSH2 0x168F JUMP JUMPDEST SWAP2 POP PUSH1 0x2 PUSH1 0x0 SWAP1 SLOAD SWAP1 PUSH2 0x100 EXP SWAP1 DIV PUSH20 0xFFFFFFFFFFFFFFFFFFFFFFFFFFFFFFFFFFFFFFFF AND PUSH20 0xFFFFFFFFFFFFFFFFFFFFFFFFFFFFFFFFFFFFFFFF AND PUSH4 0x6352211E DUP3 PUSH1 0x40 MLOAD DUP3 PUSH4 0xFFFFFFFF AND PUSH1 0xE0 SHL DUP2 MSTORE PUSH1 0x4 ADD PUSH2 0x268 SWAP2 SWAP1 PUSH2 0x1603 JUMP JUMPDEST PUSH1 0x20 PUSH1 0x40 MLOAD DUP1 DUP4 SUB DUP2 DUP7 GAS STATICCALL ISZERO DUP1 ISZERO PUSH2 0x285 JUMPI RETURNDATASIZE PUSH1 0x0 DUP1 RETURNDATACOPY RETURNDATASIZE PUSH1 0x0 REVERT JUMPDEST POP POP POP POP PUSH1 0x40 MLOAD RETURNDATASIZE PUSH1 0x1F NOT PUSH1 0x1F DUP3 ADD AND DUP3 ADD DUP1 PUSH1 0x40 MSTORE POP DUP2 ADD SWAP1 PUSH2 0x2A9 SWAP2 SWAP1 PUSH2 0x16D8 JUMP JUMPDEST PUSH20 0xFFFFFFFFFFFFFFFFFFFFFFFFFFFFFFFFFFFFFFFF AND CALLER PUSH20 0xFFFFFFFFFFFFFFFFFFFFFFFFFFFFFFFFFFFFFFFF AND EQ ISZERO PUSH2 0x2E1 DUP3 PUSH2 0xF6E JUMP JUMPDEST PUSH1 0x40 MLOAD PUSH1 0x20 ADD PUSH2 0x2F1 SWAP2 SWAP1 PUSH2 0x1834 JUMP JUMPDEST PUSH1 0x40 MLOAD PUSH1 0x20 DUP2 DUP4 SUB SUB DUP2 MSTORE SWAP1 PUSH1 0x40 MSTORE SWAP1 PUSH2 0x341 JUMPI PUSH1 0x40 MLOAD PUSH32 0x8C379A000000000000000000000000000000000000000000000000000000000 DUP2 MSTORE PUSH1 0x4 ADD PUSH2 0x338 SWAP2 SWAP1 PUSH2 0x18AB JUMP JUMPDEST PUSH1 0x40 MLOAD DUP1 SWAP2 SUB SWAP1 REVERT JUMPDEST POP DUP1 PUSH2 0x34C SWAP1 PUSH2 0x18CD JUMP JUMPDEST SWAP1 POP PUSH2 0x15D JUMP JUMPDEST POP DUP1 PUSH1 0x1 PUSH1 0x0 SWAP1 SLOAD SWAP1 PUSH2 0x100 EXP SWAP1 DIV PUSH20 0xFFFFFFFFFFFFFFFFFFFFFFFFFFFFFFFFFFFFFFFF AND PUSH20 0xFFFFFFFFFFFFFFFFFFFFFFFFFFFFFFFFFFFFFFFF AND PUSH4 0x70A08231 CALLER PUSH1 0x40 MLOAD DUP3 PUSH4 0xFFFFFFFF AND PUSH1 0xE0 SHL DUP2 MSTORE PUSH1 0x4 ADD PUSH2 0x3B0 SWAP2 SWAP1 PUSH2 0x1509 JUMP JUMPDEST PUSH1 0x20 PUSH1 0x40 MLOAD DUP1 DUP4 SUB DUP2 DUP7 GAS STATICCALL ISZERO DUP1 ISZERO PUSH2 0x3CD JUMPI RETURNDATASIZE PUSH1 0x0 DUP1 RETURNDATACOPY RETURNDATASIZE PUSH1 0x0 REVERT JUMPDEST POP POP POP POP PUSH1 0x40 MLOAD RETURNDATASIZE PUSH1 0x1F NOT PUSH1 0x1F DUP3 ADD AND DUP3 ADD DUP1 PUSH1 0x40 MSTORE POP DUP2 ADD SWAP1 PUSH2 0x3F1 SWAP2 SWAP1 PUSH2 0x1633 JUMP JUMPDEST LT ISZERO PUSH2 0x432 JUMPI PUSH1 0x40 MLOAD PUSH32 0x8C379A000000000000000000000000000000000000000000000000000000000 DUP2 MSTORE PUSH1 0x4 ADD PUSH2 0x429 SWAP1 PUSH2 0x1987 JUMP JUMPDEST PUSH1 0x40 MLOAD DUP1 SWAP2 SUB SWAP1 REVERT JUMPDEST DUP1 PUSH1 0x1 PUSH1 0x0 SWAP1 SLOAD SWAP1 PUSH2 0x100 EXP SWAP1 DIV PUSH20 0xFFFFFFFFFFFFFFFFFFFFFFFFFFFFFFFFFFFFFFFF AND PUSH20 0xFFFFFFFFFFFFFFFFFFFFFFFFFFFFFFFFFFFFFFFF AND PUSH4 0xDD62ED3E CALLER ADDRESS PUSH1 0x40 MLOAD DUP4 PUSH4 0xFFFFFFFF AND PUSH1 0xE0 SHL DUP2 MSTORE PUSH1 0x4 ADD PUSH2 0x490 SWAP3 SWAP2 SWAP1 PUSH2 0x19A7 JUMP JUMPDEST PUSH1 0x20 PUSH1 0x40 MLOAD DUP1 DUP4 SUB DUP2 DUP7 GAS STATICCALL ISZERO DUP1 ISZERO PUSH2 0x4AD JUMPI RETURNDATASIZE PUSH1 0x0 DUP1 RETURNDATACOPY RETURNDATASIZE PUSH1 0x0 REVERT JUMPDEST POP POP POP POP PUSH1 0x40 MLOAD RETURNDATASIZE PUSH1 0x1F NOT PUSH1 0x1F DUP3 ADD AND DUP3 ADD DUP1 PUSH1 0x40 MSTORE POP DUP2 ADD SWAP1 PUSH2 0x4D1 SWAP2 SWAP1 PUSH2 0x1633 JUMP JUMPDEST LT ISZERO PUSH2 0x512 JUMPI PUSH1 0x40 MLOAD PUSH32 0x8C379A000000000000000000000000000000000000000000000000000000000 DUP2 MSTORE PUSH1 0x4 ADD PUSH2 0x509 SWAP1 PUSH2 0x1A42 JUMP JUMPDEST PUSH1 0x40 MLOAD DUP1 SWAP2 SUB SWAP1 REVERT JUMPDEST PUSH1 0x1 PUSH1 0x0 SWAP1 SLOAD SWAP1 PUSH2 0x100 EXP SWAP1 DIV PUSH20 0xFFFFFFFFFFFFFFFFFFFFFFFFFFFFFFFFFFFFFFFF AND PUSH20 0xFFFFFFFFFFFFFFFFFFFFFFFFFFFFFFFFFFFFFFFF AND PUSH4 0x23B872DD CALLER PUSH2 0x559 PUSH2 0xEC2 JUMP JUMPDEST DUP5 PUSH1 0x40 MLOAD DUP5 PUSH4 0xFFFFFFFF AND PUSH1 0xE0 SHL DUP2 MSTORE PUSH1 0x4 ADD PUSH2 0x578 SWAP4 SWAP3 SWAP2 SWAP1 PUSH2 0x1A62 JUMP JUMPDEST PUSH1 0x20 PUSH1 0x40 MLOAD DUP1 DUP4 SUB DUP2 PUSH1 0x0 DUP8 GAS CALL ISZERO DUP1 ISZERO PUSH2 0x597 JUMPI RETURNDATASIZE PUSH1 0x0 DUP1 RETURNDATACOPY RETURNDATASIZE PUSH1 0x0 REVERT JUMPDEST POP POP POP POP PUSH1 0x40 MLOAD RETURNDATASIZE PUSH1 0x1F NOT PUSH1 0x1F DUP3 ADD AND DUP3 ADD DUP1 PUSH1 0x40 MSTORE POP DUP2 ADD SWAP1 PUSH2 0x5BB SWAP2 SWAP1 PUSH2 0x1AD1 JUMP JUMPDEST POP PUSH1 0x0 DUP4 SWAP1 POP JUMPDEST DUP3 DUP2 GT PUSH2 0x672 JUMPI PUSH1 0x2 PUSH1 0x0 SWAP1 SLOAD SWAP1 PUSH2 0x100 EXP SWAP1 DIV PUSH20 0xFFFFFFFFFFFFFFFFFFFFFFFFFFFFFFFFFFFFFFFF AND PUSH20 0xFFFFFFFFFFFFFFFFFFFFFFFFFFFFFFFFFFFFFFFF AND PUSH4 0x42842E0E PUSH2 0x60F PUSH2 0xEC2 JUMP JUMPDEST CALLER DUP5 PUSH1 0x40 MLOAD DUP5 PUSH4 0xFFFFFFFF AND PUSH1 0xE0 SHL DUP2 MSTORE PUSH1 0x4 ADD PUSH2 0x62F SWAP4 SWAP3 SWAP2 SWAP1 PUSH2 0x1A62 JUMP JUMPDEST PUSH1 0x0 PUSH1 0x40 MLOAD DUP1 DUP4 SUB DUP2 PUSH1 0x0 DUP8 DUP1 EXTCODESIZE ISZERO DUP1 ISZERO PUSH2 0x649 JUMPI PUSH1 0x0 DUP1 REVERT JUMPDEST POP GAS CALL ISZERO DUP1 ISZERO PUSH2 0x65D JUMPI RETURNDATASIZE PUSH1 0x0 DUP1 RETURNDATACOPY RETURNDATASIZE PUSH1 0x0 REVERT JUMPDEST POP POP POP POP DUP1 PUSH2 0x66B SWAP1 PUSH2 0x18CD JUMP JUMPDEST SWAP1 POP PUSH2 0x5C2 JUMP JUMPDEST POP POP POP POP JUMP JUMPDEST PUSH1 0x0 PUSH4 0x150B7A02 PUSH1 0xE0 SHL SWAP1 POP SWAP6 SWAP5 POP POP POP POP POP JUMP JUMPDEST PUSH2 0x695 PUSH2 0x103C JUMP JUMPDEST PUSH2 0x69F PUSH1 0x0 PUSH2 0x10BA JUMP JUMPDEST JUMP JUMPDEST PUSH2 0x6A9 PUSH2 0x103C JUMP JUMPDEST PUSH1 0x0 DUP2 DUP4 GT ISZERO PUSH2 0x6EE JUMPI PUSH1 0x40 MLOAD PUSH32 0x8C379A000000000000000000000000000000000000000000000000000000000 DUP2 MSTORE PUSH1 0x4 ADD PUSH2 0x6E5 SWAP1 PUSH2 0x15D4 JUMP JUMPDEST PUSH1 0x40 MLOAD DUP1 SWAP2 SUB SWAP1 REVERT JUMPDEST PUSH1 0x0 DUP4 SWAP1 POP JUMPDEST DUP3 DUP2 GT PUSH2 0x9CC JUMPI PUSH1 0x2 PUSH1 0x0 SWAP1 SLOAD SWAP1 PUSH2 0x100 EXP SWAP1 DIV PUSH20 0xFFFFFFFFFFFFFFFFFFFFFFFFFFFFFFFFFFFFFFFF AND PUSH20 0xFFFFFFFFFFFFFFFFFFFFFFFFFFFFFFFFFFFFFFFF AND PUSH4 0xA91B2E9F DUP3 PUSH1 0x40 MLOAD DUP3 PUSH4 0xFFFFFFFF AND PUSH1 0xE0 SHL DUP2 MSTORE PUSH1 0x4 ADD PUSH2 0x756 SWAP2 SWAP1 PUSH2 0x1603 JUMP JUMPDEST PUSH1 0x20 PUSH1 0x40 MLOAD DUP1 DUP4 SUB DUP2 DUP7 GAS STATICCALL ISZERO DUP1 ISZERO PUSH2 0x773 JUMPI RETURNDATASIZE PUSH1 0x0 DUP1 RETURNDATACOPY RETURNDATASIZE PUSH1 0x0 REVERT JUMPDEST POP POP POP POP PUSH1 0x40 MLOAD RETURNDATASIZE PUSH1 0x1F NOT PUSH1 0x1F DUP3 ADD AND DUP3 ADD DUP1 PUSH1 0x40 MSTORE POP DUP2 ADD SWAP1 PUSH2 0x797 SWAP2 SWAP1 PUSH2 0x1633 JUMP JUMPDEST DUP3 PUSH2 0x7A2 SWAP2 SWAP1 PUSH2 0x168F JUMP JUMPDEST SWAP2 POP PUSH1 0x2 PUSH1 0x0 SWAP1 SLOAD SWAP1 PUSH2 0x100 EXP SWAP1 DIV PUSH20 0xFFFFFFFFFFFFFFFFFFFFFFFFFFFFFFFFFFFFFFFF AND PUSH20 0xFFFFFFFFFFFFFFFFFFFFFFFFFFFFFFFFFFFFFFFF AND PUSH4 0x6352211E DUP3 PUSH1 0x40 MLOAD DUP3 PUSH4 0xFFFFFFFF AND PUSH1 0xE0 SHL DUP2 MSTORE PUSH1 0x4 ADD PUSH2 0x7FF SWAP2 SWAP1 PUSH2 0x1603 JUMP JUMPDEST PUSH1 0x20 PUSH1 0x40 MLOAD DUP1 DUP4 SUB DUP2 DUP7 GAS STATICCALL ISZERO DUP1 ISZERO PUSH2 0x81C JUMPI RETURNDATASIZE PUSH1 0x0 DUP1 RETURNDATACOPY RETURNDATASIZE PUSH1 0x0 REVERT JUMPDEST POP POP POP POP PUSH1 0x40 MLOAD RETURNDATASIZE PUSH1 0x1F NOT PUSH1 0x1F DUP3 ADD AND DUP3 ADD DUP1 PUSH1 0x40 MSTORE POP DUP2 ADD SWAP1 PUSH2 0x840 SWAP2 SWAP1 PUSH2 0x16D8 JUMP JUMPDEST PUSH20 0xFFFFFFFFFFFFFFFFFFFFFFFFFFFFFFFFFFFFFFFF AND PUSH2 0x85E PUSH2 0xEC2 JUMP JUMPDEST PUSH20 0xFFFFFFFFFFFFFFFFFFFFFFFFFFFFFFFFFFFFFFFF AND EQ ISZERO PUSH2 0x87F DUP3 PUSH2 0xF6E JUMP JUMPDEST PUSH1 0x40 MLOAD PUSH1 0x20 ADD PUSH2 0x88F SWAP2 SWAP1 PUSH2 0x1834 JUMP JUMPDEST PUSH1 0x40 MLOAD PUSH1 0x20 DUP2 DUP4 SUB SUB DUP2 MSTORE SWAP1 PUSH1 0x40 MSTORE SWAP1 PUSH2 0x8DF JUMPI PUSH1 0x40 MLOAD PUSH32 0x8C379A000000000000000000000000000000000000000000000000000000000 DUP2 MSTORE PUSH1 0x4 ADD PUSH2 0x8D6 SWAP2 SWAP1 PUSH2 0x18AB JUMP JUMPDEST PUSH1 0x40 MLOAD DUP1 SWAP2 SUB SWAP1 REVERT JUMPDEST POP PUSH1 0x2 PUSH1 0x0 SWAP1 SLOAD SWAP1 PUSH2 0x100 EXP SWAP1 DIV PUSH20 0xFFFFFFFFFFFFFFFFFFFFFFFFFFFFFFFFFFFFFFFF AND PUSH20 0xFFFFFFFFFFFFFFFFFFFFFFFFFFFFFFFFFFFFFFFF AND PUSH4 0xD9548E53 DUP3 PUSH1 0x40 MLOAD DUP3 PUSH4 0xFFFFFFFF AND PUSH1 0xE0 SHL DUP2 MSTORE PUSH1 0x4 ADD PUSH2 0x93B SWAP2 SWAP1 PUSH2 0x1603 JUMP JUMPDEST PUSH1 0x20 PUSH1 0x40 MLOAD DUP1 DUP4 SUB DUP2 DUP7 GAS STATICCALL ISZERO DUP1 ISZERO PUSH2 0x958 JUMPI RETURNDATASIZE PUSH1 0x0 DUP1 RETURNDATACOPY RETURNDATASIZE PUSH1 0x0 REVERT JUMPDEST POP POP POP POP PUSH1 0x40 MLOAD RETURNDATASIZE PUSH1 0x1F NOT PUSH1 0x1F DUP3 ADD AND DUP3 ADD DUP1 PUSH1 0x40 MSTORE POP DUP2 ADD SWAP1 PUSH2 0x97C SWAP2 SWAP1 PUSH2 0x1AD1 JUMP JUMPDEST PUSH2 0x9BB JUMPI PUSH1 0x40 MLOAD PUSH32 0x8C379A000000000000000000000000000000000000000000000000000000000 DUP2 MSTORE PUSH1 0x4 ADD PUSH2 0x9B2 SWAP1 PUSH2 0x1B70 JUMP JUMPDEST PUSH1 0x40 MLOAD DUP1 SWAP2 SUB SWAP1 REVERT JUMPDEST DUP1 PUSH2 0x9C5 SWAP1 PUSH2 0x18CD JUMP JUMPDEST SWAP1 POP PUSH2 0x6F4 JUMP JUMPDEST POP DUP1 PUSH1 0x1 PUSH1 0x0 SWAP1 SLOAD SWAP1 PUSH2 0x100 EXP SWAP1 DIV PUSH20 0xFFFFFFFFFFFFFFFFFFFFFFFFFFFFFFFFFFFFFFFF AND PUSH20 0xFFFFFFFFFFFFFFFFFFFFFFFFFFFFFFFFFFFFFFFF AND PUSH4 0x70A08231 PUSH2 0xA14 PUSH2 0xEC2 JUMP JUMPDEST PUSH1 0x40 MLOAD DUP3 PUSH4 0xFFFFFFFF AND PUSH1 0xE0 SHL DUP2 MSTORE PUSH1 0x4 ADD PUSH2 0xA30 SWAP2 SWAP1 PUSH2 0x1509 JUMP JUMPDEST PUSH1 0x20 PUSH1 0x40 MLOAD DUP1 DUP4 SUB DUP2 DUP7 GAS STATICCALL ISZERO DUP1 ISZERO PUSH2 0xA4D JUMPI RETURNDATASIZE PUSH1 0x0 DUP1 RETURNDATACOPY RETURNDATASIZE PUSH1 0x0 REVERT JUMPDEST POP POP POP POP PUSH1 0x40 MLOAD RETURNDATASIZE PUSH1 0x1F NOT PUSH1 0x1F DUP3 ADD AND DUP3 ADD DUP1 PUSH1 0x40 MSTORE POP DUP2 ADD SWAP1 PUSH2 0xA71 SWAP2 SWAP1 PUSH2 0x1633 JUMP JUMPDEST LT ISZERO PUSH2 0xAB2 JUMPI PUSH1 0x40 MLOAD PUSH32 0x8C379A000000000000000000000000000000000000000000000000000000000 DUP2 MSTORE PUSH1 0x4 ADD PUSH2 0xAA9 SWAP1 PUSH2 0x1987 JUMP JUMPDEST PUSH1 0x40 MLOAD DUP1 SWAP2 SUB SWAP1 REVERT JUMPDEST DUP1 PUSH1 0x1 PUSH1 0x0 SWAP1 SLOAD SWAP1 PUSH2 0x100 EXP SWAP1 DIV PUSH20 0xFFFFFFFFFFFFFFFFFFFFFFFFFFFFFFFFFFFFFFFF AND PUSH20 0xFFFFFFFFFFFFFFFFFFFFFFFFFFFFFFFFFFFFFFFF AND PUSH4 0xDD62ED3E PUSH2 0xAF9 PUSH2 0xEC2 JUMP JUMPDEST ADDRESS PUSH1 0x40 MLOAD DUP4 PUSH4 0xFFFFFFFF AND PUSH1 0xE0 SHL DUP2 MSTORE PUSH1 0x4 ADD PUSH2 0xB17 SWAP3 SWAP2 SWAP1 PUSH2 0x19A7 JUMP JUMPDEST PUSH1 0x20 PUSH1 0x40 MLOAD DUP1 DUP4 SUB DUP2 DUP7 GAS STATICCALL ISZERO DUP1 ISZERO PUSH2 0xB34 JUMPI RETURNDATASIZE PUSH1 0x0 DUP1 RETURNDATACOPY RETURNDATASIZE PUSH1 0x0 REVERT JUMPDEST POP POP POP POP PUSH1 0x40 MLOAD RETURNDATASIZE PUSH1 0x1F NOT PUSH1 0x1F DUP3 ADD AND DUP3 ADD DUP1 PUSH1 0x40 MSTORE POP DUP2 ADD SWAP1 PUSH2 0xB58 SWAP2 SWAP1 PUSH2 0x1633 JUMP JUMPDEST LT ISZERO PUSH2 0xB99 JUMPI PUSH1 0x40 MLOAD PUSH32 0x8C379A000000000000000000000000000000000000000000000000000000000 DUP2 MSTORE PUSH1 0x4 ADD PUSH2 0xB90 SWAP1 PUSH2 0x1A42 JUMP JUMPDEST PUSH1 0x40 MLOAD DUP1 SWAP2 SUB SWAP1 REVERT JUMPDEST PUSH1 0x1 PUSH1 0x0 SWAP1 SLOAD SWAP1 PUSH2 0x100 EXP SWAP1 DIV PUSH20 0xFFFFFFFFFFFFFFFFFFFFFFFFFFFFFFFFFFFFFFFF AND PUSH20 0xFFFFFFFFFFFFFFFFFFFFFFFFFFFFFFFFFFFFFFFF AND PUSH4 0x23B872DD PUSH2 0xBDF PUSH2 0xEC2 JUMP JUMPDEST PUSH1 0x2 PUSH1 0x0 SWAP1 SLOAD SWAP1 PUSH2 0x100 EXP SWAP1 DIV PUSH20 0xFFFFFFFFFFFFFFFFFFFFFFFFFFFFFFFFFFFFFFFF AND PUSH20 0xFFFFFFFFFFFFFFFFFFFFFFFFFFFFFFFFFFFFFFFF AND PUSH4 0x6352211E DUP8 PUSH1 0x40 MLOAD DUP3 PUSH4 0xFFFFFFFF AND PUSH1 0xE0 SHL DUP2 MSTORE PUSH1 0x4 ADD PUSH2 0xC3A SWAP2 SWAP1 PUSH2 0x1603 JUMP JUMPDEST PUSH1 0x20 PUSH1 0x40 MLOAD DUP1 DUP4 SUB DUP2 DUP7 GAS STATICCALL ISZERO DUP1 ISZERO PUSH2 0xC57 JUMPI RETURNDATASIZE PUSH1 0x0 DUP1 RETURNDATACOPY RETURNDATASIZE PUSH1 0x0 REVERT JUMPDEST POP POP POP POP PUSH1 0x40 MLOAD RETURNDATASIZE PUSH1 0x1F NOT PUSH1 0x1F DUP3 ADD AND DUP3 ADD DUP1 PUSH1 0x40 MSTORE POP DUP2 ADD SWAP1 PUSH2 0xC7B SWAP2 SWAP1 PUSH2 0x16D8 JUMP JUMPDEST DUP5 PUSH1 0x40 MLOAD DUP5 PUSH4 0xFFFFFFFF AND PUSH1 0xE0 SHL DUP2 MSTORE PUSH1 0x4 ADD PUSH2 0xC9A SWAP4 SWAP3 SWAP2 SWAP1 PUSH2 0x1A62 JUMP JUMPDEST PUSH1 0x20 PUSH1 0x40 MLOAD DUP1 DUP4 SUB DUP2 PUSH1 0x0 DUP8 GAS CALL ISZERO DUP1 ISZERO PUSH2 0xCB9 JUMPI RETURNDATASIZE PUSH1 0x0 DUP1 RETURNDATACOPY RETURNDATASIZE PUSH1 0x0 REVERT JUMPDEST POP POP POP POP PUSH1 0x40 MLOAD RETURNDATASIZE PUSH1 0x1F NOT PUSH1 0x1F DUP3 ADD AND DUP3 ADD DUP1 PUSH1 0x40 MSTORE POP DUP2 ADD SWAP1 PUSH2 0xCDD SWAP2 SWAP1 PUSH2 0x1AD1 JUMP JUMPDEST POP PUSH1 0x0 DUP4 SWAP1 POP JUMPDEST DUP3 DUP2 GT PUSH2 0xEBC JUMPI PUSH1 0x2 PUSH1 0x0 SWAP1 SLOAD SWAP1 PUSH2 0x100 EXP SWAP1 DIV PUSH20 0xFFFFFFFFFFFFFFFFFFFFFFFFFFFFFFFFFFFFFFFF AND PUSH20 0xFFFFFFFFFFFFFFFFFFFFFFFFFFFFFFFFFFFFFFFF AND PUSH4 0x42842E0E PUSH1 0x2 PUSH1 0x0 SWAP1 SLOAD SWAP1 PUSH2 0x100 EXP SWAP1 DIV PUSH20 0xFFFFFFFFFFFFFFFFFFFFFFFFFFFFFFFFFFFFFFFF AND PUSH20 0xFFFFFFFFFFFFFFFFFFFFFFFFFFFFFFFFFFFFFFFF AND PUSH4 0x6352211E DUP5 PUSH1 0x40 MLOAD DUP3 PUSH4 0xFFFFFFFF AND PUSH1 0xE0 SHL DUP2 MSTORE PUSH1 0x4 ADD PUSH2 0xD84 SWAP2 SWAP1 PUSH2 0x1603 JUMP JUMPDEST PUSH1 0x20 PUSH1 0x40 MLOAD DUP1 DUP4 SUB DUP2 DUP7 GAS STATICCALL ISZERO DUP1 ISZERO PUSH2 0xDA1 JUMPI RETURNDATASIZE PUSH1 0x0 DUP1 RETURNDATACOPY RETURNDATASIZE PUSH1 0x0 REVERT JUMPDEST POP POP POP POP PUSH1 0x40 MLOAD RETURNDATASIZE PUSH1 0x1F NOT PUSH1 0x1F DUP3 ADD AND DUP3 ADD DUP1 PUSH1 0x40 MSTORE POP DUP2 ADD SWAP1 PUSH2 0xDC5 SWAP2 SWAP1 PUSH2 0x16D8 JUMP JUMPDEST PUSH2 0xDCD PUSH2 0xEC2 JUMP JUMPDEST DUP5 PUSH1 0x40 MLOAD DUP5 PUSH4 0xFFFFFFFF AND PUSH1 0xE0 SHL DUP2 MSTORE PUSH1 0x4 ADD PUSH2 0xDEC SWAP4 SWAP3 SWAP2 SWAP1 PUSH2 0x1A62 JUMP JUMPDEST PUSH1 0x0 PUSH1 0x40 MLOAD DUP1 DUP4 SUB DUP2 PUSH1 0x0 DUP8 DUP1 EXTCODESIZE ISZERO DUP1 ISZERO PUSH2 0xE06 JUMPI PUSH1 0x0 DUP1 REVERT JUMPDEST POP GAS CALL ISZERO DUP1 ISZERO PUSH2 0xE1A JUMPI RETURNDATASIZE PUSH1 0x0 DUP1 RETURNDATACOPY RETURNDATASIZE PUSH1 0x0 REVERT JUMPDEST POP POP POP POP PUSH1 0x2 PUSH1 0x0 SWAP1 SLOAD SWAP1 PUSH2 0x100 EXP SWAP1 DIV PUSH20 0xFFFFFFFFFFFFFFFFFFFFFFFFFFFFFFFFFFFFFFFF AND PUSH20 0xFFFFFFFFFFFFFFFFFFFFFFFFFFFFFFFFFFFFFFFF AND PUSH4 0x42966C68 DUP3 PUSH1 0x40 MLOAD DUP3 PUSH4 0xFFFFFFFF AND PUSH1 0xE0 SHL DUP2 MSTORE PUSH1 0x4 ADD PUSH2 0xE79 SWAP2 SWAP1 PUSH2 0x1603 JUMP JUMPDEST PUSH1 0x0 PUSH1 0x40 MLOAD DUP1 DUP4 SUB DUP2 PUSH1 0x0 DUP8 DUP1 EXTCODESIZE ISZERO DUP1 ISZERO PUSH2 0xE93 JUMPI PUSH1 0x0 DUP1 REVERT JUMPDEST POP GAS CALL ISZERO DUP1 ISZERO PUSH2 0xEA7 JUMPI RETURNDATASIZE PUSH1 0x0 DUP1 RETURNDATACOPY RETURNDATASIZE PUSH1 0x0 REVERT JUMPDEST POP POP POP POP DUP1 PUSH2 0xEB5 SWAP1 PUSH2 0x18CD JUMP JUMPDEST SWAP1 POP PUSH2 0xCE4 JUMP JUMPDEST POP POP POP POP JUMP JUMPDEST PUSH1 0x0 DUP1 PUSH1 0x0 SWAP1 SLOAD SWAP1 PUSH2 0x100 EXP SWAP1 DIV PUSH20 0xFFFFFFFFFFFFFFFFFFFFFFFFFFFFFFFFFFFFFFFF AND SWAP1 POP SWAP1 JUMP JUMPDEST PUSH2 0xEF3 PUSH2 0x103C JUMP JUMPDEST PUSH1 0x0 PUSH20 0xFFFFFFFFFFFFFFFFFFFFFFFFFFFFFFFFFFFFFFFF AND DUP2 PUSH20 0xFFFFFFFFFFFFFFFFFFFFFFFFFFFFFFFFFFFFFFFF AND SUB PUSH2 0xF62 JUMPI PUSH1 0x40 MLOAD PUSH32 0x8C379A000000000000000000000000000000000000000000000000000000000 DUP2 MSTORE PUSH1 0x4 ADD PUSH2 0xF59 SWAP1 PUSH2 0x1C02 JUMP JUMPDEST PUSH1 0x40 MLOAD DUP1 SWAP2 SUB SWAP1 REVERT JUMPDEST PUSH2 0xF6B DUP2 PUSH2 0x10BA JUMP JUMPDEST POP JUMP JUMPDEST PUSH1 0x60 PUSH1 0x0 PUSH1 0x1 PUSH2 0xF7D DUP5 PUSH2 0x117E JUMP JUMPDEST ADD SWAP1 POP PUSH1 0x0 DUP2 PUSH8 0xFFFFFFFFFFFFFFFF DUP2 GT ISZERO PUSH2 0xF9C JUMPI PUSH2 0xF9B PUSH2 0x1C22 JUMP JUMPDEST JUMPDEST PUSH1 0x40 MLOAD SWAP1 DUP1 DUP3 MSTORE DUP1 PUSH1 0x1F ADD PUSH1 0x1F NOT AND PUSH1 0x20 ADD DUP3 ADD PUSH1 0x40 MSTORE DUP1 ISZERO PUSH2 0xFCE JUMPI DUP2 PUSH1 0x20 ADD PUSH1 0x1 DUP3 MUL DUP1 CALLDATASIZE DUP4 CALLDATACOPY DUP1 DUP3 ADD SWAP2 POP POP SWAP1 POP JUMPDEST POP SWAP1 POP PUSH1 0x0 DUP3 PUSH1 0x20 ADD DUP3 ADD SWAP1 POP JUMPDEST PUSH1 0x1 ISZERO PUSH2 0x1031 JUMPI DUP1 DUP1 PUSH1 0x1 SWAP1 SUB SWAP2 POP POP PUSH32 0x3031323334353637383961626364656600000000000000000000000000000000 PUSH1 0xA DUP7 MOD BYTE DUP2 MSTORE8 PUSH1 0xA DUP6 DUP2 PUSH2 0x1025 JUMPI PUSH2 0x1024 PUSH2 0x1C51 JUMP JUMPDEST JUMPDEST DIV SWAP5 POP PUSH1 0x0 DUP6 SUB PUSH2 0xFDC JUMPI JUMPDEST DUP2 SWAP4 POP POP POP POP SWAP2 SWAP1 POP JUMP JUMPDEST PUSH2 0x1044 PUSH2 0x12D1 JUMP JUMPDEST PUSH20 0xFFFFFFFFFFFFFFFFFFFFFFFFFFFFFFFFFFFFFFFF AND PUSH2 0x1062 PUSH2 0xEC2 JUMP JUMPDEST PUSH20 0xFFFFFFFFFFFFFFFFFFFFFFFFFFFFFFFFFFFFFFFF AND EQ PUSH2 0x10B8 JUMPI PUSH1 0x40 MLOAD PUSH32 0x8C379A000000000000000000000000000000000000000000000000000000000 DUP2 MSTORE PUSH1 0x4 ADD PUSH2 0x10AF SWAP1 PUSH2 0x1CCC JUMP JUMPDEST PUSH1 0x40 MLOAD DUP1 SWAP2 SUB SWAP1 REVERT JUMPDEST JUMP JUMPDEST PUSH1 0x0 DUP1 PUSH1 0x0 SWAP1 SLOAD SWAP1 PUSH2 0x100 EXP SWAP1 DIV PUSH20 0xFFFFFFFFFFFFFFFFFFFFFFFFFFFFFFFFFFFFFFFF AND SWAP1 POP DUP2 PUSH1 0x0 DUP1 PUSH2 0x100 EXP DUP2 SLOAD DUP2 PUSH20 0xFFFFFFFFFFFFFFFFFFFFFFFFFFFFFFFFFFFFFFFF MUL NOT AND SWAP1 DUP4 PUSH20 0xFFFFFFFFFFFFFFFFFFFFFFFFFFFFFFFFFFFFFFFF AND MUL OR SWAP1 SSTORE POP DUP2 PUSH20 0xFFFFFFFFFFFFFFFFFFFFFFFFFFFFFFFFFFFFFFFF AND DUP2 PUSH20 0xFFFFFFFFFFFFFFFFFFFFFFFFFFFFFFFFFFFFFFFF AND PUSH32 0x8BE0079C531659141344CD1FD0A4F28419497F9722A3DAAFE3B4186F6B6457E0 PUSH1 0x40 MLOAD PUSH1 0x40 MLOAD DUP1 SWAP2 SUB SWAP1 LOG3 POP POP JUMP JUMPDEST PUSH1 0x0 DUP1 PUSH1 0x0 SWAP1 POP PUSH27 0x184F03E93FF9F4DAA797ED6E38ED64BF6A1F010000000000000000 DUP4 LT PUSH2 0x11DC JUMPI PUSH27 0x184F03E93FF9F4DAA797ED6E38ED64BF6A1F010000000000000000 DUP4 DUP2 PUSH2 0x11D2 JUMPI PUSH2 0x11D1 PUSH2 0x1C51 JUMP JUMPDEST JUMPDEST DIV SWAP3 POP PUSH1 0x40 DUP2 ADD SWAP1 POP JUMPDEST PUSH14 0x4EE2D6D415B85ACEF8100000000 DUP4 LT PUSH2 0x1219 JUMPI PUSH14 0x4EE2D6D415B85ACEF8100000000 DUP4 DUP2 PUSH2 0x120F JUMPI PUSH2 0x120E PUSH2 0x1C51 JUMP JUMPDEST JUMPDEST DIV SWAP3 POP PUSH1 0x20 DUP2 ADD SWAP1 POP JUMPDEST PUSH7 0x2386F26FC10000 DUP4 LT PUSH2 0x1248 JUMPI PUSH7 0x2386F26FC10000 DUP4 DUP2 PUSH2 0x123E JUMPI PUSH2 0x123D PUSH2 0x1C51 JUMP JUMPDEST JUMPDEST DIV SWAP3 POP PUSH1 0x10 DUP2 ADD SWAP1 POP JUMPDEST PUSH4 0x5F5E100 DUP4 LT PUSH2 0x1271 JUMPI PUSH4 0x5F5E100 DUP4 DUP2 PUSH2 0x1267 JUMPI PUSH2 0x1266 PUSH2 0x1C51 JUMP JUMPDEST JUMPDEST DIV SWAP3 POP PUSH1 0x8 DUP2 ADD SWAP1 POP JUMPDEST PUSH2 0x2710 DUP4 LT PUSH2 0x1296 JUMPI PUSH2 0x2710 DUP4 DUP2 PUSH2 0x128C JUMPI PUSH2 0x128B PUSH2 0x1C51 JUMP JUMPDEST JUMPDEST DIV SWAP3 POP PUSH1 0x4 DUP2 ADD SWAP1 POP JUMPDEST PUSH1 0x64 DUP4 LT PUSH2 0x12B9 JUMPI PUSH1 0x64 DUP4 DUP2 PUSH2 0x12AF JUMPI PUSH2 0x12AE PUSH2 0x1C51 JUMP JUMPDEST JUMPDEST DIV SWAP3 POP PUSH1 0x2 DUP2 ADD SWAP1 POP JUMPDEST PUSH1 0xA DUP4 LT PUSH2 0x12C8 JUMPI PUSH1 0x1 DUP2 ADD SWAP1 POP JUMPDEST DUP1 SWAP2 POP POP SWAP2 SWAP1 POP JUMP JUMPDEST PUSH1 0x0 CALLER SWAP1 POP SWAP1 JUMP JUMPDEST PUSH1 0x0 DUP1 REVERT JUMPDEST PUSH1 0x0 DUP1 REVERT JUMPDEST PUSH1 0x0 DUP2 SWAP1 POP SWAP2 SWAP1 POP JUMP JUMPDEST PUSH2 0x12F6 DUP2 PUSH2 0x12E3 JUMP JUMPDEST DUP2 EQ PUSH2 0x1301 JUMPI PUSH1 0x0 DUP1 REVERT JUMPDEST POP JUMP JUMPDEST PUSH1 0x0 DUP2 CALLDATALOAD SWAP1 POP PUSH2 0x1313 DUP2 PUSH2 0x12ED JUMP JUMPDEST SWAP3 SWAP2 POP POP JUMP JUMPDEST PUSH1 0x0 DUP1 PUSH1 0x40 DUP4 DUP6 SUB SLT ISZERO PUSH2 0x1330 JUMPI PUSH2 0x132F PUSH2 0x12D9 JUMP JUMPDEST JUMPDEST PUSH1 0x0 PUSH2 0x133E DUP6 DUP3 DUP7 ADD PUSH2 0x1304 JUMP JUMPDEST SWAP3 POP POP PUSH1 0x20 PUSH2 0x134F DUP6 DUP3 DUP7 ADD PUSH2 0x1304 JUMP JUMPDEST SWAP2 POP POP SWAP3 POP SWAP3 SWAP1 POP JUMP JUMPDEST PUSH1 0x0 PUSH20 0xFFFFFFFFFFFFFFFFFFFFFFFFFFFFFFFFFFFFFFFF DUP3 AND SWAP1 POP SWAP2 SWAP1 POP JUMP JUMPDEST PUSH1 0x0 PUSH2 0x1384 DUP3 PUSH2 0x1359 JUMP JUMPDEST SWAP1 POP SWAP2 SWAP1 POP JUMP JUMPDEST PUSH2 0x1394 DUP2 PUSH2 0x1379 JUMP JUMPDEST DUP2 EQ PUSH2 0x139F JUMPI PUSH1 0x0 DUP1 REVERT JUMPDEST POP JUMP JUMPDEST PUSH1 0x0 DUP2 CALLDATALOAD SWAP1 POP PUSH2 0x13B1 DUP2 PUSH2 0x138B JUMP JUMPDEST SWAP3 SWAP2 POP POP JUMP JUMPDEST PUSH1 0x0 DUP1 REVERT JUMPDEST PUSH1 0x0 DUP1 REVERT JUMPDEST PUSH1 0x0 DUP1 REVERT JUMPDEST PUSH1 0x0 DUP1 DUP4 PUSH1 0x1F DUP5 ADD SLT PUSH2 0x13DC JUMPI PUSH2 0x13DB PUSH2 0x13B7 JUMP JUMPDEST JUMPDEST DUP3 CALLDATALOAD SWAP1 POP PUSH8 0xFFFFFFFFFFFFFFFF DUP2 GT ISZERO PUSH2 0x13F9 JUMPI PUSH2 0x13F8 PUSH2 0x13BC JUMP JUMPDEST JUMPDEST PUSH1 0x20 DUP4 ADD SWAP2 POP DUP4 PUSH1 0x1 DUP3 MUL DUP4 ADD GT ISZERO PUSH2 0x1415 JUMPI PUSH2 0x1414 PUSH2 0x13C1 JUMP JUMPDEST JUMPDEST SWAP3 POP SWAP3 SWAP1 POP JUMP JUMPDEST PUSH1 0x0 DUP1 PUSH1 0x0 DUP1 PUSH1 0x0 PUSH1 0x80 DUP7 DUP9 SUB SLT ISZERO PUSH2 0x1438 JUMPI PUSH2 0x1437 PUSH2 0x12D9 JUMP JUMPDEST JUMPDEST PUSH1 0x0 PUSH2 0x1446 DUP9 DUP3 DUP10 ADD PUSH2 0x13A2 JUMP JUMPDEST SWAP6 POP POP PUSH1 0x20 PUSH2 0x1457 DUP9 DUP3 DUP10 ADD PUSH2 0x13A2 JUMP JUMPDEST SWAP5 POP POP PUSH1 0x40 PUSH2 0x1468 DUP9 DUP3 DUP10 ADD PUSH2 0x1304 JUMP JUMPDEST SWAP4 POP POP PUSH1 0x60 DUP7 ADD CALLDATALOAD PUSH8 0xFFFFFFFFFFFFFFFF DUP2 GT ISZERO PUSH2 0x1489 JUMPI PUSH2 0x1488 PUSH2 0x12DE JUMP JUMPDEST JUMPDEST PUSH2 0x1495 DUP9 DUP3 DUP10 ADD PUSH2 0x13C6 JUMP JUMPDEST SWAP3 POP SWAP3 POP POP SWAP3 SWAP6 POP SWAP3 SWAP6 SWAP1 SWAP4 POP JUMP JUMPDEST PUSH1 0x0 PUSH32 0xFFFFFFFF00000000000000000000000000000000000000000000000000000000 DUP3 AND SWAP1 POP SWAP2 SWAP1 POP JUMP JUMPDEST PUSH2 0x14D9 DUP2 PUSH2 0x14A4 JUMP JUMPDEST DUP3 MSTORE POP POP JUMP JUMPDEST PUSH1 0x0 PUSH1 0x20 DUP3 ADD SWAP1 POP PUSH2 0x14F4 PUSH1 0x0 DUP4 ADD DUP5 PUSH2 0x14D0 JUMP JUMPDEST SWAP3 SWAP2 POP POP JUMP JUMPDEST PUSH2 0x1503 DUP2 PUSH2 0x1379 JUMP JUMPDEST DUP3 MSTORE POP POP JUMP JUMPDEST PUSH1 0x0 PUSH1 0x20 DUP3 ADD SWAP1 POP PUSH2 0x151E PUSH1 0x0 DUP4 ADD DUP5 PUSH2 0x14FA JUMP JUMPDEST SWAP3 SWAP2 POP POP JUMP JUMPDEST PUSH1 0x0 PUSH1 0x20 DUP3 DUP5 SUB SLT ISZERO PUSH2 0x153A JUMPI PUSH2 0x1539 PUSH2 0x12D9 JUMP JUMPDEST JUMPDEST PUSH1 0x0 PUSH2 0x1548 DUP5 DUP3 DUP6 ADD PUSH2 0x13A2 JUMP JUMPDEST SWAP2 POP POP SWAP3 SWAP2 POP POP JUMP JUMPDEST PUSH1 0x0 DUP3 DUP3 MSTORE PUSH1 0x20 DUP3 ADD SWAP1 POP SWAP3 SWAP2 POP POP JUMP JUMPDEST PUSH32 0x42414E4B204D414E414745523A205269676874204944277320626F756E642069 PUSH1 0x0 DUP3 ADD MSTORE PUSH32 0x73206C657373207468616E206C656674206F6E652E0000000000000000000000 PUSH1 0x20 DUP3 ADD MSTORE POP JUMP JUMPDEST PUSH1 0x0 PUSH2 0x15BE PUSH1 0x35 DUP4 PUSH2 0x1551 JUMP JUMPDEST SWAP2 POP PUSH2 0x15C9 DUP3 PUSH2 0x1562 JUMP JUMPDEST PUSH1 0x40 DUP3 ADD SWAP1 POP SWAP2 SWAP1 POP JUMP JUMPDEST PUSH1 0x0 PUSH1 0x20 DUP3 ADD SWAP1 POP DUP2 DUP2 SUB PUSH1 0x0 DUP4 ADD MSTORE PUSH2 0x15ED DUP2 PUSH2 0x15B1 JUMP JUMPDEST SWAP1 POP SWAP2 SWAP1 POP JUMP JUMPDEST PUSH2 0x15FD DUP2 PUSH2 0x12E3 JUMP JUMPDEST DUP3 MSTORE POP POP JUMP JUMPDEST PUSH1 0x0 PUSH1 0x20 DUP3 ADD SWAP1 POP PUSH2 0x1618 PUSH1 0x0 DUP4 ADD DUP5 PUSH2 0x15F4 JUMP JUMPDEST SWAP3 SWAP2 POP POP JUMP JUMPDEST PUSH1 0x0 DUP2 MLOAD SWAP1 POP PUSH2 0x162D DUP2 PUSH2 0x12ED JUMP JUMPDEST SWAP3 SWAP2 POP POP JUMP JUMPDEST PUSH1 0x0 PUSH1 0x20 DUP3 DUP5 SUB SLT ISZERO PUSH2 0x1649 JUMPI PUSH2 0x1648 PUSH2 0x12D9 JUMP JUMPDEST JUMPDEST PUSH1 0x0 PUSH2 0x1657 DUP5 DUP3 DUP6 ADD PUSH2 0x161E JUMP JUMPDEST SWAP2 POP POP SWAP3 SWAP2 POP POP JUMP JUMPDEST PUSH32 0x4E487B7100000000000000000000000000000000000000000000000000000000 PUSH1 0x0 MSTORE PUSH1 0x11 PUSH1 0x4 MSTORE PUSH1 0x24 PUSH1 0x0 REVERT JUMPDEST PUSH1 0x0 PUSH2 0x169A DUP3 PUSH2 0x12E3 JUMP JUMPDEST SWAP2 POP PUSH2 0x16A5 DUP4 PUSH2 0x12E3 JUMP JUMPDEST SWAP3 POP DUP3 DUP3 ADD SWAP1 POP DUP1 DUP3 GT ISZERO PUSH2 0x16BD JUMPI PUSH2 0x16BC PUSH2 0x1660 JUMP JUMPDEST JUMPDEST SWAP3 SWAP2 POP POP JUMP JUMPDEST PUSH1 0x0 DUP2 MLOAD SWAP1 POP PUSH2 0x16D2 DUP2 PUSH2 0x138B JUMP JUMPDEST SWAP3 SWAP2 POP POP JUMP JUMPDEST PUSH1 0x0 PUSH1 0x20 DUP3 DUP5 SUB SLT ISZERO PUSH2 0x16EE JUMPI PUSH2 0x16ED PUSH2 0x12D9 JUMP JUMPDEST JUMPDEST PUSH1 0x0 PUSH2 0x16FC DUP5 DUP3 DUP6 ADD PUSH2 0x16C3 JUMP JUMPDEST SWAP2 POP POP SWAP3 SWAP2 POP POP JUMP JUMPDEST PUSH1 0x0 DUP2 SWAP1 POP SWAP3 SWAP2 POP POP JUMP JUMPDEST PUSH32 0x42544F543A205573657220616C726561647920697320616E206F776E6572206F PUSH1 0x0 DUP3 ADD MSTORE PUSH32 0x6620746F6B656E20776974682049442000000000000000000000000000000000 PUSH1 0x20 DUP3 ADD MSTORE POP JUMP JUMPDEST PUSH1 0x0 PUSH2 0x176C PUSH1 0x30 DUP4 PUSH2 0x1705 JUMP JUMPDEST SWAP2 POP PUSH2 0x1777 DUP3 PUSH2 0x1710 JUMP JUMPDEST PUSH1 0x30 DUP3 ADD SWAP1 POP SWAP2 SWAP1 POP JUMP JUMPDEST PUSH1 0x0 DUP2 MLOAD SWAP1 POP SWAP2 SWAP1 POP JUMP JUMPDEST PUSH1 0x0 JUMPDEST DUP4 DUP2 LT ISZERO PUSH2 0x17AB JUMPI DUP1 DUP3 ADD MLOAD DUP2 DUP5 ADD MSTORE PUSH1 0x20 DUP2 ADD SWAP1 POP PUSH2 0x1790 JUMP JUMPDEST PUSH1 0x0 DUP5 DUP5 ADD MSTORE POP POP POP POP JUMP JUMPDEST PUSH1 0x0 PUSH2 0x17C2 DUP3 PUSH2 0x1782 JUMP JUMPDEST PUSH2 0x17CC DUP2 DUP6 PUSH2 0x1705 JUMP JUMPDEST SWAP4 POP PUSH2 0x17DC DUP2 DUP6 PUSH1 0x20 DUP7 ADD PUSH2 0x178D JUMP JUMPDEST DUP1 DUP5 ADD SWAP2 POP POP SWAP3 SWAP2 POP POP JUMP JUMPDEST PUSH32 0x2E00000000000000000000000000000000000000000000000000000000000000 PUSH1 0x0 DUP3 ADD MSTORE POP JUMP JUMPDEST PUSH1 0x0 PUSH2 0x181E PUSH1 0x1 DUP4 PUSH2 0x1705 JUMP JUMPDEST SWAP2 POP PUSH2 0x1829 DUP3 PUSH2 0x17E8 JUMP JUMPDEST PUSH1 0x1 DUP3 ADD SWAP1 POP SWAP2 SWAP1 POP JUMP JUMPDEST PUSH1 0x0 PUSH2 0x183F DUP3 PUSH2 0x175F JUMP JUMPDEST SWAP2 POP PUSH2 0x184B DUP3 DUP5 PUSH2 0x17B7 JUMP JUMPDEST SWAP2 POP PUSH2 0x1856 DUP3 PUSH2 0x1811 JUMP JUMPDEST SWAP2 POP DUP2 SWAP1 POP SWAP3 SWAP2 POP POP JUMP JUMPDEST PUSH1 0x0 PUSH1 0x1F NOT PUSH1 0x1F DUP4 ADD AND SWAP1 POP SWAP2 SWAP1 POP JUMP JUMPDEST PUSH1 0x0 PUSH2 0x187D DUP3 PUSH2 0x1782 JUMP JUMPDEST PUSH2 0x1887 DUP2 DUP6 PUSH2 0x1551 JUMP JUMPDEST SWAP4 POP PUSH2 0x1897 DUP2 DUP6 PUSH1 0x20 DUP7 ADD PUSH2 0x178D JUMP JUMPDEST PUSH2 0x18A0 DUP2 PUSH2 0x1861 JUMP JUMPDEST DUP5 ADD SWAP2 POP POP SWAP3 SWAP2 POP POP JUMP JUMPDEST PUSH1 0x0 PUSH1 0x20 DUP3 ADD SWAP1 POP DUP2 DUP2 SUB PUSH1 0x0 DUP4 ADD MSTORE PUSH2 0x18C5 DUP2 DUP5 PUSH2 0x1872 JUMP JUMPDEST SWAP1 POP SWAP3 SWAP2 POP POP JUMP JUMPDEST PUSH1 0x0 PUSH2 0x18D8 DUP3 PUSH2 0x12E3 JUMP JUMPDEST SWAP2 POP PUSH32 0xFFFFFFFFFFFFFFFFFFFFFFFFFFFFFFFFFFFFFFFFFFFFFFFFFFFFFFFFFFFFFFFF DUP3 SUB PUSH2 0x190A JUMPI PUSH2 0x1909 PUSH2 0x1660 JUMP JUMPDEST JUMPDEST PUSH1 0x1 DUP3 ADD SWAP1 POP SWAP2 SWAP1 POP JUMP JUMPDEST PUSH32 0x42544F433A20496E73756666696369656E7420616D6F756E74206F6620746F6B PUSH1 0x0 DUP3 ADD MSTORE PUSH32 0x656E732E00000000000000000000000000000000000000000000000000000000 PUSH1 0x20 DUP3 ADD MSTORE POP JUMP JUMPDEST PUSH1 0x0 PUSH2 0x1971 PUSH1 0x24 DUP4 PUSH2 0x1551 JUMP JUMPDEST SWAP2 POP PUSH2 0x197C DUP3 PUSH2 0x1915 JUMP JUMPDEST PUSH1 0x40 DUP3 ADD SWAP1 POP SWAP2 SWAP1 POP JUMP JUMPDEST PUSH1 0x0 PUSH1 0x20 DUP3 ADD SWAP1 POP DUP2 DUP2 SUB PUSH1 0x0 DUP4 ADD MSTORE PUSH2 0x19A0 DUP2 PUSH2 0x1964 JUMP JUMPDEST SWAP1 POP SWAP2 SWAP1 POP JUMP JUMPDEST PUSH1 0x0 PUSH1 0x40 DUP3 ADD SWAP1 POP PUSH2 0x19BC PUSH1 0x0 DUP4 ADD DUP6 PUSH2 0x14FA JUMP JUMPDEST PUSH2 0x19C9 PUSH1 0x20 DUP4 ADD DUP5 PUSH2 0x14FA JUMP JUMPDEST SWAP4 SWAP3 POP POP POP JUMP JUMPDEST PUSH32 0x42544F433A20496E73756666696369656E7420616C6C6F77656420616D6F756E PUSH1 0x0 DUP3 ADD MSTORE PUSH32 0x74206F6620746F6B656E7320746F207370656E642E0000000000000000000000 PUSH1 0x20 DUP3 ADD MSTORE POP JUMP JUMPDEST PUSH1 0x0 PUSH2 0x1A2C PUSH1 0x35 DUP4 PUSH2 0x1551 JUMP JUMPDEST SWAP2 POP PUSH2 0x1A37 DUP3 PUSH2 0x19D0 JUMP JUMPDEST PUSH1 0x40 DUP3 ADD SWAP1 POP SWAP2 SWAP1 POP JUMP JUMPDEST PUSH1 0x0 PUSH1 0x20 DUP3 ADD SWAP1 POP DUP2 DUP2 SUB PUSH1 0x0 DUP4 ADD MSTORE PUSH2 0x1A5B DUP2 PUSH2 0x1A1F JUMP JUMPDEST SWAP1 POP SWAP2 SWAP1 POP JUMP JUMPDEST PUSH1 0x0 PUSH1 0x60 DUP3 ADD SWAP1 POP PUSH2 0x1A77 PUSH1 0x0 DUP4 ADD DUP7 PUSH2 0x14FA JUMP JUMPDEST PUSH2 0x1A84 PUSH1 0x20 DUP4 ADD DUP6 PUSH2 0x14FA JUMP JUMPDEST PUSH2 0x1A91 PUSH1 0x40 DUP4 ADD DUP5 PUSH2 0x15F4 JUMP JUMPDEST SWAP5 SWAP4 POP POP POP POP JUMP JUMPDEST PUSH1 0x0 DUP2 ISZERO ISZERO SWAP1 POP SWAP2 SWAP1 POP JUMP JUMPDEST PUSH2 0x1AAE DUP2 PUSH2 0x1A99 JUMP JUMPDEST DUP2 EQ PUSH2 0x1AB9 JUMPI PUSH1 0x0 DUP1 REVERT JUMPDEST POP JUMP JUMPDEST PUSH1 0x0 DUP2 MLOAD SWAP1 POP PUSH2 0x1ACB DUP2 PUSH2 0x1AA5 JUMP JUMPDEST SWAP3 SWAP2 POP POP JUMP JUMPDEST PUSH1 0x0 PUSH1 0x20 DUP3 DUP5 SUB SLT ISZERO PUSH2 0x1AE7 JUMPI PUSH2 0x1AE6 PUSH2 0x12D9 JUMP JUMPDEST JUMPDEST PUSH1 0x0 PUSH2 0x1AF5 DUP5 DUP3 DUP6 ADD PUSH2 0x1ABC JUMP JUMPDEST SWAP2 POP POP SWAP3 SWAP2 POP POP JUMP JUMPDEST PUSH32 0x42544F543A20546F6B656E20776974682073756368204944206861736E277420 PUSH1 0x0 DUP3 ADD MSTORE PUSH32 0x65787069726564207965742E0000000000000000000000000000000000000000 PUSH1 0x20 DUP3 ADD MSTORE POP JUMP JUMPDEST PUSH1 0x0 PUSH2 0x1B5A PUSH1 0x2C DUP4 PUSH2 0x1551 JUMP JUMPDEST SWAP2 POP PUSH2 0x1B65 DUP3 PUSH2 0x1AFE JUMP JUMPDEST PUSH1 0x40 DUP3 ADD SWAP1 POP SWAP2 SWAP1 POP JUMP JUMPDEST PUSH1 0x0 PUSH1 0x20 DUP3 ADD SWAP1 POP DUP2 DUP2 SUB PUSH1 0x0 DUP4 ADD MSTORE PUSH2 0x1B89 DUP2 PUSH2 0x1B4D JUMP JUMPDEST SWAP1 POP SWAP2 SWAP1 POP JUMP JUMPDEST PUSH32 0x4F776E61626C653A206E6577206F776E657220697320746865207A65726F2061 PUSH1 0x0 DUP3 ADD MSTORE PUSH32 0x6464726573730000000000000000000000000000000000000000000000000000 PUSH1 0x20 DUP3 ADD MSTORE POP JUMP JUMPDEST PUSH1 0x0 PUSH2 0x1BEC PUSH1 0x26 DUP4 PUSH2 0x1551 JUMP JUMPDEST SWAP2 POP PUSH2 0x1BF7 DUP3 PUSH2 0x1B90 JUMP JUMPDEST PUSH1 0x40 DUP3 ADD SWAP1 POP SWAP2 SWAP1 POP JUMP JUMPDEST PUSH1 0x0 PUSH1 0x20 DUP3 ADD SWAP1 POP DUP2 DUP2 SUB PUSH1 0x0 DUP4 ADD MSTORE PUSH2 0x1C1B DUP2 PUSH2 0x1BDF JUMP JUMPDEST SWAP1 POP SWAP2 SWAP1 POP JUMP JUMPDEST PUSH32 0x4E487B7100000000000000000000000000000000000000000000000000000000 PUSH1 0x0 MSTORE PUSH1 0x41 PUSH1 0x4 MSTORE PUSH1 0x24 PUSH1 0x0 REVERT JUMPDEST PUSH32 0x4E487B7100000000000000000000000000000000000000000000000000000000 PUSH1 0x0 MSTORE PUSH1 0x12 PUSH1 0x4 MSTORE PUSH1 0x24 PUSH1 0x0 REVERT JUMPDEST PUSH32 0x4F776E61626C653A2063616C6C6572206973206E6F7420746865206F776E6572 PUSH1 0x0 DUP3 ADD MSTORE POP JUMP JUMPDEST PUSH1 0x0 PUSH2 0x1CB6 PUSH1 0x20 DUP4 PUSH2 0x1551 JUMP JUMPDEST SWAP2 POP PUSH2 0x1CC1 DUP3 PUSH2 0x1C80 JUMP JUMPDEST PUSH1 0x20 DUP3 ADD SWAP1 POP SWAP2 SWAP1 POP JUMP JUMPDEST PUSH1 0x0 PUSH1 0x20 DUP3 ADD SWAP1 POP DUP2 DUP2 SUB PUSH1 0x0 DUP4 ADD MSTORE PUSH2 0x1CE5 DUP2 PUSH2 0x1CA9 JUMP JUMPDEST SWAP1 POP SWAP2 SWAP1 POP JUMP INVALID LOG2 PUSH5 0x6970667358 0x22 SLT KECCAK256 PUSH27 0xD138B359FA90F44A7FCF3F46B116C841591A449F9FC1A482C7DE SWAP11 JUMPI SELFDESTRUCT NUMBER PUSH5 0x736F6C6343 STOP ADDMOD SLT STOP CALLER "
				},
				"gasEstimates": {
					"creation": {
						"codeDepositCost": "1491600",
						"executionCost": "infinite",
						"totalCost": "infinite"
					},
					"external": {
						"buyToken(uint256,uint256)": "infinite",
						"expireToken(uint256,uint256)": "infinite",
						"onERC721Received(address,address,uint256,bytes)": "infinite",
						"owner()": "2588",
						"renounceOwnership()": "30420",
						"transferOwnership(address)": "30832"
					}
				},
				"methodIdentifiers": {
					"buyToken(uint256,uint256)": "057466ea",
					"expireToken(uint256,uint256)": "722227f2",
					"onERC721Received(address,address,uint256,bytes)": "150b7a02",
					"owner()": "8da5cb5b",
					"renounceOwnership()": "715018a6",
					"transferOwnership(address)": "f2fde38b"
				}
			},
			"storageLayout": {
				"storage": [
					{
						"astId": 7,
						"contract": "contracts/BTOFAManager.sol:BankManager",
						"label": "_owner",
						"offset": 0,
						"slot": "0",
						"type": "t_address"
					},
					{
						"astId": 1441,
						"contract": "contracts/BTOFAManager.sol:BankManager",
						"label": "_BTOFACurrency",
						"offset": 0,
						"slot": "1",
						"type": "t_contract(IERC20)190"
					},
					{
						"astId": 1444,
						"contract": "contracts/BTOFAManager.sol:BankManager",
						"label": "_BTOFAToken",
						"offset": 0,
						"slot": "2",
						"type": "t_contract(IBTOFAToken)1434"
					}
				],
				"types": {
					"t_address": {
						"encoding": "inplace",
						"label": "address",
						"numberOfBytes": "20"
					},
					"t_contract(IBTOFAToken)1434": {
						"encoding": "inplace",
						"label": "contract IBTOFAToken",
						"numberOfBytes": "20"
					},
					"t_contract(IERC20)190": {
						"encoding": "inplace",
						"label": "contract IERC20",
						"numberOfBytes": "20"
					}
				}
			},
			"userdoc": {
				"kind": "user",
				"methods": {},
				"version": 1
			}
		}
	}
}